:020000040000FA
:100000000214E2021B02E47873F222021C30021591
:10001000262222021B5C02C6542222021C504C459E
:100020005F2222021C05FFFFFFFFFF021C3DFFFFB6
:10003000FFFFFF021C2FD310AF01C3C0D0EFF5E9C3
:10004000EDF5EDEEF5EAECF5EE7402140070FC004F
:10005000E5E9FFE5EAFEE5EBFDE5ECFCD0D092AF8B
:1000600022FFFF021C50E709F608DFFA8046E70985
:10007000F208DFFA803E88828C83E709F0A3DFFA7A
:100080008032E309F608DFFA8078E309F208DFFA44
:10009000807088828C83E309F0A3DFFA8064898210
:1000A0008A83E0A3F608DFFA805889828A83E0A376
:1000B000F208DFFA804C80D280FA80C680D4806952
:1000C00080F28033801080A680EA809A80A880DA4F
:1000D00080E280CA803389828A83ECFAE493A3C8E1
:1000E000C582C8CCC583CCF0A3C8C582C8CCC583A3
:1000F000CCDFE9DEE7800D89828A83E493A3F608EA
:10010000DFF9ECFAA9F0EDFB2289828A83ECFAE0B0
:10011000A3C8C582C8CCC583CCF0A3C8C582C8CC4F
:10012000C583CCDFEADEE880DB89828A83E493A39F
:10013000F208DFF980CC88F0EF60010E4E60C388D2
:10014000F0ED2402B4040050B9F582EB2402B404AB
:100150000050AF23234582239000B673BB0106896C
:10016000828A83E0225002E722BBFE02E3228982D8
:100170008A83E49322BB010CE58229F582E5833A68
:10018000F583E0225006E92582F8E622BBFE06E967
:100190002582F8E222E58229F582E5833AF583E4B7
:1001A0009322BB010689828A83F0225002F722BB88
:1001B000FE01F322F8BB010DE58229F582E5833AC1
:1001C000F583E8F0225006E92582C8F622BBFE0539
:1001D000E92582C8F222EF8DF0A4A8F0CF8CF0A41C
:1001E00028CE8DF0A42EFE22BC000BBE0029EF8D80
:1001F000F084FFADF022E4CCF875F008EF2FFFEEAD
:1002000033FEEC33FCEE9DEC984005FCEE9DFE0FBA
:10021000D5F0E9E4CEFD22EDF8F5F0EE8420D21C15
:10022000FEADF075F008EF2FFFED33FD400798505D
:1002300006D5F0F222C398FD0FD5F0EA22C2D5EC24
:1002400030E709B2D5E4C39DFDE49CFCEE30E71530
:10025000B2D5E4C39FFFE49EFE1201E8C3E49DFD16
:10026000E49CFC80031201E830D507C3E49FFFE45F
:100270009EFE22C5F0F8A3E028F0C5F0F8E582154F
:100280008270021583E038F022A3F8E0C5F025F073
:10029000F0E582158270021583E0C838F0E822BBD1
:1002A000010A89828A83E0F5F0A3E022500687F0F4
:1002B00009E71922BBFE07E3F5F009E31922898259
:1002C0008A83E493F5F074019322BB0110E582293F
:1002D000F582E5833AF583E0F5F0A3E0225009E9E1
:1002E0002582F886F008E622BBFE0AE92582F8E2BC
:1002F000F5F008E222E5832AF583E993F5F0A3E916
:100300009322BB010A89828A83F0E5F0A3F0225090
:1003100006F709A7F01922BBFE06F3E5F009F31969
:1003200022F8BB0111E58229F582E5833AF583E8DD
:10033000F0E5F0A3F0225009E92582C8F608A6F0FE
:1003400022BBFE09E92582C8F2E5F008F222EF2B74
:10035000FFEE3AFEED39FDEC38FC22C3EF9BFFEED9
:100360009AFEED99FDEC98FC22E88FF0A4CC8BF07E
:10037000A42CFCE98EF0A42CFC8AF0EDA42CFCEA61
:100380008EF0A4CDA8F08BF0A42DCC3825F0FDE99B
:100390008FF0A42CCD35F0FCEB8EF0A4FEA9F0EB91
:1003A0008FF0A4CFC5F02ECD39FEE43CFCEAA42D9D
:1003B000CE35F0FDE43CFC22EF5BFFEE5AFEED593A
:1003C000FDEC58FC22EF4BFFEE4AFEED49FDEC48F8
:1003D000FC22EF6BFFEE6AFEED69FDEC68FC22CFBC
:1003E000F4CFCEF4CECDF4CDCCF4CC22EB9FF5F00F
:1003F000EA9E42F0E99D42F0E89C45F022E8600F59
:10040000ECC313FCED13FDEE13FEEF13FFD8F12246
:10041000E86010ECA2E713FCED13FDEE13FEEF1302
:10042000FFD8F022E8600FEFC333FFEE33FEED3369
:10043000FDEC33FCD8F122E0FCA3E0FDA3E0FEA339
:10044000E0FF22E2FC08E2FD08E2FE08E2FF22E40F
:1004500093FC740193FD740293FE740393FF22E0F6
:10046000F8A3E0F9A3E0FAA3E0FB22E2FB08E2F93B
:1004700008E2FA08E2CBF822ECF0A3EDF0A3EEF0EC
:10048000A3EFF022ECF208EDF208EEF208EFF22210
:10049000A8828583F0D083D0821204A71204A71209
:1004A00004A71204A7E473E493A3C583C5F0C5832E
:1004B000C8C582C8F0A3C583C5F0C583C8C582C8B6
:1004C00022A42582F582E5F03583F58322E0FBA3A3
:1004D000E0FAA3E0F922F8E0FBA3A3E0F925F0F0AD
:1004E000E582158270021583E0FA38F022EBF0A362
:1004F000EAF0A3E9F022E2FB08E2FA08E2F922EBD3
:10050000F208EAF208E9F222E493FB740193FA7428
:100510000293F922D083D082F8E49370127401938D
:10052000700DA3A393F8740193F5828883E4737428
:1005300002936860EFA3A3A380DFD083D082F8E4A6
:10054000937012740193700DA3A393F8740193F543
:10055000828883E473740293B5F006740393686031
:10056000E9A3A3A3A380D8D083D082E493701274AC
:100570000193700DA3A393F8740193F5828883E42B
:10058000737402936C70127403936D700C74049303
:100590006E70067405936F60DDA3A3A3A3A3A3806D
:1005A000CA8A838982E4738F468D47E478CDF20846
:1005B000E5A5F275F0CFEF123AC6AF82FE78CBF226
:1005C00008EFF28E83E07009E547640260030208D9
:1005D000A4E547640B603AE5476404603490D2A117
:1005E000E0FEA3E0FFF5828E83A3E0B546148F8280
:1005F0008E83E030E10C90D2A1A3E0F5828E83746B
:1006000004F075A501AF4612B45D78CEE2F5A5C23F
:1006100023E5476404600B75A507AF4612E24AE480
:10062000F5A575A507AF4612E24A78CEE2F5A578A2
:10063000CBE2FE08E2FF2444F582EE3401F583E4C8
:10064000F08F828E83E0FF30E30F18E2FC08E2F5C2
:10065000828C83EF54F7F0801B78CBE2FE08E2F542
:10066000828E83E030E50D75A507AF4612B79B7803
:10067000CEE2F5A57B06AD467FFF1216787B06AD70
:10068000467F3E1220907B06AD467F3F1220909021
:10069000DE55E0B401031237C4AF46123C10E54703
:1006A00064047003020885E546C394024003020710
:1006B000CF74432546F582E434C7F583E4F0123A5B
:1006C000BEF583E0700D90C742F0C2AF90C760E006
:1006D00054FEF078CD7401F230260E90C760E02011
:1006E000E0077D817F0A12338230575E90C760E059
:1006F000FF20E30330E253EF5403704EE547640BF1
:10070000602090C760E030E30975A5077B027D8417
:10071000802E90C760E030E23175A5077B027D88AE
:10072000801E90C760E030E30975A5077B027D0459
:10073000800E90C760E030E21175A5077B027D084E
:100740007F1712ECCF78CEE2F5A5E547640B601079
:10075000203C0D20260A20570790C75CE054FCF08F
:10076000D2AFE54675F014A4244EF582E434D9F5F1
:1007700083E4F074092546F582E434C9F583E4F096
:10078000E54675F005A4242EF582E434D9F583E01E
:1007900054FEF0785EE254FEF2303C1BE546640104
:1007A0004480FD7F10123382123ABEF583E0542854
:1007B0007003020885800F90C75612049000000055
:1007C00000E490C755F078BFE254EFF2020885E4E8
:1007D000F548F54978CA7402F27859E2FF78CAE21E
:1007E000FED39F502875F0CFEE90C0061204C1EEE4
:1007F0002583F583E0FF544660020548EF54C66048
:100800000578CAE2F54978CAE204F280CC7859E565
:1008100049F2E5487039C2AF90C760E054FDF07806
:10082000CD7401F2303C04C226E4F23026097D8208
:100830007F0A123382800E90C760E020E00790C7E5
:100840005CE054FCF0D2AF785EE254FBF2800EE53F
:1008500048C39402500790D9C3E054FEF090D94B9E
:10086000E0702290D93AF090BC22E0547FF0C2218F
:10087000E490D977F090D2D5F090D2BBF090DE889A
:10088000F090D2BFF090C75CE0700F75A50712B86A
:10089000E378CEE2F5A5187401F278CDE260057F29
:1008A00001123C802275A50712F92B12F1C475A51F
:1008B0000612F5CC781FE6B4AA05758E128066750F
:1008C0008E01300060E490985DF0A3F090A4F5E014
:1008D00030E0177F081237A190985DEEF0A3EFF09B
:1008E000EE548090985DF0A3E4F090985DE0700283
:1008F000A3E07031781FE620E30690DD747401F008
:100900001239EDC390DDCBE094C290DDCAE09401D2
:100910005013909BF1E0544FF0E0FCA3E0FD7F0109
:1009200012377E80FEE4F5A5123AD0781FE664AA5D
:10093000706790BD03F075A50590B203F090B00606
:1009400004F0A3E04401F07E047FD07C507D007B66
:10095000007A0112373712BC4C7E047FD07B327A8A
:10096000007D007C06123572E4F56B123650FEA352
:10097000E04E60139004E6123653FF123650FCA38B
:10098000E0F5828C83EFF0056BE56BB40ADDE49053
:10099000BF00F075A50512CD6630050BE490BD03D0
:1009A000F075A50212B5E212275075A50612F17B6B
:1009B00030002B909EB3E030E22475A50790BE2A4C
:1009C000E01490DDEBF0909FAEE00490DDEDF09050
:1009D0009FAFE00412365D12AEC0E412365DE4F55E
:1009E000A51220F6300503020A9575A50412A81A6F
:1009F000200003020A95909EB1E030E00675A50440
:100A000012C4FD75A50712C90D909EB3E030E20334
:100A100012AEC075A501909F74E07014909EAEE078
:100A200020E30D909EB2E020E106909FDEE0601092
:100A30009086B5E06007909EAEE030E30312FB982D
:100A400075A506909FD5E030E40312BAB2909EAE31
:100A5000E030E50312B86612C700909FD6E030E799
:100A60000312C521909EB3E030E20312F3BA909FC7
:100A7000FDE030E60312E7D0909EB4E030E60312CA
:100A8000B365909EB4E030E50312CF4012E14C759F
:100A9000A50612E5FFE5D630E505E490BD0CF0753E
:100AA000A506126907E4F5A57894E2707590DCD587
:100AB000E0600AE4F090A81404F000806590A818A3
:100AC000E090985BF0E020E05990AA0BE020E4521F
:100AD00090DCDAE0B4011CE4F012366AE4F0EF24B2
:100AE00008F582E43EF583E0FFA3E090D29BCFF0CF
:100AF000A3EFF012366AE0B4012890DCDA7401F05A
:100B00008F828E83A3A3A3E0FFA3E090AA32CFF04D
:100B1000A3EFF090AA1CE4F0A3743CF090AA0B742D
:100B200010F03005030209E175A50612E423E4F58F
:100B3000A5909E1EE030E00975A50112FB86E4F544
:100B4000A5E51260030209E1909E46E0540F60148F
:100B500075A50112D69790985CEFF0E4F5A5EF60CB
:100B6000030209E1909E46E054F070030209E1E5BA
:100B70001260030209E190D9B0E060030209E1E5E7
:100B80008754FC4401F58700000209E18E4F8F5025
:100B90008F828E83E5822404F582E43583F583E039
:100BA000147003020CB7046003020E30783EE2FEBC
:100BB00008E2F5828E83A3A3E0FEA3E0FF7838E28B
:100BC000FC08E2FDD3EF9DEE9C4003020C7712205F
:100BD000198E4F8F50783EE2FE08E2FF2405F58221
:100BE000E43EF583E0FDE5502404F582E4354FF55D
:100BF00083EDF0EF2406F582E43EF583E0FFE55057
:100C00002405F582E4354FF583EFF018E2FE08E2A3
:100C10002404F582E43EF583E0FFAD50AC4F121F93
:100C2000E6783EE2FE08E2FFF5828E83A3A3E0FCB5
:100C3000A3E0FDC37839E29DF218E29CF28F828E28
:100C400083E0FEA3E0FF7835E2FC08E2FD783EE2B7
:100C5000FA08E2FBF5828A83ECF0A3EDF07835EA3E
:100C6000F208EBF2783EEEF208EFF2EF4E6003028C
:100C70000BAC7838F208F27838E2FE08E2FF4E60FA
:100C80002E783EE2FC08E2F5828C83A3A3C083C0E9
:100C900082C3A3E09FFF0582D5820215831582E0FF
:100CA0009ED082D083F0A3EFF0E47838F208F2E42B
:100CB0007834F2121FF722E5502405F582E4354F0F
:100CC000F583E0F55225E02430F874FFF208F27461
:100CD000422552F874FFF2E4F551E552C454F02471
:100CE0000EF582E434D7F58375F004E5511204C1A2
:100CF000E064016003020E0FE552C454F0240FF5C6
:100D000082E434D7F58375F004E5511204C1E0FEA6
:100D1000A3E0FFE55225E0243CF8E2FC08E2FDD325
:100D2000EF9DEE9C504F1220198E4F8F508F828E68
:100D300083E5822404F582E43583F583E552F08F60
:100D4000828E83E5822405F582E43583F583E551BF
:100D5000F0AD50AC4F7F02121FE6E552C454F024B0
:100D60000EF582E434D7F58375F004E5511204C121
:100D7000E4F0020E0FE552C454F0240FF582E4347F
:100D8000D7F58375F004E5511204C1C083C082E534
:100D90005225E0243CF8E2FE08E2FFC3A3E09FFFF7
:100DA0000582D5820215831582E09ED082D083F021
:100DB000A3EFF0E552C454F0240FF582E434D7F5E4
:100DC0008375F004E5511204C1E0FEA3E0FFE55293
:100DD00025E02430F8E2FC08E2FDC3EF9DEE9C50D4
:100DE0002E74422552F8E551F2E552C454F0240F16
:100DF000F582E434D7F58375F004E5511204C1E0BF
:100E0000F8A3E0FFE55225E02430C8F208EFF20530
:100E100051E551C394045003020CDAE55225E02455
:100E20003CF8E4F208F274372552F8E4F2121FF7A6
:100E30002250DF1E00000000000000000000000043
:100E40000000000042DF7A000046DF74000000006E
:100E5000000041DFD10041284B0041257E0042DEE9
:100E60001B000041818F004186AF8241DDC80541F2
:100E7000DD780041DFBC004DDD4D1E19140F0A0561
:100E800000FBF6F1ECE7E241DD4C0641DD60066077
:100E900050D8664000437A473C4B164FB0558259B4
:100EA0008C5ECE62486622699C6C6E70A873F27785
:100EB000FC7BBE80A085228A348EE692789442958F
:100EC000C499CE9C889F2AA2D4A636A8F0ABAAAE1D
:100ED0007CB14EB468B73AB9DCBCDEBFE0C2E2C553
:100EE00084C86E6028D83ECC92CE8CD03ED1C0D380
:100EF00042D4C4D6BED888DA0ADB5CDD0EDE30DF31
:100F00009AE0BCE1F6E360E4CAE604E786E8A8609C
:100F100050D8B6400042A2448448D64DD052B25771
:100F2000C45D1E611065AA6B1C6F9E74E0791A7D0A
:100F3000B481EE847888CA8D4C919E9590972A99B9
:100F4000249C3E9F28A22AA5D4A91EAB90AE4AB1EC
:100F50001CB4C6B900BC02BF04C1D6C538C852CC47
:100F60008CCFEE6028D906D48AD63CD7A6D958DAD9
:100F7000C2DC5CDE26DFC0E18AE30CE4A6E670E7B3
:100F800092E914EA66EBD0ED6AEF1CF0B6F2386035
:100F900032DCDB2603530069006D0070006C0065D5
:100FA000002000480049004400200044006500760D
:100FB00000690063006500200000000000000000E0
:100FC000000000000041DDBE0142DA82000041CE97
:100FD000A2000090BF17E0F52B90BF16E0F52C9013
:100FE000BF1AE0F52D7894E27010E52C7004E52B23
:100FF0006004123A39221210152212101522FFFF36
:10100000353530365F4455414C5F53504B004210EC
:101010000001000001E4F530305E54789CE2704C31
:1010200004F290AA5FE0F52F789EF224FE601C0483
:1010300070327A0079A378A37C007DFE7B017AAAC6
:1010400079607E007F0412013680247A0079A378CB
:10105000A37C007DFE7B017AAA79647E007F041266
:101060000136800BE4789CF2800580037530012006
:101070005F030211CC789CE2640160030211CC781A
:101080009EE224FE70030211180460030211B57879
:101090009DE225E0247BF582E434DCF583E0FEA3C9
:1010A000E0FF78A9EEF2FA08EFF2FBAA0EAB0F18F8
:1010B000E2FE08E2FF2404F582E43EF5837421F0A9
:1010C000789FE2FC08E2FDEF2406F582E43EF5831A
:1010D000ECF0A3EDF078A3E2FC08E2FD08E2FE08E4
:1010E000E2FFEB2409F582E43AF58312047878A84C
:1010F000E26401F225E02431F582E43421F583E055
:10110000FEA3E0FF789FEEF2FE08EFF2FF90AA9AAE
:10111000EEF0A3EFF00211B5789DE225E0247BF517
:1011200082E434DCF583E0FEA3E0FF78A9EEF2FE72
:1011300008EFF2FF786BE2FC08E2FD2407F582E499
:101140003CF583E0FBEF2405F582E43EF583EBF00C
:10115000ED2408F582E43CF583E0FEA3E0FF18EE01
:10116000F2FE08EFF24E70081874C8F2087491F29B
:10117000786BE2FE08E2F5828E83A3A3A3E0FEA3D0
:10118000E090AA7BF0EE90AA7AF078A9E2FA08E261
:10119000FB2404F582E43AF5837422F078A3E2FCA0
:1011A00008E2FD08E2FE08E2FFEB2409F582E43ADA
:1011B000F583120478E4789CF278A9E2FC08E2FD59
:1011C0007F04122200789DE2045407F2E530604B60
:1011D000789C7401F290AA5FE0F52F789EF224FECD
:1011E000601C0470327A0079A378A37C007DFE7BBA
:1011F000017AAA79607E007F04120136801D7A0090
:1012000079A378A37C007DFE7B017AAA79647E00B5
:101210007F041201368004E4789CF2305D36789DBC
:10122000E225E0247BF582E434DCF583E0FFA3E0F3
:1012300078A9CFF208EFF218E2FC08E2FD2404F5E9
:1012400082E43CF5837440F07F04122200789DE232
:10125000045407F2E52D5478FFE52B541B4F60171B
:10126000E52B30E106781F76208004781F7610E4A5
:1012700090BD03F012000E306A0312269922752FDA
:101280000190BF3374FFF090BF12E0F52CA3E0F59E
:101290002B206303021367909DB1E0FEA3E0F5826B
:1012A0008E83E0FB30E12D90BE27E030E01790BE4A
:1012B00000120490FFFFFFFF90BE13E04420F09067
:1012C000DF847401F0909DB1E0FEA3E0F5828E838F
:1012D000EB54FDF0909C85E07004A3E06401701471
:1012E00090BA23F07431F090B4697420F0E4909CCB
:1012F00085F0A3F0909C62E0FF30E12554F5FFBF3C
:10130000611F90BE27E030E01190BE00120490FFF4
:10131000FFFFFF90BE13E04420F0909C62E0448009
:10132000F078A2E225E0245AF582E434DCF583E08B
:10133000FEA3E0FF78A9EEF2FE08EFF2FF2406F527
:1013400082E43EF583E52BF0EF2407F582E43EF5D9
:1013500083E52CF018E2FC08E2FD7F0212220078FF
:10136000A2E2045407F222303E0753A4FEC23EC25A
:101370001F78A2E225E0245AF582E434DCF583E00C
:10138000FEA3E0FF78A9EEF2FE08EFF2FF2406F5D7
:1013900082E43EF583E52BF0EF2407F582E43EF589
:1013A00083E52CF0305E02D23A20580302149AD220
:1013B0003690BE27E0785FF290BC1B7401F0785A3B
:1013C000E2700302149AE4F290B85FE0640460F8FB
:1013D000E0640560F390BF43E020E20302149A90BA
:1013E000C939E0FEA3E0F5828E83A3E0FF90B82B1D
:1013F000E054076F600302149A90BF23E054BFF0DB
:1014000090BF337440F090BE27E0785FF2E2FF9027
:10141000BA0BE0C39F04FF3395E0FEFDFC90BE00D5
:1014200012047890BE13E04420F090B82BE054787A
:10143000F530D2186470602FE53064786029E530AB
:1014400064506023E5306458601D90BE17E044028C
:10145000F00000000090BE03E0440190BA03F09059
:10146000BA237401F0D230E530600D64086009D20F
:101470003790BF23E04410F090BF13E0F53090BFE9
:1014800023E04440F0303A1278A9E2FE08E2240654
:10149000F582E43EF583E054BFF0305C2D30182A2D
:1014A000E519241AF582E43518F5837401F0E51B7B
:1014B000241AF582E4351AF583E0FF90B81AE05457
:1014C000FEFEEF4EF0305D02D238E52F601378A9B2
:1014D000E2FC08E2FD7F0212220078A2E204540737
:1014E000F22243A110D2A4C2A490BD147401F0E46E
:1014F000F00000000000000000000090BF00E4F0D9
:1015000090A4B07400F090A4B174C8F090A4B27428
:1015100001F090A4B37480F090BD10E05407781FE0
:10152000F6752000D20643A110D2A4C2A4D2A4C250
:10153000A490BF00E4F090BF007403F075A500759F
:10154000D00078FF79DFE4F618D9FC781EF6D8FDD4
:1015500075A4045387DF43A30453A3F7C282D28246
:101560000000308354C282000020834DD2820000EC
:10157000308346C282000020833FC20153A3FD5343
:10158000A2DF53A17F30810F30950C20A709D20133
:101590007480781FF6802253A1EE00000000000046
:1015A000000030A40C20A009D2017480781FF680BE
:1015B0000874AA781FF602163353A3FE75A70078A5
:1015C000007F00E4F208DFFC9001007F007E9DE4D4
:1015D000F0A3DFFCDEFA90C0007F007E20E4F0A3E1
:1015E000DFFCDEFA751E0090000078107455F0A341
:1015F000D8FC7581FF0216330208A5E493A3F8E432
:1016000093A34003F68001F208DFF48029E493A35A
:10161000F85407240CC8C333C4540F4420C8834073
:1016200004F456800146F6DFE4800B010204081042
:10163000204080900E31E47E019360BCA3FF543FB4
:1016400030E509541FFEE493A360010ECF54C0257A
:10165000E060A840B8E493A3FAE493A3F8E493A36A
:10166000C8C582C8CAC583CAF0A3C8C582C8CAC5CE
:1016700083CADFE9DEE780BEAA07A90590D4BBE0F4
:10168000FDA3E0909823CDF0A3EDF0E4A3F0A3F048
:10169000909823E0FCA3E0FD4C700302180AED24AF
:1016A00004F582E43CF583E06B60030217E990984F
:1016B00023E0A3E02406F582E43CF583E0696003BF
:1016C0000217E9ED2405F582E43CF583E06A600742
:1016D000EAF460030217C8909823E0FCA3E0FDF54C
:1016E000828C83E0F8A3E0F58288834583601F8DB8
:1016F000828C83A3A3E0FEA3E0FF8D828C83E0FCB9
:10170000A3E0F5828C83A3A3EE8FF012027390986E
:1017100025E07002A3E0704D909823E0FEA3E0FF67
:10172000F5828E83E0FDA3E090D4BBCDF0A3EDF075
:1017300090D59DE0FDA3E08F828E83CDF0A3EDF0E8
:10174000909823E0FFA3E090D59DCFF0A3EFF09019
:10175000D4BBE0FFA3E0909823CFF0A3EFF0E4A385
:10176000F0A3F08058909823E0FEA3E0F5828E83EA
:10177000E0FEA3E0FF909825E0FCA3E0F5828C83D7
:10178000EEF0A3EFF090D59DE0FEA3E0FF9098234C
:10179000E0FCA3E0FDF5828C83EEF0A3EFF090D5A2
:1017A0009DECF0A3EDF0909825E0FEA3E0F5828E8D
:1017B00083E0FFA3E0909823CFF0A3EFF0EAF4706A
:1017C0000302169022021690909823E0FEA3E0FFF9
:1017D000A3EEF0A3EFF0F5828E83E0FFA3E09098F4
:1017E00023CFF0A3EFF0021690909823E0FEA3E041
:1017F000FFA3EEF0A3EFF0F5828E83E0FFA3E0906D
:101800009823CFF0A3EFF0021690228E398F3A8FF3
:10181000828E83E5822404F582E43583F583E02417
:10182000FE601F14700302192914700302195F244B
:1018300003600302198B7B007A04E4FD7F0212200F
:101840007F2290D4BBE0FEA3E0FF4E700302191389
:101850008F828E83A3A374FFF5F012027390D4BB22
:10186000E0FEA3E0F5828E83A3A3E0FEA3E04E603A
:10187000030219131220198E398F3A90D4BBE0FE5F
:10188000A3E0FF2405F582E43EF583E0FDE53A247C
:1018900004F582E43539F583EDF0EF2406F582E4B2
:1018A0003EF583E0FFE53A2405F582E43539F5831A
:1018B000EFF090D4BBE0FEA3E02404F582E43EF513
:1018C00083E0FFAD3AAC39121FE690D4BBE0FEA333
:1018D000E0FFF5828E83E0FCA3E08C3BF53C90D5E5
:1018E0009DE0FDA3E08F828E83CDF0A3EDF090D438
:1018F000BBE0FFA3E090D59DCFF0A3EFF090D4BB69
:10190000E53BF0A3E53CF0453B600302185D800336
:1019100002185D90D4BBE07002A3E0606E7B007A99
:1019200004E4FD7F0212207F22E53A2406FFE4351D
:1019300039FAA9077B01900001120175FF9000029E
:10194000120175FD9000031202CAFBAAF0E53A24C9
:1019500006F582E43539F583E0F54E12198C22E55F
:101960003A2406FFE43539FAA9077B0190000112F9
:101970000175FF900002120175FDE53A2406FBE4B3
:1019800035398B82F583E0FB121678228F4A8D4B16
:101990008A4C8B4DE54D454C7003021B0190D4BB26
:1019A000E07002A3E070231220199097BFEEF0A31D
:1019B000EFF09097BFE0FCA3E0FD2404F582E43C47
:1019C000F5837401F07F07121FE6AB4EAD4BAF4AB3
:1019D00012167890D4BBE0FFA3E09097C1CFF0A39C
:1019E000EFF0E4A3F0A3F09097C1E0FEA3E0FF4E78
:1019F00060478F828E83A3A3E0FEA3E0FFC3954DD3
:101A0000EE954C50349097C1E0FCA3E0FDC3E54D4A
:101A10009FF54DE54C9EF54CA3ECF0A3EDF09097AF
:101A2000C1E0FEA3E0F5828E83E0FFA3E09097C1C2
:101A3000CFF0A3EFF080B080AE90D59DE0FEA3E0A4
:101A4000FFF5828E83A3A3E54CF0A3E54DF0EF24D0
:101A500004F582E43EF583E54EF0EF2405F582E4DB
:101A60003EF583E54AF0EF2406F582E43EF583E592
:101A70004BF09097C3E0FEA3E0FF4E701190D59D10
:101A8000E0FDA3E090D4BBCDF0A3EDF0801090D5A5
:101A90009DE0FDA3E08F828E83CDF0A3EDF090D585
:101AA0009DE0FEA3E0FFF5828E83E0FDA3E090972A
:101AB000C3CDF0A3EDF09097C1E0FCA3E0FD8F82D1
:101AC0008E83ECF0A3EDF08D828C83A3A3C083C042
:101AD00082C3A3E0954DFF0582D58202158315824E
:101AE000E0954CD082D083F0A3EFF09097C3E0FE56
:101AF000A3E0FF90D59DEEF0A3EFF04E7003123EF1
:101B00006B22C0D0C0E0303E2A53A4DF90B203E085
:101B1000547FF090B207E020E7F9000030071490FE
:101B2000BF83E054FDF090DF5EE0F58E90BF83E070
:101B30004401F0C0F0C092C083C082C085C08475EB
:101B4000D00875920012127E300F41D084D085D01B
:101B500082D083D092D0F0D0E0D0D032C0D0C0E0DC
:101B6000C0F0C092C083C082C085C08475D00875A3
:101B70009200120FD3200503300E11D084D085D0EF
:101B800082D083D092D0F0D0E0D0D03275D000C0D7
:101B9000A5C000C001C002C003C004C005C006C08B
:101BA0000775A500200E2F74B0C0E0741BC0E03292
:101BB0001225C2D007D006D005D004D003D002D061
:101BC00001D000D0A5D084D085D082D083D092D04F
:101BD000F0D0E0D0D02274DFC0E0741BC0E032123D
:101BE0002D1FD007D006D005D004D003D002D001DD
:101BF000D000D0A5D084D085D082D083D092D0F030
:101C0000D0E0D0D022C0D0C0E0C0F0C092C083C02D
:101C100082C085C08475D008759200122AD0D08405
:101C2000D085D082D083D092D0F0D0E0D0D03232E4
:101C3000C000C0E0C0D0D0D0D0E0D00032C0D010C2
:101C4000C6028009200204B2A08002B283D0D03242
:101C5000328E328F337839E22533F218E23532F2A0
:101C600074FFF537F538E4F53474422534F8E2B4FE
:101C7000FF0EE53425E0243CF8E4F208F2021D01F1
:101C8000E53425E0243DF8E22533F218E23532F25E
:101C900074372534F8E27069E53425E0243CF8E235
:101CA000FE08E2FFE53425E02431F9D3E39F19E390
:101CB0009E5020E53425E02440F8E2FC08E2FD7F58
:101CC0000112220074372534F87401F2E4F537F577
:101CD00038802EE53425E0243CF8E2FE08E2FFE5FA
:101CE0003425E02431F8C3E29FF53618E29EF5353D
:101CF000C3E5369538E53595375006853537853651
:101D0000380534E534C394015003021C697832E588
:101D100037F208E538F208E2706F783EE2FE08E23A
:101D2000FF4E605F8F828E83A3A3E0FEA3E0FF7867
:101D300038E2FC08E2FDD3EF9DEE9C501108E2FC76
:101D400008E2FD7F0112220078347401F222783E0D
:101D5000E2FE08E2F5828E83A3A3C083C0827838B6
:101D6000E2FE08E2FFC3A3E09FFF0582D5820215D1
:101D7000831582E09ED082D083F0A3EFF0E418F2C6
:101D800008F222E47838F208F222AA07A905783E80
:101D9000E2FC08E28C14F515E4F516F517E5154597
:101DA000147003021EBDE5152404F582E43514F514
:101DB00083E06B6003021EA6E5152406F582E43578
:101DC00014F583E0696003021EA6E5152405F5827B
:101DD000E43514F583E06A6007EAF46003021E8FBD
:101DE000851582851483E0FCA3E0FD4C6019851401
:101DF00083851582A3A3E0FEA3E0FF8D828C83A3DD
:101E0000A3EE8FF0120273E5174516703B8515821D
:101E1000851483E0FFA3E0783ECFF208EFF2783537
:101E2000E2FF08E2851582851483CFF0A3EFF01856
:101E3000E514F208E515F2783EE2FE08E28E14F5AC
:101E400015E4F516F517803C851582851483E0FFAF
:101E5000A3E0851782851683CFF0A3EFF07835E2F3
:101E6000FF08E2851582851483CFF0A3EFF018E513
:101E700014F208E515F2851782851683E0FEA3E0CB
:101E80008E14F515EAF47003021D9D22021D9D8536
:101E90001416851517851582851483E0FEA3E08E40
:101EA00014F515021D9D8514168515178515828557
:101EB0001483E0FEA3E08E14F515021D9D228F32DF
:101EC0008D338A348B357829E2FB121D8AE535453E
:101ED000347003021FE5783EE2FE08E28E14F51529
:101EE000E4F516F5177838E2FE08E22535F535EE0B
:101EF0003534F534E515451460388515828514832D
:101F0000A3A3E0FEA3E0FFD39535EE95345023C3A1
:101F1000E5359FF535E5349EF5348514168515179E
:101F2000851582851483E0FEA3E08E14F51580C428
:101F300080C27835E2FE08E2FFF5828E83A3A3E536
:101F400034F0A3E535F07829E2FDEF2404F582E4CE
:101F50003EF583EDF07835E2FE08E2FF2405F582D8
:101F6000E43EF583E532F0EF2406F582E43EF583A6
:101F7000E533F0E51745167009783EEEF208EFF20A
:101F8000800B851782851683EEF0A3EFF07835E29B
:101F9000FE08E2FFF5828E83E0FCA3E08C16F517C5
:101FA0008F828E83E514F0A3E515F0451460268535
:101FB0001582851483A3A3C083C082C3A3E0953593
:101FC000FF0582D5820215831582E09534D082D038
:101FD00083F0A3EFF07835E516F208E517F2451621
:101FE0007003123E6B22748055A87003022200C257
:101FF000AF122200D2AF22748055A87003022DECDC
:10200000C2AF122DECD2AF22748055A87003022EFD
:102010009CC2AF122E9CD2AF22748055A8700302CE
:1020200034DCC2AF1234DCD2AF22748055A8700306
:10203000023506C2AF123506D2AF22748055A870A1
:1020400003023530C2AF123530D2AF22748055A8AA
:102050007003023243C2AF123243D2AF22748055B2
:10206000A87003023279C2AF123279D2AF227480E3
:1020700055A870030232AFC2AF1232AFD2AF227492
:102080008055A87003021EBEC2AF121EBED2AF2280
:10209000748055A87003021D8AC2AF121D8AD2AF88
:1020A00022748055A87003021C51C2AF121C51D279
:1020B000AF22748055A870030224D9C2AF1224D96C
:1020C000D2AF22748055A87003022BC6C2AF122B68
:1020D000C6D2AF22748055A8700302314FC2AF122E
:1020E000314FD2AF22748055A87003023712C2AFAD
:1020F000123712D2AF22C2AFE51270030221F7905D
:102100003E5C93F521300A4C7823E2FE08E2FFF5AD
:10211000828E83A3A3A3E07829F2E4782DF2D2AFD4
:102120007829E2FD33333354F8FD90280193F5A567
:1021300074FD2DF582E43427F583E493740193FA5A
:10214000740293F5828A831205A5E4F5A5C2AF1245
:10215000204C80A430094D782AE2FE08E2FFF58287
:102160008E83A3A3A3E07829F2E47819F2D2AF78A2
:1021700029E2FD33333354F8FD90280193F5A5741B
:10218000FD2DF582E43427F583E493740193FA740A
:102190000293F5828A831205A5E4F5A5C2AF122049
:1021A0005D0220F82008030220F8781AE2FE08E217
:1021B000FFF5828E83A3A3A3E07829F2E47820F2CE
:1021C000D2AF7829E2FD33333354F8FD90280193E0
:1021D000F5A574FD2DF582E43427F583E4937401AD
:1021E00093FA740293F5828A831205A5E4F5A5C2D9
:1021F000AF12206E0220F8E47829F2F521D2AF2246
:102200008D828C83A3A3A3EFF033333354F890284B
:1022100000931460541470030222B024026003027D
:1022200022F6E51070107823ECF208EDF27825EC38
:10223000F208EDF280257825E2FE08E2F5828E8331
:10224000ECF0A3EDF018ECF208EDF2782DE2B40119
:102250000A7402F27827ECF208EDF205104312043A
:102260008D828C83E4F0A3F022E5117010782AECC3
:10227000F208EDF2782EECF208EDF28025782EE2ED
:10228000FE08E2F5828E83ECF0A3EDF018ECF20884
:10229000EDF27819E2B4010A7402F27817ECF20850
:1022A000EDF205114312028D828C83E4F0A3F0223B
:1022B000E5137010781AECF208EDF2781CECF208D5
:1022C000EDF28025781CE2FE08E2F5828E83ECF0C8
:1022D000A3EDF018ECF208EDF27820E2B4010A74F4
:1022E00002F2781EECF208EDF205134312018D8222
:1022F0008C83E4F0A3F022E4F56CE56C75F007A4A0
:10230000247BF582E434D6AF82FEE56C75F007A439
:102310002474F582E434D6F583EEF0A3EFF0056C77
:10232000E56CB415D5E490D707F0A3F0783574D6F2
:10233000F2087474F2E4783EF208F27834F27838F5
:10234000F208F2122019783AEEF208EFF22404F5BE
:1023500082E43EF583E4F0F56CE4F56DE56CC4547D
:10236000F0240EF582E434D7F58375F004E56D12A0
:1023700004C1E4F0056DE56DB404E1E56C25E024ED
:1023800030F874FFF208F27442256CF874FFF2E53D
:102390006C25E0243CF8E4F208F2122019E56C25E3
:1023A000E02440F8EEF208EFF2E56C25E02440F876
:1023B000E2FE08E22404F582E43EF5837401F0E5D0
:1023C0006C25E02440F8E2FE08E22405F582E43EB4
:1023D000F583E56CF074FF7832F208F2056CE56C79
:1023E000C3940150030223592278147491F20874A3
:1023F00020F2E4FF75F00AEFA4242AF582E5F03418
:1024000091AD82FC75F00AEFA42420F582E5F0344A
:1024100091F583ECF0A3EDF075F00AEFA42422F51A
:1024200082E5F03491F5837401F00FBF5FC6E4904C
:1024300094D6F0A3F0A304F07810748AF2087480A4
:10244000F2E4FF75F00EEFA4248EF582E5F0348AF5
:10245000AD82FC75F00EEFA42480F582E5F0348A9D
:10246000F583ECF0A3EDF075F00EEFA42482F58275
:10247000E5F0348AF5837402F00FBF5FC6E4908FF5
:10248000B2F0A3F0A37402F07812748FF20874C053
:10249000F2E4FF75F016EFA424D6F582E5F0348F50
:1024A000AD82FC75F016EFA424C0F582E5F0348F00
:1024B000F583ECF0A3EDF075F016EFA424C2F582DD
:1024C000E5F0348FF5837403F00FBF0FC6E49091ED
:1024D0000AF0A3F0A37403F0228F5C8D5D8A5E8BFB
:1024E0005FE55F455E70030225C1E55C25E0243CA5
:1024F000F8E2FE08E2255FF55FEE355EF55EE55D2C
:1025000025E025E0FFE55CC43354E02F7E00240E77
:10251000FFEE34D7FE8F82F5837401F0A3E55EF001
:10252000A3E55FF07442255CF8E2FDB4FF12E55DBF
:10253000F2E55C25E02430F8E55EF208E55FF22282
:10254000E55C25E02431F9D3E3955F19E3955E401E
:1025500017E55C25E02430F8E55EF208E55FF274EB
:1025600042255CF8E55DF222ED655D7054E55CC4E2
:102570003354E07E00240EFFEE34D7FEE4FD8F825C
:102580008E83E0601BA3E0FAA3E0C3955FEA955E4B
:10259000500E8D5D8F828E83A3E0F55EA3E0F55F24
:1025A00074042FFFE43EFE0DBD04D3E55C25E0245A
:1025B00030F8E55EF208E55FF27442255CF8E55D0F
:1025C000F222C2AF7829E27816F27822E521F2E50C
:1025D00012D39401500302268B7E00E51254FE2490
:1025E0005CF582EE343EF583E493F521300A4C78B5
:1025F00023E2FE08E2FFF5828E83A3A3A3E07829FD
:10260000F2E4782DF2D2AF7829E2FD33333354F877
:10261000FD90280193F5A574FD2DF582E43427F58E
:1026200083E493740193FA740293F5828A8312050A
:10263000A5E4F5A5C2AF12204C8094300991782A08
:10264000E2FE08E2FFF5828E83A3A3A3E07829F2DD
:10265000E47819F2D2AF7829E2FD33333354F8FD30
:1026600090280193F5A574FD2DF582E43427F583B8
:10267000E493740193FA740293F5828A831205A598
:10268000E4F5A5C2AF12205D0225CF7816E27829C5
:10269000F27822E2F521D2AF22909E1EE020E109DD
:1026A00090DFD1E0700302274390A622E0FEA3E072
:1026B000FFC390A627E09FFF90A626E09E902137BB
:1026C000F0A3EFF090213BE0FEA3E0FF902137E084
:1026D000FCA3E0FD6F7002EC6E605BE490213DF0C6
:1026E000C390213CE09DFF90213BE09CFE9097929F
:1026F000F0A3EFF0C3EE64809480502490DFD1E02B
:102700006010909793E02400F0909792E03402F0EC
:10271000800E909793E02400F0909792E03402F0BE
:10272000909792E0FFA3E090A62ECFF0A3EFF09059
:10273000A6327480F02290213D7401F078BEE254FC
:10274000FDF22290213D7401F078BEE254FDF222A8
:10275000E4F5A875A50412B60475A501129DE6EF6F
:10276000600675A50212B5E290D295E0640260079A
:10277000909E1DE054EFF0E4F5A5781FE620E308F5
:102780003001057F0112357B90DFBDE060057F01E0
:1027900012357B1238261223E9123D781222F712E5
:1027A0002F8F12396475A50512B9DF120016E4F5F2
:1027B000A575A50612D329E4F5A530001D123DD25A
:1027C000123DBE123DC8123DB4123DF0123DE6125C
:1027D0003E40123E36123AAB800990DFBDE0600306
:1027E000123DD2123D96123D82123DAA123D8C122C
:1027F000FCF4C288C28A200103123E0E22FF00228E
:102800000200000000FF0B8C0000000000FF90FBA6
:102810000000000000FFE7150101000000FF89F93A
:102820000101000000FFEC530101000000FF5FA365
:102830000107000000FF180B0100000000FFB5E6D3
:102840000205000000FF4B800202000000FF5EC492
:10285000020C000000FF90A60205000000FF8207A6
:102860000201000000FF63CE020B000000FF587A57
:102870000202000000FF9B510202000000FF7D6188
:102880000207000000FFE7880203000000FF547AFF
:102890000204000000FF0022020000000090DFB1EF
:1028A000EFF0A3EDF0EB1229A730E7237F037E00C2
:1028B0001232E590DFB1E08F828E83F090DFB2E0DC
:1028C0008F828E83A3F090DFB312296F023CA09019
:1028D0009EB4E030E66112294EE0705BEF1229539E
:1028E0007401F07F037E001232E5909C1EE0FD1221
:1028F0002940EEF0A3EFF090DFB1E0FFED122940A8
:10290000122980EFF090DFB2E0FF909C1EE0FE12F3
:102910002940122980A3EFF090DFB3E0FF12293F96
:10292000122980A3A3EFF0EE122989E4F0740312B8
:1029300029BAB42002E4F022E5A5F075A50622EE3E
:1029400075F005A4249EF582E4349AF58322909CC8
:102950001EE0FF75F005A4249BF582E4349AF5830C
:1029600022F0EE25E0240EF582E434DFF58322E048
:102970008F828E83A3A3F0AD07AC067F037E002277
:10298000E0FCA3E0F5828C832275F005A4249CF57D
:1029900082E4349AF5832275F005A424BFF582E41D
:1029A000349BF58322F0EDA3F0909FD6E02225E042
:1029B000240FF582E434DFF58322A3F0909C1EE01F
:1029C00004F0E0228F738D748A758B7612202A9022
:1029D0009A12EEF0A3EFF0E5764575602B909A120F
:1029E000E0FEA3E0FF2404F582E43EF5837403F0E7
:1029F000EF2406FFE43EFAA9077B01900003E5758A
:102A00008576F01203218012909A12E0FEA3E02452
:102A100004F582E43EF5837404F0909A12E0FCA37E
:102A2000E0FD2406FFE43CFE8F82F583E577F0AA03
:102A300006A9077B01900001E5731201B490000222
:102A4000E5741201B47F07121FE622909DFCEEF0A0
:102A5000A3EFF0A3EC1229A530E713909DFEE0FE52
:102A6000A3E0FF909DFCE0FCA3E0FD023CA0909E53
:102A7000B4E030E64512294EE07033909C1EE0FE33
:102A80001229537401F0909DFCE0FCA3E0FD122993
:102A90003FECF0A3EDF0909DFEE0FCA3E0FDEF1213
:102AA0002989ECF0ED1229BA64207023F022909D60
:102AB000FEE07002A3E06017800A909DFEE07002C5
:102AC000A3E0600B909DFCE0FEA3E0FF12356222C4
:102AD00030983730051A90CA5FE02492F582E434CA
:102AE0005EF583E599F090CA5FE004F0E0F08018AD
:102AF00090CA5FE02462F582E434CAF583E599F078
:102B000090CA5FE004F0E0F0C298309940C299901A
:102B1000CA60E0FF90CA5EE0FE6F602B30050F7464
:102B2000922EF582E4345FF583E0F599800D7462AE
:102B30002EF582E434CBF583E0F59990CA5EE0048B
:102B4000F0E490CA61F02290CA617401F022909979
:102B50002EEEF0A3EFF0A3ECF0A3EDF090D7C7E0DA
:102B6000FF12369FE0705EAD03EF75F007A424CD31
:102B7000F582E434D7F583EAF0A3EDF090992E12B4
:102B800036BA24C9F582E434D7F583ECF0A3EDF02E
:102B90009099301236BA24CBF582E434D7F583EC21
:102BA000F0A3EDF0908A61E0FF90D7C7600712367E
:102BB0009EEFF0800612369E7401F090D7C7E004B5
:102BC000F0E0540FF022EFC454F0240EF582E43408
:102BD000D7F58375F004ED1204C1E4F074422FF8C8
:102BE000E26D705674FFF55AF55BF9EFC454F024AA
:102BF0000EF582E434D7AB82FAE4FD8B828A83E05F
:102C0000601AA3E0F8A3E0F5828883C3955BE583AF
:102C1000955A5008A90585835A85825B74042BFB5D
:102C2000E43AFA0DBD04D4EF25E02430F8E55AF279
:102C300008E55BF274422FF8E9F222C2AF786BE24A
:102C4000FE08E2FFF5828E83A3A3A3E0FCA3E0FDD0
:102C500078EBECF2FC08EDF2FDEF2408F582E43E9F
:102C6000F583E0FFA3E0786BCFF208EFF290D18A12
:102C7000E004F0D2AFED4C702D12201978E9EEF29D
:102C800008EFF218E2FC08E2FD2404F582E43CF5CA
:102C9000837404F07F11121FE67EA07F0078EB742E
:102CA000A0F2087400F278EBE2FE08E2FF228F4AFD
:102CB000907E72E0C3954AF0905E91E0F54B854AB4
:102CC0004CE54BC394FF50507492254BF582E4348D
:102CD0005DF583E0703B154CE54C7038C3E54B95D2
:102CE0004A04F54B2492F582E4345DAF82FEAB4A90
:102CF000AD4A123D5E905E91E0B54B03254AF075FA
:102D0000F020E54BA42492F582E5F0345EAF82FE1C
:102D100022854A4C054B80A9123E77E4FEFF22C271
:102D2000AF7829E27821F2782CE521F2E512D394EC
:102D300003404F7521C77823E2FE08E2FFF5828E3B
:102D400083A3A3A3E07829F2E4782DF2D2AF782907
:102D5000E2FD33333354F8FD90280193F5A574FD5B
:102D60002DF582E43427F583E493740193FA740219
:102D700093F5828A831205A5E4F5A5C2AF12204C13
:102D800080AA7821E27829F2782CE2F521D2AF22CC
:102D900090988FEFF0E4A3F0909890E0FFC3940137
:102DA000504775F06FEF90CEA31204C1EF2583F565
:102DB00083E0FF90988FE0FEEFB50625A3E0FF7556
:102DC000F06F90CEA71204C1EF2583F5831204376C
:102DD000E4FBFAF9F8C31203EC6006909890E0FF68
:102DE00022909890E004F080AF7FFF22300A1B7899
:102DF0002DE510F27823E2FE08E2F5828E83E0FFF3
:102E0000A3E07827CFF208EFF22230091B7819E50A
:102E100011F2782AE2FE08E2F5828E83E0FFA3E059
:102E20007817CFF208EFF22230081A7820E513F273
:102E3000781AE2FE08E2F5828E83E0FFA3E0781EB6
:102E4000CFF208EFF22290DF0CE0122963E0704B22
:102E5000EF6048ED602C90DF05E060069086B4746A
:102E600001F0E4FE122962E0B4010AEE1229AEE498
:102E7000122961E4F00EEEB404EA90DF0CE090DF7A
:102E80000BF090DF0CE0FE1229AEEF122961740105
:102E9000F090DF0CE004F0E05403F0228F828E8388
:102EA000A3A3E01460321460191470417812E2FD9B
:102EB00008E28F828E83CDF0A3EDF018EEF208EFDA
:102EC000F2227810E2FD08E28F828E83CDF0A3ED2E
:102ED000F018EEF208EFF2227814E2FD08E28F8299
:102EE0008E83CDF0A3EDF018EEF208EFF222EF4E54
:102EF000604CC3EF9492FFEE945EFEEF7805CEC374
:102F000013CE13D8F9F54AC394FF50327492254A70
:102F1000F582E4345DF583E0FB907E72E02BF07483
:102F200092254AF582E4345DAF82FEE4FD123D5EF7
:102F3000905E91E0FFE54AC39F5003E54AF0228F7F
:102F4000718D728B7312202A90992FEEF0FCA3EFF3
:102F5000F0FD90992FE0FEA3E0FF2404F582E43E0B
:102F6000F5837404F0EF2406FFE43EFE8F82F583C0
:102F7000E573F0AA06A9077B01900001E571120133
:102F8000B4900002E5721201B47F07121FE622E43A
:102F900090985FF090985FE0FF75F007A424C4F567
:102FA00082E434D4AD82FCEF75F007A424BDF58231
:102FB000E434D4F583ECF0A3EDF090985FE004F0F6
:102FC000E0B41FD0E490D596F0A3F090D59D74D4D2
:102FD000F0A374BDF0E490D4BBF0A3F0229099E587
:102FE000EF1229A530E7207F037E001232E58F82A1
:102FF0008E83E4F09099E5E08F828E83A3F0909920
:10300000E612296F023CA0909EB4E030E619909B36
:10301000ED7401F0E4A3F09099E5E0909BEFF0905F
:1030200099E6E0909BF0F022D2AFAF0589828A83C7
:103030001205A5C2AF90DF2EE0241EF582E434DF36
:10304000F583E0F5A590DF2EE014F0E0540FF0D208
:10305000AF22C2AF90DF2EE004F0E0540FF0E02486
:103060001EF582E434DFF583E5A5F022E5A5F075D1
:10307000A50C22909BF9E0122997E0703FAF0590D4
:103080009BF9E0FD75F005A424C2F582E4349BF5BC
:1030900083ECF0A3EFF0AF01ED75F005A424C0F5CB
:1030A00082E4349BF583EAF0A3EFF0ED12299774E4
:1030B00001F0909BF9E004F0E05407F02285A5446C
:1030C00075A5047E9E7F007C527D7A7B007A021279
:1030D00037377E8A7F4C7C357DDF7B017A00123763
:1030E000377E817F5C7C357DE07B207A001237372C
:1030F00075A50C7ECC7F627C437DD17BFE7A01126C
:1031000037378544A5229099EFEEF0A3EFF0EB4A14
:10311000603C90A403E020E1F9C2AFAF0590A406A3
:10312000ECF0A3EFF0AF0390A40AEAF0A3EFF09065
:1031300099EFE0FFA3E090A412CFF0A3EFF090A4EA
:1031400003E04402F0D2AF90A403E020E1F9228E24
:10315000328F338F828E83E0FEA3E0FF4E700D85A9
:103160003382853283ECF0A3EDF0801B8F828E8357
:10317000E0FAA3E0FB4A6006AE02AF0380EE8F8266
:103180008E83ECF0A3EDF08D828C83E4F0A3F0222B
:103190008E838F82E0FFA3E0FEA3E0FDA3E090BC5E
:1031A0000CF0A375920190B811759200EDF0A37523
:1031B0009201F0A3759200EEF0A3759201F0A37551
:1031C0009200EFF0A3759201F07592002290990A97
:1031D000EFF0AB05AA04E475F0011233B5AFA5EF2B
:1031E000FD1233D3E4F0A3EDF075A50C90990AE03D
:1031F000FFAC02AD03127F1290DF7B1233D3A3E04A
:10320000F5A574FFF5F01233B522909869EFF0A39D
:10321000E5A5F0909EA3E0FFC39402500D75A50DA7
:10322000909869E0FD12EA5A801275A50E909EA34F
:10323000E024FEFF909869E0FD12F3A290986AE006
:10324000F5A522D510035312FB782DE270197823CF
:10325000E2FE08E2FFF5828E83E0FDA3E07827CD51
:10326000F208EDF2122E9CE4782DF27827E2FF08A6
:10327000E27823CFF208EFF222D511035312FD7842
:1032800019E27019782AE2FE08E2FFF5828E83E0E7
:10329000FDA3E07817CDF208EDF2122E9CE4781928
:1032A000F27817E2FF08E2782ACFF208EFF222D58F
:1032B00013035312FE7820E27019781AE2FE08E236
:1032C000FFF5828E83E0FDA3E0781ECDF208EDF2DB
:1032D000122E9CE47820F2781EE2FF08E2781ACFE2
:1032E000F208EFF222EF4E70057573018026EF545D
:1032F0001FD39400E49400400FEF7805CEC313CEA3
:1033000013D8F904F573800CEF7805CEC313CE13F0
:10331000D8F9F573AF7312355A22D310AF01C3C079
:10332000D0EDF5E9ECF5EAEFF5EBEEF5ECEBF5EDCC
:10333000EAF5EE7404140070FCE5E9FFE5EAFEE549
:10334000EBFDE5ECFCE5EDE5EED0D092AF229098F8
:10335000F8EEF0A3EFF0A3ECF0A3EDF0A3E5A5F0F9
:1033600075A506909FD6E09098F830E70812388C43
:1033700012E056800612388C12DA039098FCE0F5C1
:10338000A5228F4A8D4B122019909821EEF0A3EFC1
:10339000F02404F582E43EF583E54AF0EF2405F5D8
:1033A00082E43EF583E54BF0909821E0FCA3E0FD3C
:1033B0007F02021FE690DF7A12027390DF7AE0FE4E
:1033C000A3E0FF7C007D0312023D90DF7AECF0A3C6
:1033D000EDF022E025E0FF90DF7AE033FE74742FF9
:1033E000F58274DF3EF58322D310AF01C3C0D0ED68
:1033F000F5E9ECF5EAEFF5EBEEF5ECEBF5EDEAF5DA
:10340000EE7404140070FCE5E9E5EAE5EBE5ECE5B3
:10341000EDFFE5EEFED0D092AF22E49097BFF0EF43
:1034200025E024A7F582E434D98011EF4E60169090
:1034300097BFE004F0EF2407F582E43EF583E0FE59
:10344000A3E0FF80E69097BFE0FF2290C74BE0909B
:10345000B80BF090C74CE090B80AF090C74DE090E0
:10346000B809F090C74EE090B808F090C74FE090D0
:10347000B80FF090C750E090B80EF02290DFAE1277
:1034800036ADAF0578AFECF208EFF2AF0378ABEAF8
:10349000F208EFF290DFAEE0FFA3E078ADCFF208E4
:1034A000EFF212DFF490DFB0E0F5A5220003000791
:1034B000000F001F003F005F007F00BF00FF018082
:1034C00003000601000000020004000A0014001FAF
:1034D000002A003F0054007F00FF02007814E2FE43
:1034E00008E2FF8E32F533453260168F828E83E01C
:1034F000FEA3E0FF18EEF2FE08EFF24E7003123E5C
:1035000071AE32AF33227810E2FE08E2FF8E32F560
:1035100033453260168F828E83E0FEA3E0FF18EE03
:10352000F2FE08EFF24E7003123E71AE32AF33225C
:103530007812E2FE08E2FF8E32F533453260168FD4
:10354000828E83E0FEA3E0FF18EEF2FE08EFF24E5B
:103550007003123E71AE32AF3322D20E122CAEC2C5
:103560000E22D20E122EEEC20E22D20E12EA76C217
:103570000E2202347C023806023B000239C70230B8
:1035800073023BD08E858F848C838D82EB601EE02E
:10359000FFA3E0FEA3E0FDA3E0A3759201F0A3ED7D
:1035A000F0A3EEF0A3EFF0A3759200DBE22290DF30
:1035B0006E7402F0A3E5A5F0A37480F0AE81A806B6
:1035C000E6A3F0A3EFF0E58114F8E6A3F07CDF7D3D
:1035D0006A7F04121FE622051042053900104200DE
:1035E00091819D505D724478A00129EB2C7635685D
:1035F0000000110100001000800000805F9B34FB80
:10360000D310AF01C3C0D0EFF5E9EEF5EAEDF5ED6B
:10361000ECF5EE7402140070FCE5E9FFE5EAFEE566
:10362000EDE5EED0D092AF22D310AF01C3C0D0EF02
:10363000F5E9EEF5EAEDF5EDECF5EE740214007047
:10364000FCE5E9E5EAE5EDFFE5EEFED0D092AF223C
:103650009004E475F003E56B1204C1E02290DDC92B
:10366000F090DDEFF090DDCFF02290D29BE0FEA352
:10367000E0FFF5828E832290BE2BE09097CAF090F7
:10368000BE281204379097C612047890BE2BE0FF34
:103690009097CAE0B507E09097C612043722E0750C
:1036A000F007A424C8F582E434D7F58322EEF0A312
:1036B000EFF0A3E5A5F075A50422E0FCA3E0FDEF83
:1036C00075F007A42290B001EFF0A3ECF0A3EDF0A9
:1036D00090B005E04410F0E4909851F000300701FC
:1036E00000909851E004F0E0B40AF122909829E5A6
:1036F000A5F075A502C007909827E0FFA3E0909879
:103700002FCFF0A3EFF0D00712A333909829E0F564
:10371000A5228F828E83E0FCA3E0FDFBAA044A6011
:10372000118D828C83E0FDA3E08F828E83CDF0A388
:10373000EDF0AE02AF03228E858F848C838D82EAFA
:103740007003EB6015EB6003EA04FAE493A375924F
:1037500001F0A3759200DBF3DAF1228E858F848C61
:10376000838D82EA7003EB6014EB6003EA04FAE0F5
:10377000A3759201F0A3759200DBF4DAF22290A413
:10378000B0E054C070F890A4B1EFF0AF05A3ECF036
:10379000A3EFF090A4B07480F090A4B0E020E7F91B
:1037A0002290A4B0E054C070F890A4B1EFF090A4BF
:1037B000B07440F090A4B0E020E6F990A4B6E0FE2A
:1037C000A3E0FF22E490DE55F090DE56F090DE5745
:1037D000F07853F208F290DE62F090B403F090BCFF
:1037E00022E0547FF0228E858F848C838D82AF03FC
:1037F0001BEF6010E0A3FF759201E0A37592006FCC
:1038000060ECD322C32290DFAB1236ADAE04AF051D
:10381000AC02AD0390DFABE0FAA3E0FB12C77890F7
:10382000DFADE0F5A522759850758920E587547FB6
:103830004480F587300705758DB28003758DE6D21B
:103840008ED299C298220000108121023183420455
:1038500052856306738784089489A50AB58BC60CC4
:10386000D68DE70EF78F8E858F848C838D82EB60EB
:10387000121BE493A3FF759201E0A37592006F60A1
:10388000EDD322C322E5A5F075A50A22E0FEA3E050
:10389000FFA3E0FCA3E0FD22E5A5F075A503228EC1
:1038A000858F848C838D82EB600DE493A3759201E8
:1038B000F0A3759200DBF32285A54475A5057E145F
:1038C0007FC07C607D007B637A001237378544A51A
:1038D0002285A54475A5057E147FC07C507D007BA4
:1038E000007A011237378544A5228FA590954DE0C7
:1038F000FEA3E0FF90954BE0FAA3E0FB123737758B
:10390000A50422123052854CA5D2AFAF0589828A18
:10391000831205A5AD07123033AF05228E838F8247
:10392000EA7003EB600DEB6003EA04FAEDF0A3DB51
:10393000FBDAF9228E858F848C838D82EB600CE01C
:10394000A3759201F0A3759200DBF42204D0062443
:10395000077808CC0A200B740CC80E1C0F7010C41A
:103960001218136CE4905E91F0FF7FFF905D92E47B
:10397000F0A3DFFC907E7274FFF022909838E5A5EA
:10398000F075A50112F422909838E0F5A5229097E1
:103990009CE5A5F075A50212DC0A90979CE0F5A5C0
:1039A000229098F4E5A5F075A50412D6269098F417
:1039B000E0F5A5229098A0E5A5F075A505124F5653
:1039C0009098A0E0F5A522902AC9E5A5F075A5017B
:1039D00012BAA1902AC9E0F5A52290DFC9E5A5F0A9
:1039E00075A50112E83790DFC9E0F5A5229098612E
:1039F000E5A5F075A50712E0FE909861E0F5A52217
:103A000090985FE5A5F075A50412858790985FE012
:103A1000F5A5229097CCE5A5F075A50112DB8E9057
:103A200097CCE0F5A522909861E5A5F075A5061262
:103A3000E332909861E0F5A522909792E5A5F075A4
:103A4000A50512BE9F909792E0F5A522909912E5E8
:103A5000A5F075A50312DD30909912E0F5A522902E
:103A600098FAE5A5F075A50312D7EF9098FAE0F55E
:103A7000A52290986DE5A5F075A50B12731490988A
:103A80006DE0F5A5229099EFE5A5F075A50B126DF7
:103A9000FB9099EFE0F5A5229098E1E5A5F075A5DA
:103AA0000C12B52A9098E1E0F5A52290985FE5A563
:103AB000F075A50C12AC5690985FE0F5A522E5468E
:103AC0006401FF75F0CF90C0061204C1EF25832278
:103AD00090985F1236B312DB9E90985FE0F5A522B6
:103AE0009097CC1236B312C9BF9097CCE0F5A522BF
:103AF0009097CC1236B312D70C9097CCE0F5A52254
:103B000090990E1236B312B14890990EE0F5A522A5
:103B10009098D9123885124EB99098D9E0F5A5221F
:103B200090990512388512675A909905E0F5A522FB
:103B30009098D91238851240209098D9E0F5A522A6
:103B40009098D9123885125FD79098D9E0F5A522C0
:103B50009099EF12389812D8789099EFE0F5A52255
:103B600090990512389812DB34909905E0F5A5225A
:103B700090990512389812DD30909905E0F5A5224C
:103B8000909854123E6412D699909854E0F5A5226C
:103B9000909854123E6412CC54909854E0F5A522AB
:103BA000909854123E6412DD42909854E0F5A5229C
:103BB0009098F412293812ABAE9098F4E0F5A52253
:103BC0009098D9122938129ED49098D9E0F5A52260
:103BD00090DFCA12293812D6A790DFCAE0F5A522D5
:103BE0009098D912293812CDDF9098D9E0F5A52206
:103BF0009098F012293812F4759098F0E0F5A5220B
:103C000090979C122938125B3490979CE0F5A5227E
:103C100090982112293812D095909821E0F5A5228C
:103C200090984112293812EBA7909841E0F5A5220F
:103C300090984112293812ED9F909841E0F5A52205
:103C400090984112293812F26C909841E0F5A52223
:103C500090984012293812D456909840E0F5A52249
:103C600090984112293812D7C9909841E0F5A522C1
:103C700090984112293812D1E2909841E0F5A5229E
:103C800090982312293812EFF1909823E0F5A5229D
:103C90009098E9122938128E9F9098E9E0F5A522B4
:103CA0009099E712293812DE4E9099E7E0F5A522A7
:103CB00090993012293812E056909930E0F5A522FB
:103CC0009098D91229381240369098D9E0F5A5225B
:103CD00090992F12293812E6EA90992FE0F5A52243
:103CE00090986312293812F742909863E0F5A52264
:103CF0009098D912293812DA039098D9E0F5A522C4
:103D000090986412293812CC47909864E0F5A52267
:103D10009098D912293812B0DF9098D9E0F5A522F1
:103D20009098E312306C1247D89098E3E0F5A52202
:103D300090990512306C12512F909905E0F5A5224B
:103D40009098E512306C12C65E9098E5E0F5A522D9
:103D50001230528DA5D2AF1205A1123033228E83BC
:103D60008F82EB6005EDF0A3DBFB2285A54675A5F0
:103D70000112D4368546A522E4F512F510F511F5A9
:103D8000132275A50112FB3EE4F5A52275A50112CB
:103D9000FB95E4F5A52275A50112B5B7E4F5A522BA
:103DA00075A50512747575A5012275A50712CA9A25
:103DB000E4F5A52275A50C12BB8FE4F5A52275A527
:103DC0000212E079E4F5A52275A50512CF55E4F5B8
:103DD000A52275A50312C868E4F5A52275A50412ED
:103DE000B92E75A5052275A50712F073E4F5A52275
:103DF00075A50212DF7AE4F5A52275A50112B03788
:103E0000E4F5A52275A50412933CE4F5A52275A559
:103E10000412D198E4F5A52275A50612F63B75A506
:103E20000522123052855BA51230282212305285AD
:103E30004AA51230282275A50B1284C6E4F5A522E6
:103E400075A50112D2E9E4F5A5227F161235AEE47C
:103E5000FEFF22740EC0E07400C0E0320001434354
:103E6000C7C7C7C7E5A5F075A504227F141235AEF4
:103E7000227F151235AE227F171235AE22E4F5A54A
:0C3E8000023FC0001208001000FFFFFF0E
:103FC000C2AF90BD03E4F0000043D680D285C28525
:083FD00000000002000EFFFFDB
:103FE000C2AF90BD03E4F0000053D67FD285C285F6
:083FF00000000002000EFFFFBB
:104000000011001B007900B700E00153FFFF000022
:10401000000000000000000000000000000000039D
:104020000303020202020101010101010101040472
:104030000404040404040404040404040404040341
:104040000303020202020101010101010101001B3F
:10405000000A0014001EFFFF001D007900B7FFFFDB
:10406000FFFF00E001530036FFFF003C005A005301
:10407000001D016F02280168021C02A703FD000257
:10408000FEFE01FE0102FE001E3C5A7896B4D2E408
:10409000F55490DFCCE0F553E4F0C222C23978C089
:1040A000E24401F2A220B34003024CCE301A189031
:1040B000C79FE0FF64017003024CCE90C797E0FEFB
:1040C000EF6E7003024CCE90C004E024FE70030239
:1040D00045111470030247501470030249AE146076
:1040E00028147003024323146003024C9390B85BBE
:1040F000E064087003024C9990B85FE064067003B6
:10410000024C9912EE40024C99D22290DE13E054F8
:104110000D24FB70030241F024F870030242C02416
:104120000C600302431E78D312BBB630261E90C724
:104130005CE06401701612BC19700218E2700890FD
:10414000DA06740202436BC222024C9912BC8D3013
:104150003C2590C742E0FF90C921E0FE6F600AD283
:104160003D90C745EEF0024C9974092FF582E43476
:10417000C9F583E04410F078D3E2FE08E2FF78D678
:10418000E26F700318E26E70627851E224FE600301
:10419000024C99124D3C12F50612BBDC90C742E06E
:1041A000FC75F0CF90C0071204C1EC2583F583E0C5
:1041B000FE12BC94FDEE4D12BB4812BBE7AF04E407
:1041C000FD12B96B90C742E090C12812BB2312BC0C
:1041D0002D12BB97784E7405F290DE13E04404F084
:1041E0007F1A12FB2590DDF7024688C222024C9905
:1041F0007851E224FE601B24026003024C9912EE07
:10420000DD12BB9F12BC04440112BB8112BC3902F7
:104210004C9912BC2660FB90BF43E020E00990DD82
:10422000F7E0D39402405D12F9B3124D2E90C756B9
:10423000120490000000007BFF7AE1795990DE14AF
:10424000E0FD755B01123E2212FB8790C75C740192
:10425000F0C21190C760E04402F090DE13E0440821
:10426000F07F1012FB25D222E490DDF7F012BB1C88
:10427000E04490F07859E2FEEFD39E403890DE148F
:10428000E0F2803112EEDD12BBDC12F50612BC94B6
:10429000FF90C755E04F90B81B12BB4812BC0444B6
:1042A0000390BA03F090DE14E0FFE4FD12B96B1244
:1042B000BB9812BC9B784A7405F2784EF2024C9976
:1042C00090DDF7E0D3942040167F1912FB2512EF02
:1042D000FF12BB61F5188F19F51A8F1B024C99124A
:1042E000F7CF12BB3012BB1CE04460F0C22275F065
:1042F000CFEF90C12812BB27E0FF90D938E0FCA394
:10430000E02412F582E43CF583EFF090DE14E0FF48
:1043100075F0CF90C12812BB27E4F0024506C222F7
:10432000024C99D22290DDFEE0546D24FB70030212
:1043300043E224F87003024C9924E07003024453D2
:1043400024C070030244DA246C600302450C78D761
:1043500012BBB630262390C75CE06402701B12BC0F
:1043600019700218E2700D90DA0604F0D21312BC34
:104370008D024C99C222024C9912BC8D78D7E2FE74
:1043800008E2FF08E2FC08E2FDC39FFBEC9EFAD3C3
:10439000EB9418EA94005045ED6F7002EC6E6003E8
:1043A000024C997851E224FE702B124CCF124D230F
:1043B00090C921E0FF75F0CF90C12812BB2712BC35
:1043C0002D12BB8490DDFEE04404F07F1D12FB251E
:1043D000E490DDF7F0784A7408F2024C99C22202A8
:1043E0004C997851E2603324FE6003024C9990DDD1
:1043F000F7E0D39410400F7F1B12FB25E47858F2AE
:104400007857F2024C99124CCF124D2312BB8512F1
:10441000BC39784A7408F202450612BC2660FBE0FB
:10442000640460F6E0640560F190BF43E0F5552058
:10443000E203024C99124D3C12FCA112BC0444014F
:1044400012BB94784E7408F212BCA2E490DDF7F02F
:10445000024C9912DA4A90DDFE746DF090C760E06C
:1044600030E003124CF590C75C7402F090C760E036
:104470004401F07859E2B40204E054FDF0784DE2D2
:1044800054F7F212BB30C22212BB61FE90C939F060
:10449000A3EFF012BC658E832422F582E5833401FC
:1044A000F583E4F090C755E0FF90C939E0FCA3E044
:1044B000F5828C83A3EFF012BC9BD21990C74212F5
:1044C000BB1FE04490F090C930E0FE75F0CFEF9054
:1044D000C00612BB27EEF0024C9990DDF7E0D394B2
:1044E0002040217F1C12FB2512FB87E47858F278CC
:1044F00057F290C92112BB1FE044F0F0E490C004D1
:10450000F0024C99C22212BC9B024C99C222024C6E
:1045100099785EE2FD601DC22212BB3612BC4124B6
:1045200047F582EE3401F583E064086003024C999C
:10453000ED024C96D22290DE17E0540D24FB70035E
:1045400002468E24F8700302474B240C6003024C91
:104550009990BE23E054FEF07851E214602D14606F
:104560004A14604724036003024C99E553640160D8
:1045700003024C9912BBE7C21512E06C90BA237487
:1045800002F012BC39784A74038017E55364026064
:1045900003024C9912BCACC21512E06C12BB8578B8
:1045A0004A04F290DFCC14F0024C9912BC2660FB56
:1045B00090BF43E030E049E553640270437851E234
:1045C000B4020512F905800312F9B390BE24120457
:1045D0003790DDF812047812BC4990DE127401F0B5
:1045E00012E6C712BB8C784E7404F212BB4212F66C
:1045F0006812BBDC90DE17E04404F07F08024745F8
:1046000090DE0CE020E10790DE06E030E11A785100
:10461000E264036003024C9912BCB612BB36E4900C
:10462000C004F07F07024745909C62E030E01A78B2
:1046300051E264036003024C9912BCB612BB36E42B
:1046400090C004F07F0702474512FCA17851E2B404
:10465000021F7844E2B41002D23912BBE712E06CB8
:1046600012BB98784E7403F290DFCCE553F0024C05
:104670009912F6B412BCAC12E06C90BA2B7401F033
:10468000784E7403F290DFCC7401F0024C997851AB
:10469000E224FE602424026003024C9990DDFBE0DA
:1046A0004402F012E6C712BC04440190BA0BF012A7
:1046B000BB9F12BB85784A802690DE12E004F01280
:1046C000BC2660FB90BF42E030E01A12BC4912E603
:1046D000C712BBDC12F66812BB4212BB8C784E7458
:1046E00004F2024C9990BF43E020E003024C99127F
:1046F000BB3012F9B312F7CF90C75C7401F0C2114E
:10470000124D2E90C760E04402F030E002D22690B5
:10471000C760E020E30330E202D25790DE1812BBFC
:104720001FE044F0F075F0CFEF90C12812BB27E4F2
:10473000F0C222302606784DE24410F290DE17E0F7
:104740004408F07F1012FB25024C99C222024C99BA
:104750007868E2600302487ED22212BB36784A743F
:1047600002F290DE06E0FF541924F7700302483489
:1047700024F070030248482418600302487A90C766
:1047800060E030E013EF20E50F90DE06E0442012F9
:104790004D1712BC7002489390DE06E030E62E12F0
:1047A000BC5190DE07E0FF20E60312BC7B90DE08E0
:1047B000E475F001120289FE90D730E0B50608A337
:1047C000E0B5F00312E34B7554010248937851E2CF
:1047D0006402600302489390D731E025E0FF90D750
:1047E00030E033FE90DE0AE475F001120289FCC36A
:1047F000E5F09FEC9E400990DE06124D480248937A
:104800007844E2FF64106004EFB41102D2397554A9
:104810000112F1FF12BB7C90DE06E04440F090DE16
:1048200008E07002A3E0606B90DE0874FFF5F01200
:104830000273805F90D72BE0600990DE07E04401AF
:10484000F0805090DE06802C90DE07E020E4447F6C
:104850000C12FB2590DE06E030E50512EFFF800B21
:10486000C2AF90BE12E04403F0D2AF78C0E254FE73
:10487000F290DE07E04410F08019C222801590DE2D
:1048800006E020E604C222800A90DE07E020E5036D
:1048900012E34B90DE07E0FF5407FEBE010AEF442F
:1048A00002F012BC5D024C99EE640360030249837E
:1048B00012BC5D90D9C4E0FF90BE27E06F60030298
:1048C0004C9912BC94F0E0547FF090B81AE054FE7A
:1048D000F0E054FDF090D7C2E0602D90D72BE0FDC2
:1048E000D39411500B90B81BE054874418F08043C8
:1048F000EDD3947990B81BE0500754874450F08072
:104900003254874470F0802B90D72BE0FDD3941B5A
:10491000500B90B81BE054874420F08016EDD394E0
:10492000B790B81BE0500754874458F0800554876F
:104930004478F090B817E054FC4402F0E054FBF0E7
:1049400090D72BE075F008A4FF90B817E05407FD4E
:10495000ED4FFFE5F012BB59784E7409F290212B10
:10496000E0FFA3E090B61ACFF0A3EFF012BBE7E4AC
:1049700090B805F090BA2304F090DE07E04404F00C
:10498000024C9990DE07E0FD540764076003024C77
:104990009912BC5D90B85BE06003024C99ED54F84D
:1049A00090DE07F090DE06E04410F0024C99786843
:1049B000E26003024C7CD22290DE0CE0543D24FBEA
:1049C0007003024AD624E87003024BCB241C600318
:1049D000024C7890C760E030E02290DE0DE0FF549A
:1049E000037019EF4401124D1712BC707844E26451
:1049F000106003024C9912F9B3024C9990DE0DE05D
:104A000030E114E490C004F090DE0CF0A3E054FC1C
:104A1000F012EFFF024C9990DE0CE030E648A3E084
:104A2000FF20E60312BC7B12BC5190DE0E12BC8646
:104A3000909E06E0700D90DE0EE07003A3E0F4702F
:104A40001F801A90D735E02401FF90D734E034005E
:104A5000FE90DE0EE0B50608A3E0B5070312E34BB7
:104A6000755401024ACE7851E26402706190D735E4
:104A7000E025E0FF90D734E033FE90DE1012BC86D4
:104A8000FCC3E5F09FEC9E400990DE0C124D4802FD
:104A90004C997844E2FF64106004EFB41102D239FB
:104AA00075540112F4A612BB3612BB7C90DE0CE0EA
:104AB0004440F090DE0EE07002A3E0600A90DE0E4B
:104AC00074FFF5F012027390DE0DE054DFF0784AC7
:104AD0007406F2024C99784FE2FD7851E2C39D547E
:104AE00003F5526401704E12BC4990BE27E0C39D8D
:104AF0001313543F0490DE12F0E0FF6405700302CC
:104B00004BC3EFD3940540117F1312FB2590DE0CAD
:104B10007480F012BB36024BC312BB9F90B85BE0AF
:104B2000640C60F8E0640160F312F10390BE271298
:104B3000BB7F024BC390DE12E07003024BC3300711
:104B400010E58E547070057556648013755632806A
:104B50000EE58E547070057556288003E4F556E412
:104B6000F555E555C39556500500055580F4E552B9
:104B700064036004E552704B90BF43E030E0449022
:104B8000B85FE0640560F8000090BF43E030E230B9
:104B900090B82BE054786410702690BE27E0785FC0
:104BA000F290DDFBE04402F012F10312FCA190BE92
:104BB00027E00412BB9412BCA2784A7407F2800367
:104BC00012F9B3784A7407F2024C9912DA4A90BE8D
:104BD00027E054037851F290DE0CE04420F090C7B7
:104BE00060E0FF30E102D226EF20E30330E202D2A0
:104BF00057EF30E008124CF5E490DE0DF090C760FE
:104C0000E04401F090C75C7402F0302611784DE268
:104C10004410F27B007A017D027F1412207F784DD0
:104C2000E254F7F212BB6190C939F0A3EFF012BC65
:104C300041FF12BC6590C755E08F828E83A3F012AE
:104C4000BB3012BC412422F582EE3401F583E4F03E
:104C500012EEDD12BC04440390BA0BF07846E2FF7A
:104C600008E290B60ACFF0A3EFF0D22290C742122A
:104C7000BB1FE04490F08021C222801D90DE0CE03A
:104C800020E604C222801290DE0DE020E40B12E345
:104C90004B800678C0E254FEF2302232E490B8BB7A
:104CA000F0E554600B909E3E12BCC04440F0800979
:104CB000909E3D12BCC054BFF090BA23E020E007A4
:104CC00090BA2BE030E00790B87BE054FCF0221261
:104CD000EEDD90BE27E054FC440390BA0BF090B692
:104CE0000A7420F0A3748AF090B60E7420F0A374B6
:104CF0009CF0C2152290C742E06401F0D23CE0FD76
:104D00002409F582E434C9F583E04401F07B007A9C
:104D1000017F1412207F22F012FB8790C939E0FE38
:104D2000A3E02290C921E0FFE4FD12B96B227EC707
:104D30007F4B7C9E7D007B0A1239342212EEDD907F
:104D40009E3AE0FF12F74322E04440F012E34BC2E8
:104D5000222278D77401F2E408F290B82BE054785C
:104D600078D5F2C237C233C231E408F2E054077892
:104D700060F2E2FF700B78D5E264106004D23480F8
:104D800002C234C22BC22CC22D30281790C7A2E019
:104D9000B5071090C79EE0FF7857E2B5070578D8B1
:104DA0007401F278D5E21205144E66004E73084E77
:104DB000F3104E09184E09204E15284E26304E3E4F
:104DC000384EDF404EEA484DF3504DF3584E566092
:104DD0004E56684DDD704DDD7800004EF57861E28D
:104DE0002404F2D23178D77405F2187401F2D23764
:104DF000024EF57861E22402F2D23178D77403F2E0
:104E0000187401F2D237024EF5D23178D67401F21D
:104E1000D237024EF578D67401F2D237D21D90C93E
:104E200017E4F0024EF578D67401F2D23778D8E262
:104E30006002D22BD21D90C917E4F0024EF578D64D
:104E40007401F2D23778D8E26002D22BD21D90C919
:104E500017E4F0024EF57861E22402F278D674018C
:104E6000F2D237024EF578D8E27003024EF5D22D19
:104E7000024EF5D23390C004E0B4062490C75CE043
:104E8000B4021DE490C004F07F1612FB25E490DD0F
:104E9000FEF090DE0404F090C760E030E102D2261C
:104EA00090C004E0B4041A90DE0CE030E313E49008
:104EB000C004F090DE0CF090DE0404F07F1612FBCC
:104EC0002590DE56E0B4010E90C025E0FFA3E07807
:104ED00053CFF208EFF278D8E2601AD22C8016781D
:104EE000D67401F2D231D237800B78D67401F2D267
:104EF000378002D237302B0890C7A3E0700204F04D
:104F000090B82BE030E70F851982851883A3A3A3FF
:104F1000E04410F0801B851982851883A3A3A3E0C9
:104F200054EFF0E5192444F582E5183401F583E4E3
:104F3000F0303403025799851982851883A3A3A3FF
:104F4000E0FF20E30302526B78D8E2600302526B69
:104F5000851982851883A3E0FE7860E26E60030203
:104F6000526B90B82AE020E00302526B85198285CB
:104F70001883A3A3A3EF54F7F0E5192465F582E5A0
:104F8000183401F583E0C39403401DE51924E8F5C6
:104F900082E43518F583E0600FE519249CFFE518DD
:104FA0003401FE7D0412FC7CE519245DF582E518D0
:104FB0003401F583E0B4010FE519245DF582E518AD
:104FC0003401F5837402F0E5192434F582E43518D0
:104FD000F583E020E20302513D7857E2F925E02411
:104FE0000CF582E434DAF583E0FEA3E0F5828E83EB
:104FF000E064046003025136E925E0240CF582E404
:1050000034DAF583E0FEA3E0F5828E837408F012B3
:10501000201978D3EEF2FC08EFF2FD18E2FE08E268
:10502000FF2404F582E43EF5837405F07857E22509
:10503000E0240CF582E434DAF583E0FAA3E02407F7
:10504000F582E43AF583E0FBEF2405F582E43EF5D2
:1050500083EBF07F03121FE67857E2FD75F0CFA4D3
:105060002409F582E5F034C0F583ED2583F583E06E
:1050700054FDF0E5192446F582E5183401F583E086
:10508000FF30E055E5192446F582E5183401F58333
:10509000EF54FEF0E519245FF582E5183401F5833D
:1050A000E030E110E5192446F582E5183401F58376
:1050B000E04402F0E519245FF582E5183401F58338
:1050C000E030E210E5192446F582E5183401F58355
:1050D000E04404F07F1C12FA567857E2FF25E024E2
:1050E0000CF582E434DAF583E0FCA3E02408F582D1
:1050F000E43CF583E0FCA3E0FDEF25E0240CF58221
:10510000E434DAF583ECF0A3EDF0E2FF25E0240CC3
:10511000F582E434DAF583E0FCA3E04C601875F026
:10512000CFEFA42409F582E5F034C0F583EF2583A1
:10513000F583E04401F090C915E054EFF0E519243F
:1051400034F582E43518F583E06402600302526BA3
:105150007857E225E024A7F582E434D9F583E0FE10
:10516000A3E04E700302526B12201978D3EEF2FCCA
:1051700008EFF2FD18E2FE08E2FF2404F582E43EA7
:10518000F5837406F07857E2FBEF2405F582E43EE0
:10519000F583EBF07F03121FE67857E225E024A7A2
:1051A000F582E434D9F583E0FEA3E0F5828E83E056
:1051B00020E20302523712201978D3EEF208EFF200
:1051C00018E2FE08E2FF2404F582E43EF58374034E
:1051D000F07857E2FDEF2405F582E43EF583EDF02B
:1051E000ED25E024A7F582E434D9F583E0FEA3E0C1
:1051F0002405F582E43EF583E0FF78D3E2FC08E283
:10520000FD2406F582E43CF583EFF07857E225E0D3
:1052100024A7F582E434D9F583E0FEA3E02406F563
:1052200082E43EF583E0FFED2407F582E43CF5835C
:10523000EFF07F06121FE6C2207857E225E024A790
:10524000F582E434D9F583E0FEA3E0FFF5828E8396
:10525000E054F0FDBD700690D9C57406F08F828EC3
:10526000837408F090C915E054EFF090C75CE0B487
:10527000010C90C90BE0B4010590C910E4F090DE78
:1052800056E0541E60030253A52031030253979049
:10529000B82AE05402F55390C004E0B40211E519B5
:1052A0002444F582E5183401F5837401F0800FE59C
:1052B000192444F582E5183401F5837404F0E519E6
:1052C0002447F582E5183401F583E0541E601B780D
:1052D00057E2FF75F0CFA42409F582E5F034C0F55C
:1052E00083EF2583F583E04460F0E519241DF58202
:1052F000E43518F583E06553703BE519241EF5820B
:10530000E43518F583E0FF90B82FE054036F600791
:10531000909E1DE020E71E90DE55E060030253A53D
:10532000C23712F9B3E519241AF582E43518F5836A
:105330007401F0807078D7E2D39401402290D9BDF7
:10534000E0601CC2317401F2C23712F9B3E51924CE
:105350001AF582E43518F583E4F07861F28046307E
:105360001A0790C915E04408F090C75CE06401702A
:105370003490C90BE06402702C90C79FE064017008
:105380002490C915E04480F0851982851883A3A371
:10539000A3E04420F0800E78D8E2600990B82AE0BB
:1053A00030E002D22EE5192447F582E5183401F5E4
:1053B00083E0FF541E7003025525EF5414602685C8
:1053C0001982851883A3A37404F07857E2FF75F05F
:1053D000CFA42409F582E5F034C0F583EF2583F5E9
:1053E00083E04480F02031030254993026030254B4
:1053F00099E5192450F582E5183401F583E0FEA300
:10540000E0FF78D7E2FD7C00EF2DF554EC3EF5533C
:10541000E5192456F582E5183401F583E0FEA3E092
:10542000C39554EE9553505790C75CE0B4011DE509
:105430005424FFFFE55334FFFEE5192456F582E5B9
:10544000183401F583EEF0A3EFF08013E51924562C
:10545000F582E5183401F583E553F0A3E554F0E552
:10546000192447F582E5183401F583E06408600FDC
:10547000E5192447F582E5183401F5837404F090AA
:10548000B82FE05403FFBF0310E5192449F582E566
:10549000183401F583E04440F0E5192449F582E52C
:1054A000183401F583E030E62030311D85198285FE
:1054B0001883A3A3A3E04420F0E5192449F582E56D
:1054C000183401F583E054BFF090C75CE0640170CC
:1054D00054E5192449F582E5183401F583E0FF30DD
:1054E000E7237844E2B4101DE5192449F582E51854
:1054F0003401F583EF547FF0851982851883A3A3C7
:10550000A3E054DFF020311D851982851883A3A301
:10551000A3E0542F700FE519245BF582E5183401E0
:10552000F5837401F078D7E2D39401404B301A0D23
:1055300090C79FE0B4010690D9B9E07003303938C4
:1055400012F9B3E519241AF582E43518F583E4F06D
:105550007861E204FF78D7E2FEC3EF9E7861F278CB
:10556000D77401F2C237301A0FE5192444F582E5E9
:10557000183401F583E004F0303914C23990C004C6
:10558000E0640270030258A390BA2B7402F0222048
:105590001D1490BE0BE0FFE519242CF582E43518AC
:1055A000F583EFF0803D90C75CE064017035E5194C
:1055B00024C2F582E5183401F583E030E525E519CC
:1055C000242CF582E43518F583E0FF90BE2BE0C370
:1055D0009FD39450400D851982851883A3A3A3E01F
:1055E0004420F090C75CE06401703820312490C9F9
:1055F0000BE0601E90C911E020E61790C79EE0C343
:105600009402500EE5192444F582E5183401F5831F
:10561000E4F078D7E2D3940140030257991275342D
:10562000025799127FECE5192449F582E5183401F7
:10563000F583E0FF30E7237844E2B4101DE5192438
:1056400049F582E5183401F583EF547FF08519821E
:10565000851883A3A3A3E054DFF090DE56E0541E28
:10566000700302577678D6E2700302577690B82F0F
:10567000E05403FFBF030918E26418700302577671
:1056800090DE66E0FF64107003025731EF64307003
:105690000302573178D5E2FF131313541FF55390CB
:1056A000DE58EFF090B82FE0540390DE59F090B838
:1056B0002EE0541FFEA3E054F87803CEC313CE139C
:1056C000D8F9FF90DE5EEEF0A3EFF0E553C394044B
:1056D000405F74FC2553F55390DE66E0FF7028E5CB
:1056E0005325E0244EF582E43440F583E493FC74C2
:1056F0000193FDD390DE5FE09D90DE5EE09C403143
:10570000ECF0A3EDF0802AEFB42026E55325E02449
:1057100066F582E43440F583E493FE740193FFD38D
:1057200090DE5FE09F90DE5EE09E4005EEF0A3EF2E
:10573000F0A231E43390DE61F090DE577402F09015
:10574000DE62E070167E047FD090DE5CEEF0A3EFA8
:10575000F090DE5AEEF0A3EFF080147E087FCD903B
:10576000DE5CEEF0A3EFF090DE5AEEF0A3EFF090E7
:10577000DE62E06401F090C90BE0B4021C201D1948
:1057800090C91EE004F0D39401400EE51924C3F53E
:1057900082E5183401F583E4F090DE13E030E0296F
:1057A000A3E0FF7857E26F702090C004E0B40502D8
:1057B000E4F0E490DE13F07F1412FB25303C5DD260
:1057C00026784DE24440F2805390C004E0640270B9
:1057D0004B90DE18E0FF7857E26F704090DE17E0E4
:1057E00030E339E490C004F090DE17F07F1412FB30
:1057F00025784DE254EFF2785EE25408F290DA0533
:10580000E0600B7829E2FBE4FD7F0D12209030264A
:105810000B7B007A017D027F1412207F12FCE8903E
:10582000BE09E0FFE519242AF582E43518F583EF77
:10583000F090BE0AE0FFE519242BF582E43518F557
:1058400083EFF012FCBFE5192417F582E518340147
:10585000F583EFF0851982851883E030E60312E5C1
:105860001230313F90C90EE030E038E5192447F599
:1058700082E5183401F583E0702990B82FE05403D5
:105880006401600890C911E04404F02290C914E05A
:1058900004F0D39414400C90C911E04404F090C972
:1058A00014E4F0228F55E478D7F278D9F278527464
:1058B00006F2E490D9BDF078DAF20804F220260668
:1058C000203C03305709784BE2B401037402F2E440
:1058D00078D8F27859E22401FFE433FE78D8E2FD6B
:1058E000D39FEE6480F87480984003026158E555B8
:1058F000C394045008ED6555600302615078D8E206
:10590000FB75F0CFA42406F582E5F034C0F583EBF7
:105910002583AF82F5568F57F583E5822447F582BC
:10592000E5833401F583E0541F18F270030261200F
:1059300090BE17E04402F00000000090BE00E0FCC2
:10594000A3E0FDA3E0FEA3E0FF78011203FD78D5FC
:10595000EEF208EFF278D9E204F278D7E21460238D
:10596000147003025B2424FE7003025DBE24F470F5
:1059700003025FC62408600302612078DAE204F2C1
:10598000026120202606203C0330576790BE177422
:1059900001F0EBD39401401C90BE08E0FCA3E0FDB5
:1059A000A3E0FEA3E0FF78011203FD78D5EEF20834
:1059B000EFF2803F78D8E225E025E02431F582E45B
:1059C00034C9F583E0FCA3E0FDA3E0FEA3E0FF9073
:1059D000BE08E0F8A3E0F9A3E0FAA3E02FFFEA3E57
:1059E000FEE93DFDE83CFC78011203FD78D5EEF2BE
:1059F00008EFF2E5572458F582E5563401F583E0C7
:105A0000FEA3E0FF78D5E2FC08E2FDC3EF9DFFEEC8
:105A10009CCF24FFCF34FFFEE5572452F582E55694
:105A20003401F583EEF0A3EFF0E55724C1F582E5EC
:105A3000563401F583E0FFE5572458F582E55634E6
:105A400001F583E0FCA3E0C39FFFEC9400CF24FFAB
:105A5000CF34FFFEE5572458F582E5563401F5832F
:105A6000EEF0A3EFF0E5572447F582E5563401F553
:105A7000837402F078D8E2FD7829E2FB7F051220DA
:105A800090E55724C1F582E5563401F583E0FF78AF
:105A90004BE2F9FDEF2DFFE433FEE5572452F5828A
:105AA000E5563401F583E0FCA3E0D39FEC9E406A09
:105AB000E5572458F582E5563401F583E0FEA3E06E
:105AC000FF78D5E2FC08E2FDC3EF9DFFEE9CFEE906
:105AD000FDC3EF9DFFEE9400CF24FECF34FFFE7890
:105AE000D3F2FA08EFF2FB78D8E2FD7F0512207FAF
:105AF000E5572447F582E5563401F5837408F0E450
:105B000078DBF218E204F2E5572448F582E55634D2
:105B100001F583E04401F002612078D8E2FF12EB46
:105B2000B5026120E5572452F582E5563401F5832C
:105B300074FFF5F012027378D5E2FE08E2FFF55823
:105B4000E5572458F582E5563401F583E0FCA3E0DF
:105B5000FDC39558F5587852E2FBE558C39B5009B0
:105B6000E55894004003E558F27852E2FB7867E28A
:105B7000FAC39B50067856EAF280047856EBF2EFAF
:105B80006D7002EE6C6003025D51E55724C1F58231
:105B9000E5563401F583E0FF7E00E557244EF5829B
:105BA000E5563401F583E0FCA3E02FFFEE3CCF2463
:105BB000FFCF34FFFEE5572456F582E5563401F554
:105BC00083EEF0A3EFF0785EE24402F290C75CE06F
:105BD00064026003025C75E55724BEF582E5563425
:105BE00001F583E07003025C6FE55724C0F582E5A0
:105BF000563401F583E0603AE5572454F582E556C2
:105C00003401F583E0FEA3E0D39420EE9403401129
:105C1000E55724BEF582E5563401F5837404F0801F
