:0400000034EF00F0E9
:0E0008004582D9CF03F0DACF04F0C9EF25F01E
:100018004580D8CF16F0E8CF17F0E0CF18F0D9CF49
:1000280019F0DACF1AF0A3BCA4AC03D0F1EC2AF093
:100038000BD0A3BEA4AE03D020EC13F005D0F2BAC7
:10004800F2A402D051EC2AF01AC0DAFF19C0D9FF85
:1000580018C0E0FF17C0E8FF16C0D8FF4590100091
:040068005EEF1BF03C
:100800000037332F2B27231F1B17130F0B0703FF53
:10081000FBF7F3EFEBE7E3DFDBD7D3CFCBC7C3BF08
:100820000602070501040003080502050404040488
:03083000020400BF
:100834000101066F370E061901E046D380EC08F07B
:100844007BEC08F0DFAE4CD020EE03F07BEC08F03C
:10085400800EDF5E20EE03F07BEC08F0DF5019E140
:100864000101076B000E0725D96EDA6A040EDA223D
:10087400DF6A072B530E0765F5D7AA0E0401006F34
:10088400016B560E026F300E036F130E046F0001DE
:10089400866B20EE03F07BEC08F08651DE18D8A4BA
:1008A400120020EE02F07BEC08F0090EDE1807E1DE
:1008B4000101076BECDB070E0765FCD706D00101CD
:1008C400076BE5DB030E0765FCD70001862B0B0ED7
:1008D4008619D8A41200866B8DEC08F0DBEF21F0AA
:1008E4007A0E0101061901E1120080EC08F07BEC9C
:1008F40008F0DF500101066F000120EE05F0F9DB7E
:10090400DF50EB6FEC6BE0D2040E0001EB19EC113D
:1009140002E1B0EF14F0020EEB19EC1102E1B0EFBA
:1009240014F01200060E2C1804E0040E2C18D8A49F
:1009340012000001EB5199EF24F0060E2C18D8A4F4
:1009440012000001EB29EC1103E1010E4AEF2AF039
:10095400FE0EEB19EC1103E1000E4AEF2AF0EBC096
:100964003FF006EC27F092EC2AF0000905E0DFDB0B
:100974000CEC28F021EF22F031801200ECC02CF0B6
:10098400076B070E2C1804E1050E2C6E010E076F81
:10099400EBC02DF0150E3B1803E1160E3B6E160C42
:1009A4002D50EAEC27F02C5056E164D0030E2D189C
:1009B40009E1020E2E6E010E0FEC29F0000E83ECFD
:1009C4002AF0000C090E2D18D8A41200040E2E6E65
:1009D400040C030E2D180AE1030E25DB7FEC27F02F
:1009E400040E0FEC29F09EDB4AEC2AF0020E83EC95
:1009F4002AF0010C030E2D1816E1050E2E6E0101CE
:100A0400075103E1016B050E02D0016B070E006F65
:100A140000510FEC29F0000E83EC2AF0000EEFECED
:100A24002AF0A3EF28F0090E2D18D8A41200070EFF
:100A34002E6E070C030E2D180AE1060EF4DA7FEC75
:100A440027F0060E0FEC29F06DDB4AEC2AF0020EBB
:100A540083EC2AF0010C2C50010AA8E0030AA6E05A
:100A6400010AA4E0070AB5E0010AC4E0030AD8A415
:100A74001200E0D72D5003E0040E2D180AE12E6A6F
:100A8400000E83EC2AF0000EEFEC2AF0000E0FEFBC
:100A940029F0020E2D18D8A41200010E2E6E010C9E
:100AA400EBC09EF000019E51D8B41200020E426EBB
:100AB400D6EC2AF006EF27F0EBC088F00001880599
:100AC400D8A41200426AF4D7EBC08AF000018A511C
:100AD400D8A41200426A06EF27F000019085EBC00B
:100AE4001EF0040E43EC20F0040E0001946F040C7D
:100AF40000019095EBC01EF0040E44EF22F00001BB
:100B0400908BEBC01EF0200E43EF20F00001908D7F
:100B1400EBC01EF0400E43EF20F00001909B909D2F
:100B2400EBC01EF0200E44EC22F0EBC01EF0400E91
:100B340044EF22F000019087EBC01EF0080E43EC56
:100B440020F0D2D700019097EBC01EF0080E44EFBE
:100B540022F000019089EBC01EF0100E43EF20F04C
:100B640000019099EBC01EF0100E44EF22F000013A
:100B74009083EBC01EF0020E43EF20F0000190932F
:100B8400EBC01EF0020E44EF22F000019081EBC096
:100B94001EF0010E43EF20F000019091EBC01EF017
:100BA400010E44EF22F00001908FEBC01EF0800E86
:100BB40043EF20F00001909FEBC01EF0800E44EF45
:100BC40022F0020E0001946F020C010E0001946FDA
:100BD400010C030E0001946F030C050E0001946FC9
:100BE400050C080E3B18D8A412002F6A306A090EAF
:100BF4003B6E090C0A0E3B18D8A412002F6A306A07
:100C04000D0E3B6E0D0C0C0E3B18F8E01200EBC001
:100C14009BF0170E3B18D8A41200180E3B6E180C4C
:100C2400EBC09AF0020E00019A1903E0040E9A191F
:100C340003E1ECC0EBF0EC6B190E3B18D8A41200E6
:100C44002F6A306A1A0E3B6E1A0CEBC091F0120038
:100C54001E0E3B6E1E0C010E1B6E0001EB51E2ECEE
:100C640025F006EF27F00001EB51EC1105E1000E31
:100C7400B3EC24F006EF27F0EB05EC1102E006EFED
:100C840027F0000ECDEC24F006EF27F0020E2E180C
:100C940009E0050E2E1806E0040E2E1803E0070ED8
:100CA4002E1803E150DA03EC29F049DA40EC23F082
:100CB40006EF27F0020E2E1809E0050E2E1806E0A6
:100CC400040E2E1803E0070E2E1803E13CDA03ECA1
:100CD40029F00001EB51EC1128E142500FE1000E24
:100CE400B3EC24F006EC27F092EC2AF0000901E1C1
:100CF40043D61DDA0CEC28F021EF22F0020E421844
:100D0400D8A41200020EB3EC24F006EC27F0100E67
:100D14003B64100C92EC2AF0000905E00CDAB0EC0C
:100D24002AF0FEEF21F031841200EB05EC11D8A477
:100D3400120042500FE1000ECDEC24F006EC27F037
:100D440092EC2AF0000901E117D6F1D90CEC28F055
:100D540021EF22F0020E4218D8A41200020ECDECAC
:100D640024F0020E33EC25F0100E3B64100C92ECD0
:100D74002AF00009D8E0DFD9B0EC2AF0FEEF21F028
:100D84001B6A0001EB510F0BE2EC25F0020E1B6E07
:100D94000001EB390F0BE2EF25F0D1D940EC23F041
:100DA4004250D8A4120006EC27F092EC2AF0000975
:100DB40001E1E2D5BCD90CEC28F021EF22F02C049F
:100DC40004E0020E2C18D8A4120092EC2AF00009B8
:100DD40003E0BDD901EF2AF03684120093D905C18E
:100DE400A3F03BD0110E3B6403D01C0E3B6405D032
:100DF400240E3B1802E05FEF2AF0030E2E1803E0E6
:100E0400060E2E1808E1020E83EC2AF0010EEFEC18
:100E14002AF05FEF2AF0000E83EC2AF0000EEFECCC
:100E24002AF05FEF2AF0A4EC2AF0000907E02CEC8A
:100E340028F0E80603E1010EA8EC2AF02CEC28F0D7
:100E4400E80605E00101036B020E026F03D0010105
:100E5400026B036B025165EF25F001010551C2E0FD
:100E6400010AD8B41200030AD8B41200010AD8A4A3
:100E74001200D9D747D9010105AB120004AB03D046
:100E84000001929B12000001928B12003BD90101D8
:100E940005AD07D004AD03D00001939D02D000013D
:100EA400938D060E3B18D8A41200070E3B6E070C58
:100EB400000120EE01F01DD9060EDE18D8A41200A0
:100EC400010E426E06EF27F001010651010AD8B463
:100ED4001200030A02E1E8EF2AF0010A01E114D545
:100EE400070A01E14BD5010A01E1DAD5030A01E160
:100EF400E3D5010A01E1E8D50F0A01E1EED5010AC3
:100F040001E1F6D5030A01E115D6010A01E11AD679
:100F1400070A01E11ED6010A01E122D6030A01E112
:100F2400EED5010A01E1F2D51F0A01E1F6D5010A65
:100F340001E11DD6030A01E121D6010A01E125D60A
:100F4400070A01E129D6010A01E12DD6030A01E1CC
:100F540031D6010A01E135D60F0A01E136D6010A7C
:100F640001E137D6030A01E138D6010AD8B41200E8
:100F7400070AD8B41200010AD8B41200030AD8B47C
:100F84001200010A01E12DD63F0A01E133D6010A1C
:100F940001E13DD6030A01E143D6010A01E155D638
:100FA400070A01E160D6010A01E170D6030A01E1F2
:100FB40052D6010A01E17CD70F0A01E149D6010AA0
:100FC40001E178D6030A01E1DBD6010A01E1E5D6A5
:100FD400070AD8B41200010A01E1F1D6030A01E1BB
:100FE400FDD6010AD8B412001F0AD8B41200010AAF
:100FF400D8B41200030AD8B41200010AD8B41200FB
:10100400070A01E137D7010AD8B41200030A01E143
:101014003DD70E0A01E191D4010A01E183D4030A08
:1010240001E1F1D512002E6E000120EE03F0ED5126
:10103400D926EE51DA22DF50B36F20EE04F0ED51E1
:10104400D926EE51DA22DF50B46F20EE05F0ED51CF
:10105400D926EE51DA22DF50B56F20EE06F0ED51BD
:10106400D926EE51DA22DF50B66F20EE07F0ED51AB
:10107400D926EE51DA22DF50B76F20EE08F0ED5199
:10108400D926EE51DA22DF50B86FB30E12000751A1
:101094000001ED25EF6F000EEE21F06F040EEF2539
:1010A400D96E000EF021DA6E8651F16FF26BD89092
:1010B400F137F237D890F137F237D890F137F23769
:1010C400000EF36F040EF46F050EF327000EF423E5
:1010D400F151F327F251F423010107510001F325E3
:1010E400E16E000EF421E26EDFCFE7FF0101072B72
:1010F4001200ED51D926EE51DA221200000120EE41
:1011040003F01200EBC004F1ECC0EBF00001EC6B57
:10111400EBC005F11200000EC36F040EC46F5A0E2B
:10112400C56F5A0C030E726FE80E716F010C010E3D
:10113400BF6F3F501200010EBF6F41501200236A6F
:101144000001EB511200EBC0DFF00651120099C010
:10115400CAF0F60C0101086B0201215108E123C217
:10116400F5F0225165EC22F00101086F03D0215102
:101174001AEC25F0220E020121191EE0215104E18E
:10118400020E0101081918E10201215103E1120EB6
:10119400221912E077EC2AF000090EE0210EBF6F4D
:1011A400020EC06F8CC0C1F0C26B99C0C3F08B51EA
:1011B4000008C46F3AEC15F0340E0201211901E065
:1011C4009AD27A0E251901E096D2260E1B6E020ED3
:1011D4001C6E3FEC26F00009D8B412000001BF6B6E
:1011E400010EC06F02012C5185EF22F0DADAD4DA55
:1011F400370E1AEF04F02351AAEF29F0D2DACCDA31
:10120400180E1AEC04F010EF1BF0CBDAC5DA170E47
:101214001AEC04F010EF1BF0C4DABEDA190E1AEC63
:1012240004F010EF1BF0BDDAB7DA1A0E1AEC04F072
:1012340010EF1BF0B6DAB0DA1B0E1AEC04F010EF64
:101244001BF0AFDAA9DA1C0E1AEC04F010EF1BF055
:10125400BFDA9CDA080E1AEC04F010EF1BF08DDAFA
:10126400090E1AEC04F010EF1BF087DA0E0E1AECDC
:1012740004F010EF1BF081DA0F0E1AEC04F010EFFB
:101284001BF07BDA100E1AEC04F010EF1BF0A0DA5E
:101294007DDA0A0E1AEC04F010EF1BF06EDA0B0E76
:1012A4001AEC04F010EF1BF068DA0C0E1AEC04F0E0
:1012B40010EF1BF062DA0D0E1AEC04F010EF1BF0C5
:1012C4005CDA110E1AEC04F010EF1BF056DA120E71
:1012D4001AEC04F010EF1BF050DA130E1AEC04F0C1
:1012E40010EF1BF04ADA140E1AEC04F010EF1BF0A6
:1012F40044DA150E1AEC04F010EF1BF03EDA160E69
:101304001AEC04F010EF1BF0225101E177D7010A27
:101314008AE0030A01E179D7010A8CE0070A91E027
:10132400010A96E0030AB3E0010A99E00F0AB6E065
:10133400010AD2E0030AD6E0010AB6E0070ABAE0DD
:10134400010A93E0030A9DE0010A01E165D71F0A3F
:1013540092E0010ABBE0030ACBE0010A02E110EFCC
:101364001BF0070ACBE0010AABE010EF1BF005DA33
:10137400050E1AEF04F001DA060E1AEF04F011DA82
:101384000BDA280E1AEF04F0F8D9290E1AEF04F03C
:10139400F4D92A0E1AEF04F0F0D92B0E1AEF04F048
:1013A400ECD92C0E1AEF04F0E8D92D0E1AEF04F044
:1013B4002251D8B41200010ADAE0030AD8B41200A8
:1013C400010AD8B41200070AD6E0010AD8E0030AD9
:1013D400DBE0010ADDE00F0ADFE0010AE1E0030AD5
:1013E400D8B41200010AD8B41200070AD8B4120003
:1013F400010AD8B41200020AD8A41200D5D7BDD964
:10140400070E1AEF04F022C20BF1DBD92351CDD918
:10141400040E1AEF04F0225103E123290CE110D049
:10142400220507E0020E221904E0030E2219D8A4B3
:101434001200235105E1B5D9AFD91D0E1AEF04F0FE
:10144400B0D9AAD91E0E1AEF04F0220E1B6E020E9A
:101454001C6E44EC27F0220E1B6E020E1C6EAFECC9
:1014640026F09FD999D91F0E1AEF04F0220E1F6E91
:10147400020E206E65EC2AF094D98ED9200E1AEF54
:1014840004F02251ACEC2AF08CD986D93A0E1AEF2A
:1014940004F022C2EBF0000179D9210E1AEF04F016
:1014A4006CD9260E1AEF04F068D9240E1AEF04F052
:1014B40064D9250E1AEF04F00D0E231904E00F0E63
:1014C4002319D8A412002D05D8A412002EC2EBF0C3
:1014D40000015CD9230E1AEF04F026C209F10101C0
:1014E4000A6B09510A6F096B0201275101010913A3
:1014F400CC0E02012B1907E12C0E0001DF6F020E46
:10150400E06F9AEF18F0140E2B1901E11200300E5F
:101514002B190BE12D0E1B6E020E1C6E540E1D6E4C
:10152400F3EC1BF0000953E033D0350E2B190EE118
:101534002E514DE0110E2E614AD02E0E1B6E020E5E
:101544001C6E0FEC24F088EC2AF041D0020E2B190B
:101554003EE12C512FE03BD02CEC28F0E80614E1BE
:101564003ED95EEC23F0010EA8EF2AF02CEC28F013
:10157400030A04E02CEC28F0020A06E130D95EEC00
:1015840023F0020EA8EF2AF0010E0001CD6F02D065
:101594000001CD6B02012B515EEF23F020D95EECEC
:1015A40023F0010EC5EF16F01AD95EEC23F0010EFC
:1015B4003BEF17F02D51300AF1E0010AF5E0600A23
:1015C400CBE0030AE5E0010AD1E0070AE1E0020109
:1015D40029510AE0280E286E020E296E09C12AF04C
:1015E40029C22BF0B1EF17F0280E1B6E020E1C6EF1
:1015F40009C11DF073EC1AF00009D8B41200280ECA
:101604000001BF6F020EC06F09C1C1F06CEF29F079
:10161400C8D8C2D8270E1AEF04F024C2EBF0000198
:10162400B5D8320E1AEC04F0250E0001D36F020E69
:10163400D46F8C51FC0FD56F0201245189EF1DF03A
:1016440023C20BF1BED82251B0D8220E1AEF04F0F7
:1016540023C20BF1B6D82451A8D82E0E1AEF04F0E9
:101664008CD82F0E1AEF04F09CD896D8300E1AEFAF
:1016740004F023C20BF1A5D8245197D8310E1AEFE8
:1016840004F02251E5E0010AEBE0030AEDE0010A6F
:10169400D8A41200EED7221F231F241F251F225176
:1016A40008E022C20BF18DD826517FD8330E1AECF4
:1016B40004F00201235108E023C20BF182D8275120
:1016C40074D8340E1AEC04F00201245108E024C248
:1016D4000BF177D8285169D8350E1AEC04F00201C1
:1016E4002551D8B4120025C20BF16BD829515DD80D
:1016F400360E1AEF04F02151010A01E105D6030A5E
:1017040001E17DD60E0A01E176D5030A01E1C8D6CE
:10171400170AD8B41200020A01E1CED6010A01E187
:1017240047D6040A01E1B5D63F0A01E18ED6010A83
:1017340001E19CD6030A01E1D0D6010A01E16BD68E
:10174400050A01E1B1D6010AA6E00E0A01E1B0D60C
:10175400040A01E15DD71F0A94E0010A01E153D6AE
:10176400070A01E143D50D0A01E157D7030A01E154
:1017740067D77A0A01E185D6120023C2EBF0000193
:10178400EC6B220EED6F020EEE6F1200EC6B220E6C
:10179400ED6F020EEE6F1200220EED6F020EEE6F71
:1017A40012000001EC6BEB6B120001010B130BC177
:1017B400EBF00CC1ECF0220E0001ED6F020EEE6FA7
:1017C400120001010C6B0B510C6F0B6B0201120028
:1017D40023510F0B0001996F23C2EBF0120000019B
:1017E400CD6B02012B51120071D1000E306EC80E68
:1017F4002F6E010E56D12F50301001E0CCD1000EC7
:10180400306E140E2F6E8F80020E4BD12F5030107D
:1018140001E0C1D18F86C8EC29F0010E306EF40EC0
:101824002F6E030E3ED12F50301001E0B4D1040EC0
:1018340038D10001940501E0AED192EC2AF0000900
:1018440001E1A9D1D6EC23F0050E2BD192EC2AF0BC
:10185400000901E1A0D1B5EC21F0ACD9060E21D1EB
:101864002F50301001E097D1070E1BD192EC2AF0D3
:10187400000901E190D19ED911EC26F0080E11D196
:101884002F50301001E087D195D911EC26F083D187
:1018940092EC2AF0000901E17ED18CD9F3EC23F01B
:1018A4000A0EFFD02F50301001E075D183D9F3EC2C
:1018B40023F071D1000E83EC2AF0000EEFEC2AF035
:1018C4000E0E3B6E77D967D12F50301005E0B4EC83
:1018D40029F0000901E05FD12F6A306A240EE1D0BB
:1018E40092EC2AF0000907E099C0CAF0510E01EC0D
:1018F4002AF0100ED6D0020E851901E04CD1240E28
:101904003B6E856B48D192EC2AF0000901E143D18A
:1019140099C0CAF0520E01EC2AF0110EC2D0000E8A
:1019240083EC2AF0000EEFEC2AF0120EBAD023EC6E
:101934002AF0000901E12FD1130EB3D092EC2AF062
:10194400000901E128D106EC27F040500CEC28F006
:101954000001C36F41500CEC28F00001C46F3F50EC
:101964000CEC28F041EC21F0160E9BD092EC2AF0FE
:10197400000901E110D11ED9FAEC25F0150E91D021
:101984002F50301001E007D115D9FAEC25F003D11E
:1019940092EC2AF0000901E1FED083EC26F0170E48
:1019A40090D72F50301001E0F6D000019B6B83ECF0
:1019B40026F088D792EC2AF0000901E1ECD06DEC16
:1019C40026F0190E7ED72F50301001E0E4D000012C
:1019D4009B5104E028EC26F01B0E63D01C0E61D052
:1019E40092EC2AF0000907E1D6D099C0CAF0F90EAA
:1019F40001EC2AF0F3D79A51EBE0010AE9E0030A7B
:101A0400F4E0010AF2E0070AF0E0010AEEE0C3D0D4
:101A1400020E0001851901E074D71D0E71D72F50F5
:101A2400301001E0B8D01F0E3CD092EC2AF000092F
:101A340001E1B1D01E0E3B1805E1C1D801EC2AF03A
:101A4400200E2FD02C500EE0060E2C1804E1B7D82F
:101A540001EC2AF0E8D799C0CAF0ED0E01EC2AF0A7
:101A6400230E2FD72C5007E1020E2D1804E1A7D81E
:101A740001EC2AF0D8D7A3D801EC2AF0D4D792EC01
:101A84002AF0000901E187D0306A960E2F6E99C0C2
:101A9400CAF0540E01EC2AF01F0E3B18210ED8A4F4
:101AA400220E3B6E78D02F50301075E1240E3B6E21
:101AB400000E83EC2AF0000EEFEC2AF06CD000014B
:101AC400855169E0850567E10F0E1AD73B5001E1A6
:101AD4008CD6010A01E18FD6030A01E197D6010AE7
:101AE40001E1A1D6070A01E1A4D6010A01E1AED6BB
:101AF400030A01E1B5D6010A01E1B8D60F0A01E1F2
:101B0400BFD6010A01E1C4D6030A01E1CBD6070A14
:101B140001E1D0D6030A01E1D7D6010A01E1E0D6FA
:101B24001F0A01E1F0D6010A01E1F9D6030A01E135
:101B3400FED6010A01E102D7070A01E117D7010A1B
:101B440001E11ED7030A01E123D7010A01E129D7E4
:101B54000F0A01E12FD7010A01E135D7030A01E198
:101B64003FD7010A01E13AD7070A01E151D7010A37
:101B740001E15BD7030A01E158D7010A80E03F0A7B
:101B840001E17DD7010A8FE0030A8DE0010A01E13A
:101B940046D7070A94E0030E3B64030C61EC29F07A
:101BA400C2EC1AF039EC1CF0E4EC0DF023EC1AF062
:101BB40073EF20F0030E306EE80E2F6EE80C99C020
:101BC400CAF0530C3150321069E031A00BD092ECC2
:101BD4002AF0000907E0319099EC08F00CEC28F0A9
:101BE40021EC22F031A20CD092EC2AF0000908E09A
:101BF4003192010EBF6F4050B0EC2AF0F2EC20F0AD
:101C040031A40BD092EC2AF0000907E031949DEC4A
:101C140008F0B0EC2AF0FEEC21F031A60BD092ECE7
:101C24002AF0000907E03196570EC36F010EC46F06
:101C340070EC1FF031A808D092EC2AF0000904E0FF
:101C44003198000EE7EC24F031AA08D092EC2AF087
:101C5400000904E0319A010EE7EC24F031AC08D01D
:101C640092EC2AF0000904E0319C030EE7EC24F026
:101C740031AE08D092EC2AF0000904E0319E070E40
:101C8400E7EC24F032A00AD092EC2AF0000906E036
:101C9400329099C0C3F0020E63EC24F03350341038
:101CA40001E180D033A208D092EC2AF0000904E0CC
:101CB40033921DD901EC2AF033A008D092EC2AF01B
:101CC400000904E0339013D901EC2AF033AC08D0B6
:101CD40092EC2AF0000904E0339CEED801EC2AF0DF
:101CE40033AE08D092EC2AF0000904E0339EE7D822
:101CF40001EC2AF034A008D092EC2AF0000904E0A8
:101D04003490E6D801EC2AF034A208D092EC2AF000
:101D1400000904E03492D9D801EC2AF034A40AD0A2
:101D240092EC2AF0000906E0349499C0CAF0300E0F
:101D340001EC2AF034A60AD092EC2AF0000906E05D
:101D4400349699C0CAF0310E01EC2AF034A809D0B7
:101D540092EC2AF0000905E03498C3EC20F001EC81
:101D64002AF034AA09D092EC2AF0000905E0349A4A
:101D7400C6EC20F001EC2AF034AC0AD092EC2AF044
:101D8400000906E0349C99C0CAF00C0E01EC2AF05C
:101D940034AE08D092EC2AF0000904E0349E92D8C4
:101DA40001EC2AF035503610D8B4120035A008D012
:101DB40092EC2AF0000904E035909CD801EC2AF05A
:101DC40035A208D092EC2AF0000904E0359286D8B6
:101DD40001EC2AF035A408D092EC2AF0000904E0C2
:101DE40035947FD801EC2AF035A608D092EC2AF07D
:101DF400000904E035966FD801EC2AF035A80AD022
:101E040092EC2AF0000906E0359899C0CAF0E30E76
:101E140001EC2AF035AA0AD092EC2AF0000906E077
:101E2400359A99C0CAF0E40E01EC2AF035AC0AD018
:101E340092EC2AF0000906E0359C99C0CAF0E50E40
:101E440001EC2AF035AE0AD092EC2AF0000906E043
:101E5400359E99C0CAF0EC0E01EC2AF036A00AD0E7
:101E640092EC2AF0000906E0369099C0CAF0F40E0C
:101E740001EC2AF036A20AD092EC2AF0000906E01E
:101E8400369299C0CAF0F50E01EC2AF036A409D0B6
:101E940092EC2AF0000905E03694A9EC08F001EC74
:101EA4002AF036A6120092EC2AF00009D8B41200E7
:101EB40036961AD801EF2AF099C0CAF05D0C99C081
:101EC400CAF0560C99C0CAF0050C99C0CAF0350C7A
:101ED40099C0CAF0340C99C0CAF0320C99C0CAF047
:101EE4000A0C99C0CAF00B0C99C0CAF0F70C99C03F
:101EF400CAF0E20C99C0CAF00E0C20EE01F06CD9C5
:101F0400DF500F0B01E1120020EE01F065D9DFA8CC
:101F14000CD020EE02F060D9600EDE5CEA0EDE58D2
:101F240001E322D120EE02F00BD020EE04F054D9CC
:101F3400600EDE5CEA0EDE5801E316D120EE04F0FA
:101F44004BD9DD51DE26DE51DD220ED120EE01F02B
:101F540043D9DFA8F7D0010E44D93DEC12F0DAD012
:101F6400F1D020EE02F038D9DE50DE1012E020EE7F
:101F740002F032D9F40EDE5C010EDE580AE220EEE5
:101F840001F02AD9DFB805D0010E2BD93DEC12F0AF
:101F9400C1D020EE02F020D9590EDE5C020EDE58CC
:101FA400DFE320EE01F018D9DFA8CCD0010E19D957
:101FB4003DEC12F0000120EE02F00ED9640EDE5E5C
:101FC400000EDD5A20EE06F007D9010EBAD020EE3D
:101FD40002F002D9DE50DE10C3E020EE01F0FCD89E
:101FE400DFB8B0D0010EFDD83DEC12F093D020EE56
:101FF40002F0F2D8DE50DE1012E020EE02F0ECD84F
:10200400FBD80DE220EE01F0E7D8DFB808D0010ECE
:10201400E8D83DEC12F0ECD8DFD8010E15D020EE54
:1020240002F0DAD8E80EDE1811E1030EDE180EE134
:1020340020EE01F0D1D8DFA809D0020ED2D83DECB1
:1020440012F0D6D8C9D8020EDF6E17D020EE02F0F7
:10205400C3D8DE50DE1011E020EE02F0BDD8E90E48
:10206400DE5C030EDE5809E320EE01F0B5D8DFB8DC
:1020740004D0050EB6D83DEC12F0000163D020EE7A
:1020840002F0AAD8DE50DE101BE120EE01F0A4D845
:10209400DFB816D020EE04F09FD8010EDB5003E128
:1020A400C90EDE5C0DE320EE06F096D8DE0408E1EE
:1020B400030E97D83DEC12F09BD88ED8030EDF6E3A
:1020C40020EE02F089D8DE50DE1026E020EE02F089
:1020D40083D892D821E220EE01F07ED8DFB81CD05C
:1020E40020EE04F079D8010EDB5010E1C90EDE5C5D
:1020F4000DE220EE06F070D8DE0408E1040E71D87B
:102104003DEC12F075D868D8040E1BD0010E69D8C6
:102114003DEC12F0000156D720EE02F05DD8E80E37
:10212400DE1810E1030EDE180DE120EE01F054D8A4
:10213400DFA808D0020E55D83DEC12F059D84CD87F
:10214400020EDF6E20EE02F047D8DE50DE1020E0F3
:1021540020EE01F041D8DFB81BD020EE04F03CD8CB
:10216400000EDE6EDD6E14D020EE01F035D8DF50A7
:102174000F0B010A01E1EAD6030A01E1F2D6010AD2
:1021840001E125D7070A01E132D7010A01E177D736
:10219400DBC0D9FFDCC0DAFFDF5012E120EE02F031
:1021A4001BD8100EDE180CE1270EDE1809E120EE14
:1021B40001F012D8DFA804D0100E13D83DEC12F0B1
:1021C400000120EE01F008D8DFB8120020EE02F082
:1021D40003D8DE6ADD6A000CDB51D926DC51DA2231
:1021E4001200D96FDBC0D9FFDCC0DAFFDF50120068
:1021F400000120EE06F01200E80EDE5C030EDE584D
:102204001200140E3E6E8C948C969C6B0E0E9C6584
:10221400FDD78C849C6B020E9C65FDD78C869282C4
:10222400938A700EAC6FC10E1DD91BEC29F014D922
:1022340097EC25F0700EAC6FD50E14D91BEC29F079
:102244000BD997EC25F0720EAC6FBE0E0BD91BECBC
:1022540029F002D997EC25F0800EAC6F400EAD6FDB
:102264007F0EAE6FAF6B070EB06FB16B040EB26F23
:10227400FED81BEC29F0296A070E286EAC0E2A6ED4
:1022840097EC25F0720EAC6F440EECD81BEC29F0E1
:10229400E3D897EC25F0720EAC6F6D0EE3D81BEC0F
:1022A40029F0DAD897EC25F0730EAC6FD60EDAD895
:1022B4001BEC29F0D1D897EC25F0070EAC6F200E5B
:1022C400D1D81BEC29F0C8D897EC25F00A0EAC6FD6
:1022D400020EC8D81BEC29F0BFD897EC25F02F0EBE
:1022E400AC6F010EBFD81BEC29F0B6D897EC25F0E3
:1022F4002F0EAC6F020EB6D81BEC29F0ADD897ECBC
:1023040025F0080EAC6F2F0EADD81BEC29F0A4D825
:1023140097EC25F0090EAC6F2F0EA4D81BEC29F016
:102324009BD897EC25F00B0EAC6FAD6BA0D81BECD3
:1023340029F092D897EC25F00C0EAC6F600E92D871
:102344001BEC29F089D897EC25F00D0EAC6F010E2B
:1023540089D81BEC29F080D897EC25F00E0EAC6FD1
:10236400AD6B85D81BEC29F077D897EC25F0230EBC
:10237400AC6F040E77D81BEC29F06ED897EC25F0DF
:10238400110EAC6F030E6ED81BEC29F065D897ECD8
:1023940025F0720EAC6F4D0E65D81BEC29F05CD89D
:1023A40097EC25F0720EAC6F4A0E5CD81BEC29F04A
:1023B40053D897EC25F0710EAC6F270E53D81BEC55
:1023C40029F04AD897EC25F0710EAC6F590E4AD813
:1023D4001BEC29F041D897EC25F0710EAC6F580E28
:1023E40041D81BEC29F038D897EC25F0720EAC6F6D
:1023F400B70E38D81BEC29F02FD897EC25F0720EC5
:10240400AC6FBC0E2FD81BEC29F026D897EC25F026
:10241400720EAC6FB40E26D81BEC29F01DD897ECC5
:1024240025F0100EAC6F030E1DD81BEC29F014D848
:1024340097EC25F09C6B130E9C65FDD7100EAC6FCA
:102444000B0E10D81BEC29F007D897EC25F08C88DC
:102454007FEC1CF04CEF25F0296A020E286EAC0EBE
:102464002A6E1200AD6F1C6A500E1B6E500C1C6A53
:10247400500E1B6E500CDA6FC9D0D90507E12CEC55
:1024840028F0030AD8A4120001EF25F0020ED9198E
:10249400D8A412002CEC28F0030AD8B4C8EC27F016
:1024A4001200D90514E12CEC28F0E80603E1010E32
:1024B400A8EF2AF02CEC28F0030A02E1B5EF20F093
:1024C4002CEC28F0020AD8A412009FEF20F0020E90
:1024D400D91907E12CEC28F0030AD8A4120095EFCF
:1024E40028F0100ED919D8A412008CEF29F02CEC86
:1024F40028F0030A07E10001D905D8A41200010E4F
:10250400C5EF16F00001D905D8A4120082EF29F016
:102514002CEC28F0030A07E10001D905D8A4120025
:10252400010E3BEF17F00001D905D8A4120056EFB5
:1025340029F0D90507E12CEC28F0030AD8A41200ED
:1025440096EF29F0020ED91907E12CEC28F0030AC2
:10255400D8A41200E6EF29F0050ED919D8A4120068
:102564002CEC28F0030AD8A41200F8EF29F0D905BE
:1025740007E12CEC28F0030AD8A41200A0EF29F0FC
:10258400020ED91907E12CEC28F0030AD8A4120092
:10259400EFEF29F0050ED919D8A412002CEC28F07D
:1025A400030A02E1F8EF29F01200030ED91904E13D
:1025B400C36B140E8FEF21F0040ED919D8A41200A6
:1025C400EB0E0CD0030ED91904E1C36BEB0E8FEFA5
:1025D40021F0040ED919D8A41200140EC36F000EF2
:1025E4008FEF21F0D90507E12CEC28F0030AD8A4D9
:1025F400120043EF2AF0020ED919D8A412002CECD1
:1026040028F0030AD8A412001AEF21F00001DA51CD
:1026140001E147D7010A01E130D7030A01E167D795
:10262400010A01E175D7070AA2E0010A82E0030A60
:10263400C9E0010ABAE00F0AD5E01200A49E63AE15
:10264400AED0639E0001A86B64EC27F0EDEC20F0A3
:102654007B6B7C6B120062B3120061C07BF07C6BFD
:102664006151D96EDA6ADF50A96F6151D96EDA6AA5
:10267400D92ADECF7DF0DDCF7EF0040E6127B90EBE
:10268400040F616302D0B90E616F629160516119E8
:1026940001E162836280020EA86F020C62AC04D076
:1026A40014D0040E58EF27F0D8904430076E43300E
:1026B400066E0650666E43A003D00B0EA86F0B0C7B
:1026C400030EA86F030C62AC02D0642BEAD76282BB
:1026D4004450060B066E076AF00E0610436E075050
:1026E400446E4380010E7F6FD6D77F0513E07DC013
:1026F400D9FF7EC0DAFFDECF43F0DDCF44F020EE19
:1027040003F068D8066E06C069F06A6B20EE02F02A
:1027140061D8806F43C066FF43A0D2D7050EA86F6F
:10272400050C62AC05D0642B629C050E58EF27F0B3
:102734008007802907E1E4EC28F0A92F01D028D0F4
:102744006282A9D74DD8DF50666E694B6A2B12009E
:1027540062AC06D0642B040E58EC27F0629C120085
:102764006286080EA86F080C080EA86F6286080C13
:1027740037D866CFDFFF694B6A2B800704E0629A83
:10278400060EA86F03D0628ADBEC28F06288120080
:10279400000E58EF27F0642B060E58EF27F00001C7
:1027A400A85101E158D7010ACBE0030A9EE0010ACF
:1027B400B8E0070AEDE0010ACBE0030AD5E0010A1C
:1027C400E7E00F0AD5E0020A01E168D7010A01E156
:1027D4007AD7E1D77D51D9267E51DA22DF50120013
:1027E40069C0D9FF6AC0DAFF1200000E0101346F1C
:1027F400010E356F9DD8AA0E8CD8000E8AD8210EF2
:1028040088D8290E86D8050E84D8000E82D8020EE8
:1028140080D8010E7ED81A0E7CD8050E7AD8030E05
:1028240078D80A0E76D8180E74D8120E72D8180EEC
:1028340070D8140E6ED8160E6CD8DA0E6AD8FE0E46
:10284400DF6E344B352B0001BD510F0B100970D8CE
:10285400DF6E010166D895C0DFFF63D898C0DFFF43
:1028640060D897C0DFFF344B352B336B71D865D8F4
:102874003365FCD7000198510BE10101336B58D843
:10288400DF6A344B352B332B050E3365F8D71FD055
:10289400980506E0050E981903E0070E981907E15C
:1028A4000101336B55D849D83365FCD710D0040ED9
:1028B400981903E0060E98190AE10101336B430EDF
:1028C4003325D96EDA6A010E38D83365F8D730D893
:1028D40096C0DFFF0101344B352B326B020E336F90
:1028E400000E3325D96EDA6A010EDA22DF50322760
:1028F400332B230E3365F4D7326D1AD832C1DFFF80
:10290400000E0001C36F010EC46F250EC56F0AEFE0
:102914002AF0DF6E344B352B34C1D9FF35C1DAFFD1
:102924001200344B352B34C1D9FF35C1DAFF120004
:1029340034C1D9FF35C1DAFF1200DA2234C1E1FF14
:1029440035C1E2FFDFCFE7FF344B352B332B050CCA
:102954003D0E3325D96EDA6A010E120003010051CF
:1029640001E1120000050CE176D806E13A5038186E
:1029740003E100019F6B1200010E00019F6F010C27
:10298400226A43D02250090D0E0EF324D96E030E91
:102994005DD8050EF324E16E030E4FD8120EF32416
:1029A400D96E030E53D8090EF324E16E030E5BD8DF
:1029B4002250090D0C0EF324D96E030E47D8030ED2
:1029C400F324E16E030E39D80A0EF324D96E030EF4
:1029D4003DD8010EF324E16E030E2FD8100EF3241C
:1029E400D96E030E33D8070EF324E16E030E3BD8E1
:1029F4002250090D110EF324D96E030E27D8080EA8
:102A0400F324E16E030E2FD8222A1B681C680051A0
:102A14001D6E1E6A1B501D261C501E2222501F6E46
:102A2400206A1D501F5C2050800A216E1E50800AAF
:102A34002158A8E310D899D79FD7F420E26EDECFAF
:102A4400E6FFDDCFE5FF2250090D1200F420DA6E17
:102A54002250090D1200000777C039F078C03AF00F
:102A6400395037181200F420E26EDFCFE7FF12006E
:102A7400D66B040EC125D46F000EC221D56F070E8C
:102A8400D425D26F000ED521D36F77EC2AF000093C
:102A9400D8B412000F0EC125216E000EC2216CD8CD
:102AA40086EC1EF0000901E11200AA0E0001C56FB8
:102AB400D3C0C6F0D2C0C7F0120EC86FC3C0C9F0ED
:102AC400CA6BD5C0CBF0D4C0CCF0D5C0CDF0D4C047
:102AD400CEF0AA0ECF6FD06BC1C0D1F0C50E1B6E65
:102AE4001C6A1E6A0D0E1D6E06EC1DF0C60E1B6ED2
:102AF4001C6A1E6A0C0E1D6ED651B6EC27F000013E
:102B0400D66FBFC01BF0C0C01CF0C1C01DF0C2C056
:102B14001EF006EC1DF0BFC01BF0C0C01CF0C1C00D
:102B24001DF0C2C01EF0D651B6EC27F00001D66FDE
:102B3400C40E17D806EC1DF0C4C0C5F0C50E1B6E3C
:102B44001C6A1E6A010E1D6ED651B6EC27F00001F8
:102B5400D66FD66DD60E05D806EC1DF008D82BEF2F
:102B640024F01B6E1C6A1E6A010E1D6E010C37C018
:102B74001BF038C01CF01200226E010E236E120CE2
:102B84006B516C1105E1A7EC1FF06C6B320E6B6F8F
:102B94002CEC28F0020A05E02CEC28F0030AD8A457
:102BA40012000001AB51D8B4120092EC2AF00009D3
:102BB40061E11200A251010ED8B4000E3C6E020E67
:102BC400AB6F6E6BC80E6D6FDFEC2AF0000903E08B
:102BD4003C0401E108D027EC29F00009D8B4120024
:102BE4003C50D8A41200010E4AEF2AF06D516E1128
:102BF40001E01200DFEC2AF0000906E03C0404E1E5
:102C0400060EE7EC24F009D027EC29F0000905E0D2
:102C14003C5003E1050EE7EC24F0030E0001AB6F1A
:102C2400030C040EAB6FDCEC2AF0000906E0010E85
:102C3400C36F3C5068EC21F004D0C36B3C5068EC8B
:102C440021F0010E0001A16F010CA15101E012005D
:102C54006E6BC80E6D6F050EAB6F050C6D516E116A
:102C640001E01200000E4AEC2AF0FBEC27F0000110
:102C7400AB6B1200AB51010A9DE0030AB7E0010AF5
:102C8400D0E0070AE2E0010AE9E01200000E0101C7
:102C9400346F010E356F6DD8AA0EDF6E63D86ED80F
:102CA4000051050F66D8DF6E01015CD8290EDF6E76
:102CB40059D8060EDF6E56D861D800295AD8DF6E6F
:102CC400010150D8090EDF6E344B352B336B0FD016
:102CD400010E3325D96EDA6A020EDA2234C1E1FF1D
:102CE40035C1E2FFDFCFE7FF344B352B332B020135
:102CF40000510101335DECE3326B020E336F0AD0F5
:102D0400000E01013325D96EDA6A010EDA22DF5092
:102D14003227332B020100510001C66FC76B080E26
:102D2400C627000EC723010133510001C86FC96BC8
:102D3400C651C85DC951800ACA6FC751800ACA59B1
:102D4400DFE30101326D15D832C1DFFF000E00014F
:102D5400C36F010EC46F02010051090F0001C56F5A
:102D64000AEF2AF0344B352B34C1D9FF35C1DAFFD1
:102D7400120034C1D9FF35C1DAFF1200DF6A344BC7
:102D8400352B020112000001CC6F6CD02C040CE036
:102D9400020E2C1809E0030E2C1806E0040E2C1861
:102DA40003E0050E2C1804E1100E3B6401D03DD065
:102DB400000EB3EC24F0000E33EC25F0100E3B644F
:102DC400100C92EC2AF0000907E0CCC0BFF03F5091
:102DD4000CEC28F021EF22F031801200010EB3EC4C
:102DE40024F0010E33EC25F0100E3B64100C92EC31
:102DF4002AF0000907E0CCC0BFF04050B0EC2AF044
:102E0400F2EF20F0318212002C040CE0020E2C1898
:102E140009E0030E2C1806E0040E2C1803E0050E3E
:102E24002C180AE1100E3B6407D099C0BFF0CCC047
:102E3400C0F0300E85EF22F0020EB3EC24F0020E47
:102E440033EC25F0100E3B64100C92EC2AF00009D0
:102E540007E0CCC0BFF04150B0EC2AF0FEEF21F007
:102E640031841200425092E0010AB8E0030ACCE037
:102E740012000001CC6F6CD02C040CE0020E2C1854
:102E840009E0030E2C1806E0040E2C1803E0050ECE
:102E94002C1804E1100E3B6401D03DD0000ECDECA3
:102EA40024F0000E33EC25F0100E3B64100C92EC71
:102EB4002AF0000907E0CCC0BFF03F500CEC28F02A
:102EC40021EF22F031801200010ECDEC24F0010E2E
:102ED40033EC25F0100E3B64100C92EC2AF0000940
:102EE40007E0CCC0BFF04050B0EC2AF0F2EF20F085
:102EF400318212002C040CE0020E2C1809E0030E9F
:102F04002C1806E0040E2C1803E0050E2C180AE118
:102F1400100E3B6407D099C0BFF0CCC0C0F0310E96
:102F240085EF22F0020ECDEC24F0020E33EC25F0F6
:102F3400100E3B64100C92EC2AF0000907E0CCC0A0
:102F4400BFF04150B0EC2AF0FEEF21F031841200C2
:102F5400425092E0010AB8E0030ACCE01200320EBB
:102F64002A6401D0320C2B040CE12A500001656F55
:102F7400666B676B686B01014F6B506B516B526BE7
:102F84000DD020EE02F02850D9262950DA22DF5045
:102F940000016527000E662367236823030E2B18A0
:102FA40003E0020E2B1809E1284A292A284A292A73
:102FB40046D8DF502A6E284A292A0001BF6B13D055
:102FC4003ED8990E01014F25E16E040E5021E26EA8
:102FD400DFCFE7FF284A292A4F2B000E5023512325
:102FE40052230001BF2B2A50BF5DEAE32B0403E008
:102FF400020E2B1802E1040E1CD0030E2B18D8A4C9
:103004001200FC0E6525C06FFF0E6621C16FC1C0A2
:103014009AF4C0C09BF4990E1B6E040E1C6E65C01E
:103024001DF073EC1AF0000902E0030E02D0010E49
:1030340000D00101536F546B556B566B000C28C0C4
:10304400D9FF29C0DAFF1200010E2B6E9FC02AF0AF
:1030540037C028F038C029F0BEEC1EF010E2395019
:10306400375C266E3A503858276E23502626245053
:103074002722900E265C010E27580EE31200B4ECB2
:103084001EF00AE223503724266E24503820276E7F
:103094003950265C3A50F0D7020E9F19D8B412006A
:1030A400B9EC1EF023C01DF024C01EF020EE03F086
:1030B4002150D9262250DA22DF501F6E25C020F07D
:1030C400FFEC1EF0000926E1120021C0D9FF22C046
:1030D400DAFF38EC1DF0214A222A41EC1DF002E30C
:1030E400376A386A3950371812E13A5038180FE104
:1030F4002350241008E02B6A2AC09FF028C037F020
:1031040029C038F00ED0020E00019F6F0AD0010EC4
:1031140000019F6F2306D8A024062328D6E1242883
:10312400D4E12B50D8B41200B9EC15F02BEF24F0F5
:1031340029C2E7F0E76B02012A510001E71355D0D9
:10314400CD6BCC0E5EEC23F0FBEF27F0CD6BCC0EF9
:103154005EEC23F02CEC28F0E80605E00001E66BB9
:10316400020EE56F03D00001E56BE66BE55165EFF8
:1031740025F044D8E5E0010AE9E032D0CD6BCC0E6D
:103184005EEC23F01BEF2AF0CD6BCC0E5EEC23F04B
:10319400FE0E0001E16FE269E751E36FE46BE15178
:1031A400E327E251E423080EE319E411D8A4120042
:1031B40020EE06F0DF51D926E051DA22020EDE18A5
:1031C400D8A41200DF29C36F000EE021C46F080EDB
:1031D400C56FA9EF1BF012D8020AD0E0780AD4E038
:1031E400020ECD6FCC0E5EEF23F0DFC0D9FFE0C03E
:1031F400DAFFDF50BEE0010AEEE0F2D720EE01F084
:10320400DF51D926E051DA22DF501200AA0ECA6F2C
:10321400CB6BC251040FCC6F2A0ECD6F030ECE6F51
:10322400CF6BC2C0D0F0C1518009D16FDB6B19D014
:10323400C151080DBFC0C3F0C0C0C4F0F350C327D0
:10324400F450C423DB51C325D96E000EC421DA6EB9
:10325400DBC0C5F0080EC527C551CA0FEEEC1BF044
:10326400DB2BC369C469C251C56FC66BC351C52783
:10327400C451C623DB51C76FC86BC551C75DC85164
:10328400800AC96FC651800AC959D2E3CC0E1B6E9D
:103294001C6AC2C0C3F0060EC327C351CA0FC46F51
:1032A400C4C01DF01E6AA4EC27F0C56FC2C0C6F0EE
:1032B400070EC627C651CA0FD96EDA6AC5C0DFFF2A
:1032C400CA0E216E226A080EC225236E246A000EDD
:1032D4002422010E256E26EF18F0CC6B070E29244C
:1032E400CA6F000E2A20CB6F77EC2AF00009D8B4FD
:1032F40012000B0E2924216E000E2A20BEEC15F0BC
:1033040086EC1EF0000901E11200AA0E0001BF6F55
:10331400CBC0C0F0CAC0C1F0120EC26F2BC0C3F044
:10332400C46B2AC0C5F029C0C6F02AC0C7F029C0A2
:10333400C8F0BF0E1B6E1C6A1E6A0A0E1D6E06ECD8
:103344001DF0C00E1B6E1C6A1E6A090E1D6ECC5148
:10335400B6EC27F00001CC6F27C01BF028C01CF08E
:1033640029C01DF02AC01EF006EC1DF027C01BF07A
:1033740028C01CF029C01DF02AC01EF0CC51B6ECA8
:1033840027F00001CC6FCC6DCC0EB3EC15F006EC3D
:103394001DF0B9EC15F02BEF24F0CC6B2928CA6F83
:1033A400000E2A20CB6F77EC2AF00009D8B4120063
:1033B400050E2924216E000E2A20BEEC15F086ECA1
:1033C4001EF0000901E11200AA0E0001BF6FCBC07C
:1033D400C0F0CAC0C1F0120EC26FBF0E1B6E1C6AD1
:1033E4001E6A040E1D6E06EC1DF0C00E1B6E1C6AD8
:1033F4001E6A030E1D6ECC51B6EC27F00001CC6F93
:1034040027C01BF028C01CF029C01DF02AC01EF0E4
:1034140006EC1DF027C01BF028C01CF029C01DF0CD
:103424002AC01EF0CC51B6EC27F00001CC6FCC6D55
:10343400CC0EB3EC15F006EC1DF0B9EC15F02BEF47
:1034440024F031D092EC2AF00009D8B41200990E7D
:10345400276E040E286E65C029F066C02AF0CFECF2
:1034640019F0020E1BEF18F0D0EC2AF00009D8A4D2
:103474001200220E1AEC25F00101536B546B556BAC
:10348400566B120092EC2AF00009D8B41200990E7F
:10349400C36F040EC46F65C0C5F00AEC2AF0220E97
:1034A4001AEC25F0E9D753C1CDF054C1CEF055C183
:1034B400CFF056C1D0F00001D051D8A412000ED0E4
:1034C400CE51D8A41200CD51D8B41200010ABAE0EA
:1034D400030ACAE0010AD8A41200D4D7CF51F0E0FD
:1034E4001200010E266E226A246A46D01BC0D9FF40
:1034F4001CC0DAFFDF50276E1B4A1C2A1D062ED083
:10350400AA0E271802E1010E21D0266A31D02750D5
:10351400FCE1020E1BD027C023F027C025F01D506C
:103524001E6E1F6A2550206E216A202A000E212259
:103534001E502018EAE11F502118E7E1030E06D0BF
:10354400275023262506255013E1040E246E10D09F
:1035540023502724DAE1010E226E0AD02450D0E051
:10356400010AD5E0030AD7E0010AEAE0070AF0E01D
:10357400225004E1265002E01D50B8E1265012000A
:103584003FD003010051D8B412008F800001766B44
:10359400030E756F010E896F010C75517611D8A455
:1035A40012005BEC28F0210E0301096F020E0001EA
:1035B400896F020C75517611D8A4120007C3EBF081
:1035C400EC6BED6BEE6B030E1AEC04F0100E0301C2
:1035D400096F80EC22F0040E896F040C755176118A
:1035E400D8A4120003010051DCE18F900001896B23
:1035F400120075517611D8A41200B0EC14F0F2D771
:103604008951BFE0010AC9E0030AD8B41200010AD3
:10361400D1E0070AE3E0010AECE01200D9EC2AF059
:103624001B6EEAEC2AF01D6E1E6A1C6A1DA403D0F0
:10363400030E1E6E1C2A1DA603D0040E1E6E1C2A29
:103644001DAA03D0050E1E6E1C2A1DA003D0010E58
:103654001F6E01D01F6A84511F1806E077EC2AF010
:10366400000902E01FC084F01C5007E013D01E6A5A
:1036740016D0020E13D0010E11D01B50F8E0010A2F
:10368400F6E0030AF6E0010AF4E0070AF2E0010AB0
:10369400F2E005D0010E1C6402D0060E1E6E955198
:1036A4001E1804E184511F1801E112001EC095F098
:1036B4001FC084F018EF29F005EEFFF011EE90F032
:1036C400EE6AE550E150FCE1E250FAE105EE00F06B
:1036D40010EEFFF0EE6AE550E150FCE1E250FAE151
:1036E40004EE00F0CB0EEE6AE806FDE103EE00F016
:1036F400B50EEE6AE806FDE102EE00F0E90EEE6AB0
:10370400E806FDE101EE36F02F0EEE6AE806FDE173
:1037140000EE60F05F0EEE6AE806FDE100EE2CF0CC
:10372400190EEE6AE806FDE1DC0EF66E550EF76E34
:10373400000EF86E0900F5CFFCF00900F5CFFDF09E
:1037440045904592000EF86E00016CEF27F0AA0E2A
:10375400CA6FCB6BC551040FCC6F2A0ECD6F030E0D
:10376400CE6FCF6BC5C0D0F0DE6B0ED0DE51C3255B
:10377400D96E000EC421DA6EDEC0C6F0070EC6276D
:10378400C651CA0F29D8DE2BC551DE5DEFE3CC0E3E
:103794001B6E1C6AC5C0C6F0060EC627C651CA0FEA
:1037A400C76FC7C01DF01E6AA4EC27F0C86FC5C060
:1037B400C9F0070EC927C951CA0FD96EDA6AC8C041
:1037C400DFFFCA0EBF6FC06B080EC525C16FC26B89
:1037D400000EC22333EF29F0E16EE26ADFCFE7FF88
:1037E4001200000E1F6E040E206E2E50D8B4000C72
:1037F4002E04D8B4000C030E2E18D8B4000C060EF8
:103804002E1801E1000C1FC0D9FF20C0DAFFAA0E58
:10381400DF6E26D8DF6A24D8560EDF6E21D8300E2C
:10382400DF6E1ED8130EDF6E1F4A202A1E6A0FD0C9
:103834001BC0D9FF1CC0DAFF1FC0E1FF20C0E2FF9C
:10384400DFCFE7FF1B4A1C2A1F4A202A1E2A1D50CD
:103854001E5CEEE30001876B706B640E6F6F010CEE
:103864001F4A202A1FC0D9FF20C0DAFF120000011E
:1038740083050BE1836B845106E0000E7CEC23F09E
:103884000001816B02D0010E816F8151D8B4120006
:1038940092EC2AF0000923E11200000E7CEC23F0E4
:1038A400020E0001816F020CF7EC13F0030E00010D
:1038B400816F030C48EC16F0040E0001816F040CB8
:1038C4007EEC25F0050E0001816F050C010E7CECE9
:1038D40023F0060E0001816F060C816B12008151EA
:1038E400010ADBE0030AE0E0010AE4E0070AE8E099
:1038F400010AECE0030AF1E01200720EAC6F730EE1
:1039040034EC12F01BEC29F02EEC12F097EC25F0BD
:10391400710EAC6F2A0E34EC12F01BEC29F02EEC75
:1039240012F097EC25F0710EAC6F5D0E34EC12F0D2
:103934001BEC29F02EEC12F097EC25F0710EAC6F15
:103944006F0E34EC12F01BEC29F02EEC12F097EC15
:1039540025F0710EAC6F4F0E34EC12F01BEC29F015
:103964002EEC12F097EC25F0730EAC6FDA0E34ECFB
:1039740012F01BEC29F02EEC12F097EC25F04CEF32
:1039840025F03FD092EC27F01C6E2ED0AA0E1C1806
:1039940035E1010E21D01C5002E1020E1DD08E6BC8
:1039A4002DD08F6B736B746B1CC08CF01CC08BF0B0
:1039B4001CC08DF0030E10D01C508B278D07210ED8
:1039C4007325D96E020E7421DA6E1CC0DFFF734BAF
:1039D400742B8D5113E1040E8E6F10D08B511C2467
:1039E400DEE1010E8F6FDBD78E51D0E0010AD3E008
:1039F400030AD7E0010AE0E0070AF0E08F5101E092
:103A040012003D50BFE112009FC022F037C020F0E9
:103A140038C021F0020E9F1921E112001BC0D9FF0A
:103A24001CC0DAFF23D81B4A1C2A29D802E3376AB0
:103A3400386A3950371810E13A5038180DE11D50E2
:103A44001E1007E022C09FF020C037F021C038F0DC
:103A54001200020E9F6F020C010E9F6F1D06D8A06C
:103A64001E061D28DBE11E28D9E11200FF0E3724B3
:103A7400E16E050E3820E26EDFCFE7FF1200374A11
:103A8400382A900E375C010E385812001D6A1E6ADF
:103A94008D808D828D94216A212A090E2164FCD7A0
:103AA4008150070B1F6E206AD8901F3620361FD80E
:103AB4008D808D928D84216A212A090E2164FCD780
:103AC4001DD815D8D8901F3620368D908D828D84C0
:103AD400216A212A090E2164FCD710D88D801F1E6B
:103AE400010E201A1FC01BF020C01CF0010CD8903E
:103AF4001F362036D8901F36203612008150070B0F
:103B04001D6E1E6A1D501F121E502012120000014D
:103B1400D76F28D092EC2AF0000906E0D3C0C3F096
:103B2400D4C0C4F070EF1FF02ED8DF500101576FDE
:103B340020D8586F1ED8596F1CD85A6F1AD85B6F8B
:103B440018D85C6F318612001ED8DE04D8A4120087
:103B540092EC2AF0000904E05EEC0FF001EF2AF089
:103B6400338C12000001D751010AD4E0030AECE0BF
:103B740012000001D34BD42BD3C0D9FFD4C0DAFF39
:103B8400DF5001011200D3C0D9FFD4C0DAFF120004
:103B9400096E000162B112D0075027D805C0DEFFBC
:103BA40006C0DDFF6051D96EDA6A09C0DFFF26D88E
:103BB40007C0DFFF0ED805E1628103D00750EDECAA
:103BC40020F0075021D8D8A41200A851FEE1A48EF9
:103BD4001200040E6027B90E040F606302D0B90E00
:103BE400606F6293605161191200D96EDA6A020E35
:103BF400DF6E6051D96EDA6AD92A12006051D96E2B
:103C0400DA6A030ED926030CD96EDA6A020EDE18BC
:103C14001200000177510301031920E100017851DA
:103C2400030104191BE1020E00018919D8A4120032
:103C3400140E0301071908E0030E0001766FE80E65
:103C4400756F030E896F030C0001766B140E756F8C
:103C54000301096B050E0001896F050C08D8026E7B
:103C64000FD802E3776B786B025047EF24F0FF0E16
:103C740000017725D96E050E7821DA6EDF50120027
:103C8400774B782B900E775D010E785912001D6AE0
:103C94001D50200F33D81D50070D5A0EF324D96E32
:103CA400040EF420DA6E0800F5CFDFFF1D50290F53
:103CB40025D80800F5CF1CF01D5018D80401DF509A
:103CC4001C18F00B1C18DF6E1D5010D8DF981D5007
:103CD400070D5C0EF324D96E040EF420DA6EDE6A4E
:103CE400DD6A1D2A080E1D64D3D7080C070D5B0E70
:103CF400F324D96E040EF420DA6E12001B6E1BC07E
:103D0400F6FF080EF76E1200266E36D810E2395010
:103D1400375C246E3A503858256E215024262250A0
:103D24002522900E245C010E25580DE3000C1AD8B0
:103D34000AE221503724246E22503820256E39504F
:103D4400245C3A50F1D713D821C01DF022C01EF0D4
:103D540026C01FF023C020F0FFEC1EF0000901E193
:103D6400000C010C3950375C3A503858120037C0F7
:103D74001BF038C01CF012003750395C38503A58E8
:103D84001200206A1EAE06D01D6C1E1ED8B01E2A5C
:103D9400010E206E1CAE06D01B6C1C1ED8B01C2A53
:103DA400010E201A216A226A1D501E101BE0010E0A
:103DB4001F6E04D0D8901D361E361F2A1EAEFAD7A9
:103DC400D890213622361D501B5C1E501C5805E32A
:103DD4001D501B5E1E501C5A2180D8901E321D326D
:103DE4001F2EEED7205004E0216C221ED8B0222AC8
:103DF40021C01BF022C01CF012001D501E1001E156
:103E0400000C140E03010061000C0051090D010E99
:103E1400F324D96E030EF420DA6E1BC0DEFF1CC03F
:103E2400DDFF0051090D050EF324D96E030EF420B5
:103E3400DA6E1DC0DEFF1EC0DDFF0051090D070E46
:103E4400F324D96E030EF420DA6E1FC0DFFF005195
:103E5400090D080EF324D96E030EF420DA6E20C087
:103E6400DFFF1F0E1F1801E000F0010C28D092ECB8
:103E74002AF0000904E070EC0FF001EF2AF035821B
:103E8400120092EC2AF0000904E073EC0FF001EF49
:103E94002AF03584120092EC2AF0000904E0C3EC05
:103EA40020F001EF2AF03488120092EC2AF0000985
:103EB40004E0C6EC20F001EF2AF0348A12008A51A3
:103EC400D6E0010ADEE0030AE6E0010AEEE0070AB2
:103ED400ECE0010AEAE0030AE8E01200AA0EC56F6A
:103EE400C66B0A0EC76F170EC86F050EC96FCA6B73
:103EF400070ECB6FC3C0D9FFC4C0DAFFDF50CC6F4D
:103F04001CD8CD6F1AD8CE6F18D8CF6F16D8D06FF3
:103F140014D8D16FC34BC42BC70E1B6E1C6AD10EB1
:103F24001D6E1E6AA4EC27F0D26FC50EBF6FC06B66
:103F3400C26B0E0EC16F33EF29F0C34BC42BC3C049
:103F4400D9FFC4C0DAFFDF501200000E85B8010E9D
:103F54001C6EA01905E0796B7A6B1CC0A0F007D029
:103F6400610E795DEA0E7A5902E2794B7A2BC0EC44
:103F74002AF0000905E13CEC28F00009D8B412004D
:103F8400A2510DE1A051D8A412007A5104E1040E0B
:103F9400795DD8A01200010EA26FAB6F010CA05185
:103FA400D8B412007A5104E1040E795DD8A012004D
:103FB400A26B010EAB6F010C0F0EC112896A926ADB
:103FC4008A6A936A8B6A946A8C6A956A8D6A966A1D
:103FD4008E6A976A8F6A986A906A996A916A9A6AED
:103FE400F18E96908D8096928D8296948D84938096
:103FF4009382938498908F9098968F9693869282CA
:10400400938A95988C9895968C9695948C94978889
:10401400998C92809388958C958A988498928F82B3
:1040240012000001AA5101E012000A0EAA6F48EC26
:104034001DF01BC0E2F01CC0E3F0E46BE2C0E1F051
:10404400010EE117E45178EC1EF0E13BDF50000172
:10405400E119EF0BE119DF6ED890E333E233E45159
:10406400070D5A0EF324DB6F040EF420DC6FDE6BB5
:104074000A0EDD6F7FEC0FF0E42B080EE465DED74B
:10408400080C1F6E1E506AEC28F0206E202805E0F4
:10409400205017D81F50DF121200E9EC28F0206ED0
:1040A4002028D8B41200205014D81EC0DFFF20509E
:1040B40008D8DF6A205005D81F50DF122050A0EF27
:1040C4002AF0020D370EF324D96E010EF420DA6EB5
:1040D4001200020D380EF324D96E010EF420DA6EAC
:1040E40012000C0E00018719D8B412006F51701120
:1040F40001E012000B0E871907E18DEC08F0DBECF0
:1041040021F00001872B12000A0E871903E0DD6BF2
:10411400090E02D0DD6B050EDC6F050EBF6F040EB9
:10412400C06F87C0C1F0DCC0C2F008EC19F0000118
:10413400872B706B640E6F6F640C15D0020EA8EFA2
:104144002AF092EC2AF0000903E01BD801EF2AF0D0
:104154003488120092EC2AF0000903E015D801EF2C
:104164002AF0348A120000018A51E8E0020AE9E0E8
:10417400010AF0E0070AEEE0010AECE0030AEAE0D3
:10418400120099C0CAF0040C99C0CAF0020C1F6E48
:10419400000162B115D01D50F7EC1DF01BC0DEFF0D
:1041A4001CC0DDFF6051D96EDA6A1FC0DFFF00EC6E
:1041B4001EF01DC0DFFFEBEC1DF004E1628102D0B4
:1041C4001D5009D81D5006EC1EF0D8A41200A851A9
:1041D400FEE1A48E1200D96EDA6A010EDF6E010CC4
:1041E4000001C06FAA0EC16FC26B070EC36F230E0E
:1041F400C46FC56B020EC66F030EC76FC86BC05188
:104204000F0BC96FCA6BC30E1B6E1C6ACA0E1D6EE0
:104214001E6AA4EC27F0CB6FC10E04D8BFC025F0F2
:1042240026EF18F0216E226A246A0B0E236E0B0C03
:1042340014D092EC2AF0000904E064EC0FF001EFD2
:104244002AF0348E120092EC2AF0000904E07CEC8F
:104254000FF001EF2AF03580120000018A51D8B422
:104264001200010AD8B41200030AE3E0010AD8B428
:104274001200070AE8E0010AD8A4030A12000001A8
:10428400C56FAA0EC66FC76B070EC86F230EC96F22
:10429400CA6BCB6B050ECC6FC5517F0BCD6FC35171
:1042A4007F0BCE6FC4517F0BCF6FC80E1B6E1C6A81
:1042B400CF0E1D6E1E6AA4EC27F0D06FC60EBF6F22
:1042C400C06BC26B0B0EC16F33EF29F0CE6FAA0E19
:1042D4000001C46FC56B030EC66F130EC76F010ECA
:1042E400C86FC35106E0CE5102E0030E05D0020EA2
:1042F40003D0CE5103E0010EC96F01D0C96BC60EC5
:104304001B6E1C6AC90E1D6E1E6AA4EC27F0CA6FD0
:10431400C40EEDEC23F033EF29F0D86FAA0E0001A0
:10432400C46FC56B090EC66F2D0EC76FC86B010E27
:10433400C96FCA6B850ECB6FCC6BD8C0CDF0C3C030
:10434400CEF0CF6BC60E1B6E1C6ACF0E1D6E1E6A9E
:10435400A4EC27F0D06FC40EBF6FC06BC26B0D0E00
:10436400C16F33EF29F0AA0EC36FC46B0D0EC56F76
:104374001E0EC66FC769DF0EC86FC969BF0ECA6F4C
:10438400CB6BCC6BCD6BCE6BCF6BD06BD16BD26B5D
:10439400C50E1B6E1C6AD20E1D6E1E6AA4EC27F09D
:1043A400D36FC30EBF6FC06BC26B110EC16F33EFFF
:1043B40029F0590EC56517D0020EC3251B6E000ED9
:1043C400C4211C6E580EC3251D6E000EC4211E6E22
:1043D400A4EC27F0C66F20EE59F0C351D926C4517E
:1043E400DA22C6C0DFFFC3C0BFF0C4C0C0F0C26BD6
:1043F4005A0EC16F33EF29F00001C06FAA0EC16FCE
:10440400C26B070EC36F230EC46FC56B040EC66F59
:10441400030EC76FC86BC96BC0510F0BCA6FC30EB5
:104424001B6E1C6ACA0E1D6E1E6AA4EC27F0CB6FAD
:10443400C10E14EC21F0BFC025F026EF18F00001E6
:10444400C06FAA0EC16FC26B070EC36F230EC46F79
:10445400C56B010EC66F040EC76FC0517F0BC86FCA
:10446400C96BCA6BC30E1B6E1C6ACA0E1D6E1E6A14
:10447400A4EC27F0CB6FC10E14EC21F0BFC025F0E3
:1044840026EF18F0206E1E506AEC28F0216E2128C9
:10449400D8B41200201C1F6E215063EC20F01F5072
:1044A400DF16215063EC20F0DF50D8A41200215015
:1044B4006BEC20F0DF6AD3EC2AF02118D8A41200A8
:1044C400FF0EA0EF2AF00001F66F030E891915E123
:1044D400F6C0EBF0EC6BED6BEE6B010E1AEC04F036
:1044E4000001F6510301071902E1F5C009F306D8EA
:1044F400050E896F030108511200000C0001766B50
:10450400640E756F640C0001C16FAA0EC26FC36B99
:10451400030EC46F020EC56FBFC0C6F0C1C0C7F0A2
:10452400C40E1B6E1C6AC70E1D6E1E6AA4EC27F017
:10453400C86FC20E216E226A246A070E236EC0C0A1
:1045440025F026EF18F0276E000162B117D0610E36
:104554001B6E010E1C6E27C01DF023C01EF024C06C
:104564001FF025C020F0C4EC22F0610E1B6E010E7A
:104574001C6E26C01DF0010EC9EF20F02650EDEC94
:1045840020F0010C1FC021F020C022F0D890213669
:1045940022361BC0D9FF1CC0DAFF21C0DEFF22C0B7
:1045A400DDFF20EE02F008D81EC0DFFF20EE03F08E
:1045B40003D81DC0DFFF12001B50D9261C50DA227D
:1045C4001200D76FAA0E0001CD6FCE6B020ECF6F13
:1045D400010ED06FD7C0D1F0CF0E1B6E1C6AD10E66
:1045E4001D6E1E6AA4EC27F0D26FCD0E02D86FEFB9
:1045F40019F0276E286A2A6A060E296E2B6A060CA1
:10460400116E000162B117D0610E056E010E066EC7
:1046140011C007F00DC008F00EC009F00FC00AF079
:1046240021EC23F0610E056E010E066E10C007F03A
:10463400010ECAEF1DF01050EDEC20F0010C09C082
:104644000BF00AC00CF0D8900B360C3605C0D9FF1D
:1046540006C0DAFF0BC0DEFF0CC0DDFF20EE02F067
:1046640008D808C0DFFF20EE03F003D807C0DFFF3F
:1046740012000550D9260650DA221200246E07D003
:104684003F0E03D0400E01D0410E256E06D02350BC
:10469400F7E0010AF7E0030AF7E0249E2550D96EFB
:1046A400DA6A24501E0D16EC28F07F0E1D6EC3EC42
:1046B4001EF01B50DF6E12000001CE6FAA0ECF6FEA
:1046C400D06B030ED16FD26BCEC0D3F0CDC0D4F07B
:1046D400D10E1B6E1C6AD40E1D6E1E6AA4EC27F04C
:1046E400D56FCF0E276E286A2A6A070E296E2B6AA9
:1046F4006FEF19F00001C66FAA0EC76FC86B030EE7
:10470400C96F290ECA6F010ECB6FC6C0CCF0C95158
:10471400CA25CB25CC25CE6FCE6DCEC0CDF0C70E2D
:1047240002D80AEF2AF0C36FC46B070EC56F070CDB
:104734003B6A1CEC28F0C8EC29F02BEC2AF06BEC5B
:104744002AF0B4EC2AF0140E3F6E406E416E426AB9
:10475400926B936B316A326A336A346A356A366AA9
:104764006F6B706B0C0E876F866B120001014F6BC1
:1047740012D81B6A1C6A990E1B24D96E040E1C20C5
:10478400DA6E000EDF6E1B4A1C2A1C5003E1320E47
:104794001B5CF1E31200506B516B526B0001656BB3
:1047A400666B676B686B1200AA0EC36FC46B030E53
:1047B400C56F1F0EC66FC76BC80EC86FC50E1B6EC4
:1047C4001C6AC80E1D6E1E6AA4EC27F0C96FC30EC6
:1047D40002D833EF29F0BF6FC06BC26B070EC16FF5
:1047E400070CAA0E0001C36FC46B020EC56F100E36
:1047F400C66FC76BC50E1B6E1C6AC70E1D6E1E6A84
:10480400A4EC27F0C86FC30E02D833EF29F0BF6FB2
:10481400C06BC26B060EC16F060C16D8DF501D6E3E
:10482400100E1D6400D01E6A0FD8000E1E24E16E07
:10483400E26A020EE222DFCFE7FF1B4A1C2A1E2A8D
:10484400100E1E64F1D7100C1BC0D9FF1CC0DAFF78
:104854001200140E03010061140C0051090D030E23
:10486400F324D96E030EF420DA6E1BC0DEFF1CC0E5
:10487400DDFF0051090D090EF324D96E030EF42057
:10488400DA6E200EDF6E002B200C016E0001FB514E
:10489400FDE0A3B803D001C06DFF09D00AD801C060
:1048A400DFFFA62B0F0EA66501D0A66BFB07A3881E
:1048B4001200A398110EA625D96EDA6A020EDA2226
:1048C4001200C46FAA0E0001C56FC66B030EC76F3A
:1048D400150EC86FC3C0C9F0C4C0CAF0C70E1B6EA2
:1048E4001C6ACA0E1D6E1E6AA4EC27F0CB6FC50E9F
:1048F400EDEC23F033EF29F02F50301003E02F06B6
:10490400D8A0300600016F51701103E06F07D8A0E2
:10491400700771517211D8B412007107D8A07207D0
:1049240071517211D8A41200000E58EF2AF0C36F0F
:10493400AA0E0001C46FC56B030EC66F1C0EC76FB1
:10494400C3C0C8F0C96BC60E1B6E1C6AC90E1D6EAF
:104954001E6AA4EC27F0CA6FC40EEDEC23F033EF0B
:1049640029F01C6E07D03F0E03D0400E01D0410E3B
:104974001D6E06D01C50F7E0010AF7E0030AF7E0C9
:104984001D50D96EDA6A1E0EDF601E0C1D50D96EE2
:10499400DA6ADF2A12001B6E07D03F0E03D0400EE6
:1049A40001D0410E1C6E06D01B50F7E0010AF7E05F
:1049B400030AF7E01C50D96EDA6ADF50D8B412004B
:1049C4001C50D96EDA6ADF061200C36FAA0E00010A
:1049D400C46FC56B030EC66F040EC76FC86BC3C02C
:1049E400C9F0C60E1B6E1C6AC90E1D6E1E6AA4ECAD
:1049F40027F0CA6FC40EEDEC23F033EF29F0040E58
:104A04002C1803E0060E2C180AE192EC2AF0000997
:104A140004E06DEC0FF001EF2AF03586120092EC01
:104A24002AF0000903E0070EE7EF24F0318E1200AC
:104A34000001C36FAA0EC46FC56B020EC66F140EBD
:104A4400C76FC3C0C8F0C60E1B6E1C6AC80E1D6EAD
:104A54001E6AA4EC27F0C96FC40E09EC24F033EFEE
:104A640029F00001C06F07D03F0E03D0400E01D0E3
:104A7400410EC16F07D00001C051F6E0010AF6E013
:104A8400030AF6E0C15102D899EF26F0D96EDA6A2A
:104A9400DF5012003E50010F2B6E2BC0F6FF080EA4
:104AA400F76E0800F5CFADF0BE0EAD6502D0720E04
:104AB40001D0730EAC6F39EC12F01BEC29F02EEC24
:104AC40012F097EF25F00001D76FAA0ECD6FCE6BD1
:104AD400020ECF6F010ED06FD7C0D1F0CF0E1B6E78
:104AE4001C6AD10E1D6E1E6AA4EC27F0D26FCD0E87
:104AF400FBEC22F06FEF19F0AA0E0001C66FC76B32
:104B0400030EC86F290EC96F040ECA6F82C0CBF0A2
:104B1400C851C925CA25CB25CD6FCD6DCDC0CCF0EC
:104B2400C60E95EC23F00AEF2AF0B8EC2AF0E8065A
:104B3400FCE028C023F0256A6C0E246EBE0E266E9F
:104B44002A50A5EC22F0050E9D6F03D09D5101E182
:104B54001200BCEC2AF00009F9E01200C8EC2AF0BB
:104B6400E806FCE012C00DF00F6A6C0E0E6EBE0E6D
:104B7400106E145002EC23F0050E9D6F03D09D516E
:104B840001E11200CCEC2AF00009F9E01200A3BA0A
:104B9400A4AA04D0A49A1BEC27F00CD0A3B8A4A810
:104BA40004D0A49856EC26F005D09DB09EA002D067
:104BB4007DEC2AF004C0DAFF03C0D9FF459211004E
:104BC4001C6E07D03F0E03D0400E01D0410E1D6E67
:104BD40006D01B50F7E0010AF7E0030AF7E00F0ED6
:104BE4001C161D50D96EDA6A1C501C24DF6E12008C
:104BF400AA0E0001C36FC46B020EC56F2B0EC66FE5
:104C0400C76BC50E1B6E1C6AC70E1D6E1E6AA4EC14
:104C140027F0C86FC30E09EC24F033EF29F0AA0E75
:104C24000001C36FC46B020EC56F0F0EC66FC76B56
:104C3400C50E1B6E1C6AC70E1D6E1E6AA4EC27F0FF
:104C4400C86FC30E09EC24F033EF29F0AA0E00015B
:104C5400C36FC46B020EC56F170EC66FC76BC50E4C
:104C64001B6E1C6AC70E1D6E1E6AA4EC27F0C86F6B
:104C7400C30E09EC24F033EF29F01F6A1F501B24E4
:104C8400D96E000E1C20DA6E3D0E1F24C0EC26F0F7
:104C9400DE50E61804E11F2A030E1F64EFD7040E4A
:104CA4001F1801E1010C000C100E0001FB6110D073
:104CB400110EA725D96EDA6A020EDA22DF506D6E64
:104CC400A72B0F0EA76501D0A76BFB2B0BEF1EF0D4
:104CD400A3980BEF1EF0AA0EC36FC46B020EC56F30
:104CE400340EC66FC76BC50E1B6E1C6AC70E1D6ED5
:104CF4001E6AA4EC27F0C86FC30E09EC24F033EF4E
:104D040029F0AA0EC36FC46B020EC56F0E0EC66FD8
:104D1400C76BC50E1B6E1C6AC70E1D6E1E6AA4EC03
:104D240027F0C86FC30E09EC24F033EF29F0BF6FEE
:104D34000001BF513E18D8B41200BF5103E1DCECAE
:104D440029F004D03E5002E1D2EC29F01F0EBF61DD
:104D54001F0CBFC03EF04CEF25F01D6A1D501B24F4
:104D6400D96E000E1C20DA6E3D0E1D2407D8DFCF4D
:104D7400E7FF1D2A050E1D64F1D7050CE16EE26AFA
:104D8400010EE22212003C5008E1010E4AEC2AF026
:104D9400010E3C6E020EAB6F08D03C04D8A4120086
:104DA400010E4AEC2AF03C6AF5D76E6BC80E6D6FA3
:104DB400C80C0CD810D83FEC29F002D8B0EF25F07D
:104DC400136A020E126EAC0E146E1200100E000165
:104DD400AC6FAD6B1200066A500E056E500C1B6E64
:104DE4000001FB51FDE0A3B803D01BC06DFF0AD046
:104DF4005BEC24F01BC0DFFFA62B0F0EA66501D0D1
:104E0400A66BFB07A388120008D03F0E03D0400E08
:104E140001D0410E0001C06F06D04250F6E0010AF5
:104E2400F6E0030AF6E00001C05148EC25F099EFE2
:104E340026F06BA202D06B986B88000E0001A425AB
:104E440008D86ECFDFFFA42BA42901E1A46B3D2A6F
:104E54001200D96EDA6A050EDA221200A39AA39818
:104E6400480E7C6E900E6B6E260E6C6E210E6F6E6D
:104E74007D6AA66BA76B100EFB6FA46BA56B3D6AD6
:104E8400A38A12001D6A1BC0D9FF1CC0DAFF490E99
:104E94001D24E16EE26A010EE222DFCFE7FF1B4A26
:104EA4001C2A1D2A050E1D64EED7050C056E6284AE
:104EB400000108D805E006D8D96EDA6A05C0DFFF1C
:104EC400A86B120020EE03F07B51D9267C51DA2224
:104ED400DF50120079EC28F0F28EF28C49EC1EF0CF
:104EE4009AEC23F003EC11F033EC2AF0F6EC0BF01F
:104EF40013EC20F0C2EC15F0F9D71B6E1C6A1B50A2
:104F04001C24D96EDA6A430E1C24E16EE26A010E97
:104F1400E222DFCFE7FF1C2A050E1C64F0D7050C44
:104F24003D50FEE0A39A000E0001A5252BEC27F0CE
:104F3400DF501B6EA52BA52901E1A56B3D06A38AB5
:104F44001B5012001F6A08D01BC0D9FF1CC0DAFF17
:104F5400DF501F261B4A1C2A1B501D5C1C501E5868
:104F6400F3E21F6C1F5012001F6E0BD01BC0D9FF41
:104F74001CC0DAFFDF501F261B4A1C2A1D06D8A0BE
:104F84001E061D501E10F2E11F5012002C50D8B402
:104F94001200060E2C18D8B4120092EC2AF0000964
:104FA40004E076EC0FF001EF2AF036861200EA6F87
:104FB400380E0001E06FEAC0E1F0DFC0E2F0E00E7D
:104FC40002D8A9EF1BF0C36FC46B030EC56F030CAB
:104FD4001B6E030E1B6404D0090E1B6001D0090C68
:104FE4001B5000019719D8B412001BC097F018EF9A
:104FF40029F00001A2510BE03C5003E0D96B810E73
:1050040002D0D96B820ED86FD851E3EF22F0800E14
:10501400E3EF22F0236E23507F0D06D81E0E1D6E83
:10502400C3EC1EF01B501200F3CF1BF0F4CF1CF0A6
:105034001E6A12000001906B010E946F2C6A2D6A97
:105044002E6A996B77EC29F000018A6B9E6B886B52
:10505400A36B1200240E3B1801E1010C100E3B64FB
:1050640004D01C0E3B6001D0020C1C0E3B1801E165
:10507400030C000C010E1B6E2C040AE0020E2C180B
:1050840007E0030E2C1804E0050E2C1801E01B6A3F
:105094001B501200B90E0001616F606F6283629150
:1050A400646B800E646E280E636E656EA49EA38E80
:1050B400280C01C377F002C378F039EC1EF01C6EA3
:1050C40042EC1EF002E3776B786B1C50F1EF26F094
:1050D4001C6E1D6A1D506BEC20F01C50DE1802E1A2
:1050E4001D5012001D2A020E1D64F4D7FF0C9CEC07
:1050F4002AF0DEEC1FF013EC2AF04CEC28F030EC34
:1051040027F087EC28F04BEF29F0100ED56EF80E3F
:10511400D76E300ED66EF80EF86F300EF76FF2942D
:10512400F28AE4EF2AF01C0E3B18D8A4120092EC89
:105134002AF0000904E05EEC0FF001EF2AF0338C52
:105144001200E6EC2AF0E80605E141C0DFF0020EA9
:10515400D9EF27F03FC0DFF0000ED9EF27F07EEC47
:1051640024F0F6EC28F03BEC2AF0F0EC2AF0C4EC46
:105174002AF097EC2AF0CDEF28F009D8AD6FEDECCA
:1051840026F03FEC29F0E2EC26F0B0EF25F0100E0B
:105194000001AC6F0B0C6B516C1103E06B07D8A0D2
:1051A4006C076D516E11D8B412006D07D8A06E074C
:1051B400120008D8A92F03D0040EA86F040C010E06
:1051C400A86F010C040E7D27000E7E23000C1B6AC1
:1051D4001B5063EC20F0DF5002E11B5012001B2A2D
:1051E400020E1B64F5D7FF0CFC2903E1FD29D8B49A
:1051F4001200FC51FD11D8B41200FC07D8A0FD0721
:1052040012000001EA6FEAC0E0F0E16BDFC0E2F0F7
:10521400E00EE5EC27F0A9EF1BF01B6E1B5000011C
:105224009819D8B412001BC098F000D0010E836FF7
:10523400010C1D6A1E6A03D000F01D4A1E2A1B5071
:105244001D5C1C501E58F8E312001B6A90A707D07F
:10525400020E911902E0915102E1010E1B6E1B50E6
:105264001200BFC021F0C0C022F0C1C023F0C2C0F0
:1052740024F0010E256E26EF18F0076A086A03D0A1
:1052840000F0074A082A0550075C06500858F8E35E
:105294001200100ECD6ECF689C0ECE6EFA69F96FB7
:1052A4009E909D80E2EF2AF03E50D8B412003E0654
:1052B4004CEC25F03E50D8B4DCEC29F01200C3ECE1
:1052C4001CF000018F51D8B41200ACEC08F00001BE
:1052D4008F6B1200BFC021F0C0C022F0C1C023F008
:1052E400246A020E256E26EF18F00101366B1C6A43
:1052F4001C50BEEC29F01C2A020E1C64F9D7020CC7
:105304003E5002E1D2EC29F01E0E3E601E0C3E2AF5
:105314004CEF25F092EC2AF0000904E061EC0FF068
:1053240001EF2AF0338E120092EC2AF0000904E017
:1053340067EC0FF001EF2AF03482120092EC2AF0AD
:10534400000904E06AEC0FF001EF2AF03480120047
:105354001B6E1B500001BD1901E112001BC0BDF002
:1053640018EF29F0010E1B6E0001815103E18351F6
:1053740001E11B6A1B5012001B6E1B506BEC20F0EA
:10538400DF6A1B5063EC20F0DF6A000C00018F6BB6
:105394008E6B02D092EC27F03D50FCE1B8EF23F085
:1053A400C9EC28F034EC12F01BEC29F02EEC12F0CE
:1053B40097EF25F0E8EC26F039EC12F01BEC29F01D
:1053C4002EEC12F097EF25F092EC2AF0000903E09E
:1053D400030EE7EF24F0318C120092EC2AF000095E
:1053E40003E0010EE7EF24F0318A120092EC2AF078
:1053F400000903E0000EE7EF24F0318812000001F9
:10540400CB6FCAC0BFF0010EC06FCB5185EF22F045
:10541400C3C0BFF0C4C0C0F0C5C0C1F0C26B33EF9D
:1054240029F0D08EA58AA5889F80A59CA59EF1947D
:1054340012008DEC2AF0E806D8B490A71200C5EF4C
:1054440026F00001830501E1000C8151D8A4000C71
:10545400010C376A386A396A3A6A9F6B0301006B38
:1054640012006C6B0A0E6B6F3C6AA06B6D6B6E6BFB
:10547400120075517611D8B412007507D8A07607BA
:10548400120000018A5102E061EF1FF01BEF2AF0C5
:105494002B6E2B5002E1D2EF29F0DCEF29F0F294CD
:1054A400F8C0D7FFF7C0D6FFECEF2AF0156E155001
:1054B40002E1BFEF28F0DBEF26F0010E0001FD6FE3
:1054C400F40EFC6FF40C1FC01BF020C01CF00FEF97
:1054D40024F071EC2AF0836B816B956B1200000150
:1054E400986BBD69966B846B1200030E0001A319BF
:1054F400D8B4010C000C9E90FAC0CFFFF9C0CEFFC7
:1055040012001B6E1BC082F089EF2AF000D0010E3E
:105514000001836F010C0001A205D8B4010C000C3A
:105524000001895101E1010C000C9C2B9D51D8A470
:105534009D071200020ED36E9B6A12001B6E1BC0E5
:1055440036F11200000193BD010C000C1B6E1BC050
:1055540085F012001B6E1BC096F012001B6ED890D3
:105564001B30120001014F6BCDEF23F0000162B13B
:10557400010C000CA85101E1010C000C2C50D8B412
:10558400010C000CAA51D8A4AA071200000162B1B0
:10559400010C000CA85101E1010C000C030109519C
:1055A40012000101365112000001A16B120000012A
:1055B4009451120092BB010C000C9051080B120084
:1055C400CD801200D58E12003C501200B0EF14F0C2
:1055D40090511200B1EF28F0FFFF120012001200E8
:0455E400120012009F
:067FF80020F4C4FFF8F3C1
:00000001FF
