:0400000034EF00F0E9
:0E0008005382D9CF03F0DACF04F003EF21F0DA
:100018005380D8CF08F0E8CF09F0E0CF0AF0D9CF65
:100028000BF0DACF0CF0A3BCA4AC03D01FEC26F085
:100038000BD0A3BEA4AE03D048EC11F005D0F2BAA1
:10004800F2A402D0A0EC25F00CC0DAFF0BC0D9FF57
:100058000AC0E0FF09C0E8FF08C0D8FF53901000AD
:0400680059EF19F043
:100800000037332F2B27231F1B17130F0B0703FF53
:10081000FBF7F3EFEBE7E3DFDBD7D3CFCBC7C3BF08
:100820000602070501040003080502050404040488
:03083000020400BF
:100834000001CC6F330ECC1901E0ACD220EE03F0F2
:10084400A2DBDFAE43D020EE03F09DDB800EDF5E43
:1008540020EE03F098DBDF5018E1CE6B340ECE258A
:10086400D96EDA6A010EDA22DF6ACE2B530ECE6518
:10087400F5D7AA0E0101346F356B560E366F300E64
:10088400376F130E386F0001866B20EE03F07BDBAD
:100894008651DE18D8A4120020EE02F074DB090E93
:1008A400DE1806E1CE6B41DB070ECE65FCD705D022
:1008B400CE6B3BDB030ECE65FCD7862B0B0E861965
:1008C400D8A41200866B6CDB29EF1EF020EE03F037
:1008D4005ADBDF50CC6F20EE05F055DBDF503B6E6A
:1008E4003C6A040E3D26000E3E2254D23CC03FF02A
:1008F4003BC040F0020E401809E1050EF0EC24F074
:10090400000ED1EC25F0000E1DEC26F03F5074E1F2
:1009140082D0030E40181DE1020E416E190E4D18CF
:1009240005E120EE02F02FDBDF509A6F2EC1B6F006
:100934002FC1B7F030C1B8F031C1B9F032C1BAF04B
:1009440033C1BBF0030EF0EC24F0000ED1EC25F023
:10095400000C090E4018D8A41200040E416E040CB9
:10096400030E401807E1030EADDA0CEC22F0040E7E
:10097400F0EC24F0020ED1EC25F0010E1DEC26F073
:100984001A0E4D18D8A41200426A436A1D0E4D6E09
:100994001D0C030E401815E1050E416E010EF0EC1E
:1009A40024F0000ED1EC25F0000E1DEC26F01B0EF9
:1009B4004D18D8A4120020EE02F0E5DADF509A6F49
:1009C4001200090E4018D8A41200070E416E070C3D
:1009D400030E401807E1060E75DA0CEC22F0020E45
:1009E400F0EC24F0020ED1EC25F0010E1DEC26F003
:1009F4001C0E4D18C9E012003F50010A8AE0030A98
:100A040088E0010A86E0070AABE0010AC2E0030AB3
:100A1400D8A41200DDD740500AE1416A000ED1EC9F
:100A240025F0000E1DEC26F0000EF0EF24F0020E6F
:100A34004018D8A41200010E416E010C3BC09EF078
:100A44009E51D8B41200020E526E50EF22F03BC0F9
:100A540088F08805D8A41200526A50EF22F03BC0F7
:100A64008AF08A51F9E0010EEFD792853BC010F06D
:100A7400040EE1EC1CF0040E0001966F040C929538
:100A84003BC010F0040E90EF1EF0928B3BC010F0B0
:100A9400200EE1EF1CF0928D3BC010F0400EE1EF10
:100AA4001CF0929B929D3BC010F0200E90EC1EF027
:100AB4003BC010F0400E90EF1EF092873BC010F048
:100AC400080EE1EC1CF0D7D792973BC010F0080E4B
:100AD40090EF1EF092893BC010F0100EE1EF1CF075
:100AE40092993BC010F0100E90EF1EF092833BC021
:100AF40010F0020EE1EF1CF092933BC010F0020ED6
:100B040090EF1EF092813BC010F0010EE1EF1CF05B
:100B140092913BC010F0010E90EF1EF0928F3BC0FB
:100B240010F0800EE1EF1CF0929F3BC010F0800E9D
:100B340090EF1EF0020E966F020C010E966F010CE0
:100B4400030E966F030C050E966F050C080E4D18D8
:100B5400D8A41200426A436A090E4D6E090C0A0EAB
:100B64004D18D8A41200426A436A0B0E4D6E0B0C4A
:100B74003BC09BF0130E4D18D8A41200140E4D6EFA
:100B8400140C9EEC20F03BC098F0020E0001981962
:100B940003E0040E981905E13CC03BF03C6A3BC0FD
:100BA40099F0150E4D18D8A41200426A436A160E25
:100BB4004D6E160C3BC093F012001F0E4D6E1F0CB1
:100BC400010E0D6E3B50C4EC21F050EF22F03B506F
:100BD4003C1005E1000E6AEC20F050EF22F03B04DB
:100BE4003C1002E050EF22F0000E84EC20F050EFB5
:100BF40022F0020E411809E0050E411806E0040E29
:100C0400411803E0070E411803E1D1D9E5EC24F0C3
:100C1400156A3B5006EC1EF050EF22F0020E41180C
:100C240009E0050E411806E0040E411803E0070E22
:100C3400411803E1BCD9E5EC24F03B503C1013E12E
:100C4400000E6AEC20F05250D8A4120050EC22F0AE
:100C540032EC20F0000905E04F50CFEC24F06EEFA9
:100C64001EF0448012003B043C10D8A41200000E75
:100C740084EC20F05250D8A4120050EC22F032EC54
:100C840020F00009EEE04F50CFEC24F06EEF1EF0A0
:100C94000D6A3B500F0BC4EC21F0020E0D6E3B3875
:100CA4000F0BC4EF21F0156A3B5006EC1EF05250B6
:100CB400D8A4120050EC22F032EC20F00009D1E06C
:100CC4004F50CFEC24F06EEF1EF03F0404E0020E10
:100CD4003F18D8A4120032EC20F0000904E049ECDB
:100CE40021F016EF20F04984120052D9CDC0A3F0B0
:100CF4002DD00F0E4D6403D01D0E4D6405D0250E6E
:100D04004D1802E0BFEF25F0000ED1EC25F0000EE7
:100D14001DEC26F0BFEF25F0F0EC25F0000907E00C
:100D2400D4EC23F0E80603E1010EFCEC25F0D4EC4E
:100D340023F0E80605E00001CA6B020EC96F03D078
:100D44000001C96BCA6BC951FAEF1FF0CD51D1E054
:100D5400010AD8B41200030AD8B41200010AD8A4B4
:100D64001200DAD715D9CDAB1200CBAB02D0949BCD
:100D74001200948B12000CD9CDAD05D0CBAD02D0AE
:100D8400959D01D0958D060E4D18D8A41200070E1E
:100D94004D6E070CCC51010A01E1A8D5030A01E10B
:100DA4004DD6010A01E153D6070A01E158D6010ADA
:100DB40001E15BD6030A01E162D6010A01E17DD6B5
:100DC4000F0A01E181D6010A01E184D6030A01E197
:100DD40087D6010A01E159D6070A01E15CD6010A66
:100DE40001E15FD6030A01E181D6010A01E184D65B
:100DF4001F0A01E187D6010A01E18AD6030A01E14B
:100E04008DD6010A01E190D6070A01E193D6010AC1
:100E140001E193D6030A01E193D6010A01E193D6D5
:100E24000F0AD8B41200010AD8B41200030AD8B4C5
:100E34001200010AD8B41200070A01E187D6010A98
:100E440001E18DD6030A01E193D6010A01E199D6A5
:100E54003F0A01E1AFD6010A01E1B9D6030A01E173
:100E6400C8D6010A01E1ACD6070A01E1A6D6010AF7
:100E740001E1D4D6030A01E10BD7010A01E113D73A
:100E84000F0AD8B41200010A01E11FD7030A01E1D5
:100E94002CD7010AD8B41200070AD8B41200010AE8
:100EA400D8B41200030AD8B41200010AD8B412004C
:100EB4001F0A01E157D7010AD8B41200030A01E15D
:100EC4005AD71200416E20EE03F03D50D9263E5011
:100ED400DA22DF50B66F20EE04F03D50D9263E50A2
:100EE400DA22DF50B76F20EE05F03D50D9263E5090
:100EF400DA22DF50B86F20EE06F03D50D9263E507E
:100F0400DA22DF50B96F20EE07F03D50D9263E506B
:100F1400DA22DF50BA6F20EE08F03D50D9263E5059
:100F2400DA22DF50BB6FB60E1200CE513D24C36FE0
:100F3400000E3E20C46F040EC325D96E000EC421DA
:100F4400DA6E8651C56FC66BD890C537C637D89050
:100F5400C537C637D890C537C637340EC76F010EAC
:100F6400C86F050EC727000EC823C551C727C65131
:100F7400C823CE51C725E16E000EC821E26EDFCF33
:100F8400E7FFCE2B12003D50D9263E50DA22120044
:100F94003BC0CBF03CC03BF03C6A3BC0CDF0120000
:100FA400340E176E010E186E5A0E196E5A0C3BC091
:100FB4002FF0CC5112000201005103E00051ACECBF
:100FC40021F0220E0201001901E165D200050AE0B8
:100FD400170E001907E0180E001904E0330E00196B
:100FE40001E059D2B3EC25F0000901E154D2000E1E
:100FF400176E020E186E8CC019F01A6A4EC01BF0E0
:101004008BC01CF0FEEC13F046D23C6A3B6A87DAD4
:10101400330E1AEF04F002C20DF00151ADEF16F0D9
:101024003C6A3B6A7CDA150E1AEF04F03C6A3B6AB0
:1010340076DA140E1AEF04F03C6A3B6A70DA160E84
:101044001AEF04F03C6A3B6A6ADA170E1AEF04F0EE
:101054003C6A3B6A64DA180E1AEF04F03C6A3B6A95
:101064005EDA190E1AEF04F06DDA51DA050E1AEF92
:1010740004F04DDA060E1AEF04F049DA0B0E1AEFFB
:1010840004F045DA0C0E1AEF04F041DA0D0E1AEFF3
:1010940004F058DA3CDA070E1AEF04F038DA080ED6
:1010A4001AEF04F034DA090E1AEF04F030DA0A0EFB
:1010B4001AEF04F02CDA0E0E1AEF04F028DA0F0EF1
:1010C4001AEF04F024DA100E1AEF04F020DA110EED
:1010D4001AEF04F01CDA120E1AEF04F018DA130EE9
:1010E4001AEF04F001519CE0010AACE0030A9EE00F
:1010F400010AAEE0070AB2E0010AB6E0030AC9E059
:10110400010AB7E00F0ACAE0010ADCE0030ADEE0E4
:10111400010AC8E0070ACAE0010AAFE0030AB5E021
:10112400010A8AE01F0AADE0010AC8E0030AD2E01E
:10113400010AD8B41200070AD1E0010AD8A41200A7
:10114400B9D7E5D9020E1AEF04F0E1D9030E1AEF6C
:1011540004F03C6A3B6AE3D9240E1AEF04F0D7D9B1
:10116400250E1AEF04F0D3D9260E1AEF04F0CFD9C6
:10117400270E1AEF04F0CBD9280E1AEF04F0C7D9C2
:10118400290E1AEF04F00151D8B41200010AD9E073
:10119400030AD8B41200010AD8B41200070AD5E031
:1011A400010AD7E0030ADBE0010ADDE00F0ADFE011
:1011B400010AE1E0030AD8B41200010AD8B412000B
:1011C400070AD8B41200010AD8B41200020AD8A43B
:1011D4001200D5D79CD9040E1AEF04F001C2D1F045
:1011E400AAD90251A1D99BD9010E1AEF04F00151D9
:1011F40003E102290CE111D0010507E0020E0119F7
:1012040004E0030E0119D8A41200025106E13C6A5D
:101214003B6A85D91A0E1AEF04F03C6A3B6A7FD9FF
:101224001B0E1AEF04F0010E0D6E020E0E6EF9EC99
:1012340022F03C6A3B6A73D91C0E1AEF04F0010ECB
:10124400116E020E126EB9EC25F03C6A3B6A67D946
:101254001D0E1AEF04F001C23BF03C6A60D91E0E69
:101264001AEF04F054D9230E1AEF04F050D9210ECA
:101274001AEF04F04CD9220E1AEF04F00C05D8A48E
:1012840012000DC23BF03C6A4AD9200E1AEF04F05A
:1012940005C2CFF00001D06BCF51D06FCF6B0201EC
:1012A40006510001CF13CC0E02010A1903E10B51C0
:1012B400E8EF25F0300E0A190BE10C0E0D6E020E4C
:1012C4000E6E540E0F6EEFEC17F0000937E01200AB
:1012D400350E0A190EE10D5131E0110E0D612ED0BB
:1012E4000D0E0D6E020E0E6EDEEC1FF0D6EC25F028
:1012F40025D0020E0A1922E10B5115E01FD0D4ECBF
:1013040023F0E806D8A41200010EFCEF25F0D4EC7B
:1013140023F0030A05E0D4EC23F0020AD8A4120057
:10132400020EFCEF25F00C51510AE9E0030AD8B48F
:101334001200010AECE0070AD8B4120002010851B5
:101344000AE0070E1A6E020E1B6ECFC01CF008C214
:101354001DF03AEF15F0070E0D6E020E0E6ECFC0A3
:101364000FF003EC17F000090EE080EC25F0000903
:10137400D8B41200070E0D6E020E0E6ECFC00FF021
:10138400106A4AEF1CF080EC25F00009D8B4120072
:10139400010E0D6E020E0E6E8C050F6E010E106E98
:1013A4004AEF1CF003C23BF03C6AB9D82E0E1AEC8B
:1013B40004F0040E276E020E286E00018C51FC0FFF
:1013C400296E0201035125EF1BF002C2D1F0B3D8FC
:1013D4000151AAD8A4D81F0E1AEF04F002C2D1F00A
:1013E400AAD80351A1D89BD82A0E1AEF04F08FD89B
:1013F4002B0E1AEF04F03C6A3B6A91D82C0E1AEFBC
:1014040004F002C2D1F097D803518ED888D82D0E9B
:101414001AEF04F00151E2E0010AE9E0030AEBE00B
:10142400010AD8A41200EDD7011F021F031F041FD5
:10143400015109E001C2D1F07ED8055175D86FD8A9
:101444002F0E1AEC04F00201025109E002C2D1F09D
:1014540072D8065169D863D8300E1AEC04F0020130
:10146400035109E003C2D1F066D807515DD857D8BB
:10147400310E1AEC04F002010451D8B4120004C273
:10148400D1F059D8085150D84AD8320E1AEF04F086
:101494000051ACEF21F00201005101E1BCD5010A79
:1014A40001E120D6030A01E195D60D0A01E1DAD65D
:1014B400170AD8B41200020A01E1E0D6010A01E1D8
:1014C40062D6040A01E1C7D63F0A01E1ACD6010A9B
:1014D40001E1B5D6030A01E1DBD6010A01E187D6B1
:1014E400050A01E1C3D6010A9FE00E0A01E1C2D652
:1014F4001B0A90E0010A01E171D6070A01E185D5D2
:101504000D0A01E14FD7030A01E15FD7C1D702C237
:101514003BF03C6A010E3D6E020E3E6E1200010E5F
:101524003D6E020E3E6E12000001D113D1C03BF09D
:10153400D2C03CF012000001D26BD151D26FD16BFA
:101544000201120002510F0B4E6E1200C0D1000EA8
:10155400436EC80E426E010EA1D14250431001E009
:1015640025D2000E436E140E426E8F80020E96D169
:101574004250431001E01AD28F86A1EC24F0010EF0
:10158400436EF40E426E030E89D14250431001E0C3
:101594000DD2040E83D10001960501E007D232EC8E
:1015A40020F0000901E102D2D2EC1EF0050E76D142
:1015B40032EC20F0000901E1F9D194EC1DF005DAD8
:1015C400060E6CD14250431001E0F0D1070E66D1F3
:1015D40032EC20F0000901E1E9D1F7D96BEC1FF0FE
:1015E400080E5CD14250431001E0E0D1EED96BEC1F
:1015F4001FF0DCD132EC20F0000901E1D7D1E5D9AC
:101604004CEC21F00A0E4AD14250431001E0CED1F5
:10161400DCD94CEC21F0CAD1000ED1EC25F0000E3F
:101624001DEC26F00C0E4D6ED0D9C0D142504310A3
:1016340005E02EEC25F0000901E0B8D1426A436AC6
:10164400250E2CD132EC20F0000907E04EC017F033
:10165400510E16EC20F00E0E21D1020E4C1801E0B2
:10166400A5D1250E4D6E4C6AA1D132EC20F00009B3
:1016740001E19CD14EC017F0520E16EC20F00F0E73
:101684000DD1000ED1EC25F0000E1DEC26F0100E4D
:1016940005D188EC25F0000901E188D1110EFED0B6
:1016A40032EC20F0000901E181D1526A50EC22F0C1
:1016B4005050CFEC24F0176E5150CFEC24F0186E3C
:1016C4004F50CFEC24F0BCEC1DF0120EE7D032ECFE
:1016D40020F0000901E16AD194EC21F0130EA3D7A4
:1016E4004250431001E062D100019B6B94EC21F065
:1016F4009BD732EC20F0000901E158D10001996B2D
:101704009A6B64EC21F0150E8ED74250431001E021
:101714004DD100019B5104E07CEC21F0170EBED0AA
:101724001D0EBCD032EC20F0000916E13FD15AD98D
:1017340016EC20F04684180EB1D054D916EC20F0E3
:101744004686F9D752D916EC20F04688F4D74DD9FD
:1017540016EC20F0468AEFD700019851DBE0010A2D
:10176400D9E0030AE4E0010AE8E0070AEBE0010A31
:10177400EEE01CD132EC20F0000901E117D146A4BF
:1017840007D0469438D916EC20F024D9190E86D007
:1017940046A607D0469632D916EC20F01BD91A0E6D
:1017A4007DD046A807D0469826D916EC20F012D949
:1017B4001B0E74D046AAFAD0469A20D916EC20F013
:1017C40009D91C0E6BD042504310AAE00001995174
:1017D4000FE099519A190CE132EC20F0000908E06D
:1017E400FED816EC20F01D0E4D6E426A436ADED020
:1017F400020E4C1801E037D71E0E34D74250431066
:101804008FE0F6D7425043108BE0000199519A19AA
:10181400EFE132EC20F00009EBE0E1D816EC20F027
:10182400E2D732EC20F0000901E1C0D01F0E4D18C0
:1018340005E1DED816EC20F0210E30D03F500FE049
:10184400060E3F1805E1D4D816EC20F0200E26D061
:101854004EC017F0ED0E16EC20F0240E1FD03F50B2
:1018640007E1020E401804E1C3D816EC20F0EED7CD
:10187400BFD816EC20F0EAD732EC20F0000901E1E1
:1018840095D0436A960E426E4EC017F0540E16EC75
:1018940020F0200E4D18220ED8A4230E4D6E86D0B3
:1018A4004250431001E082D0250E4D6EF0EC25F03D
:1018B40000097CE0000ED1EC25F0000E1DEC26F0B2
:1018C40075D04C5073E04C0471E10D0ECBD64D50E5
:1018D40001E13DD6010A01E140D6030A01E148D6FF
:1018E400010A01E152D6070A01E155D6010A01E1D4
:1018F4005FD6030A01E166D6010A01E169D60F0A3F
:1019040001E170D6010A01E175D6030A01E17CD632
:10191400010A01E181D6070A01E188D6010A01E141
:1019240091D6030A01E1A1D6010A01E1AAD61F0A50
:1019340001E1AFD6010A01E1B3D6030A01E1C7D63A
:10194400010A01E1CDD6070A01E1D3D6010A01E17A
:10195400DCD6030A01E1E6D6010A01E1E1D60F0A69
:1019640001E108D7010A01E12ED7030A01E146D7B4
:10197400010A01E147D7070A01E140D7010A01E161
:1019840037D7030A01E14DD7010A01E14AD73F0ADB
:1019940001E172D7010A01E16FD7030A81E0010A6C
:1019A40001E17ED7070A02E0010A8BE0030E4D64D1
:1019B400030C24EC25F047EC23F052EC17F003EC75
:1019C4000DF054EC16F07EEF1CF0030E436EE80E9F
:1019D400426EE80CF60E436E180E426E180C4EC0A2
:1019E40017F0E30C4EC017F0F40C4EC017F0F50CD2
:1019F4004EC017F0530C4EC017F0E00C4EC017F059
:101A0400E10C4450451065E044A00AD032EC20F0CB
:101A1400000906E044904F50CFEC24F06EEC1EF029
:101A240044A20AD032EC20F0000906E0449250505F
:101A3400E4EC25F06AEC1DF044A40AD032EC20F06A
:101A4400000906E044945150E4EC25F04CEC1EF0FF
:101A540044A60BD032EC20F0000907E04496DD0EDA
:101A6400176E010E186E62EC1BF044A808D032EC1D
:101A740020F0000904E04498000E4DEC1FF044AA45
:101A840008D032EC20F0000904E0449A010E4DEC39
:101A94001FF044AC08D032EC20F0000904E0449C70
:101AA400030E4DEC1FF044AE08D032EC20F00009D8
:101AB40004E0449E070E4DEC1FF045A00AD032EC22
:101AC40020F0000906E045904EC017F0020EC2EC6B
:101AD4001FF04650471001E180D046A208D032ECF6
:101AE40020F0000904E0469207D916EC20F046A045
:101AF40008D032EC20F0000904E04690FDD816EC42
:101B040020F046AC08D032EC20F0000904E0469CFA
:101B1400EDD816EC20F046AE08D032EC20F00009E7
:101B240004E0469EF5D816EC20F047A008D032EC2D
:101B340020F0000904E04790F1D816EC20F047A209
:101B440008D032EC20F0000904E04792E4D816EC07
:101B540020F047A408D032EC20F0000904E04794B8
:101B6400D1D816EC20F047A608D032EC20F00009BA
:101B740004E04796CAD816EC20F047A80AD032EC05
:101B840020F0000906E047984EC017F0040E16EC4A
:101B940020F047AA0AD032EC20F0000906E0479A68
:101BA4004EC017F0020E16EC20F047AC0AD032EC0F
:101BB40020F0000906E0479C4EC017F00C0E16EC0E
:101BC40020F047AE0AD032EC20F0000906E0479E30
:101BD4004EC017F0050E16EC20F048504910D8B44A
:101BE400120048A00AD032EC20F0000906E0489028
:101BF4004EC017F00E0E16EC20F048A20AD032ECBC
:101C040020F0000906E048924EC017F00A0E16ECC8
:101C140020F048A40AD032EC20F0000906E04894F1
:101C24004EC017F00B0E16EC20F048A608D032EC8C
:101C340020F0000904E0489674D816EC20F048A877
:101C440009D032EC20F0000905E04898F1EC0CF0E2
:101C540016EC20F048AA09D032EC20F0000905E087
:101C6400489AC6EC18F016EC20F048AC09D032ECD7
:101C740020F0000905E0489CC9EC18F016EC20F0AF
:101C840048AE08D032EC20F0000904E0489E37D872
:101C940016EC20F049A009D032EC20F0000905E050
:101CA4004990F4EC0CF016EC20F049A209D032EC87
:101CB40020F0000905E04992F7EC0CF016EC20F056
:101CC40049A409D032EC20F0000905E0499449EC1C
:101CD40021F016EC20F049A6120032EC20F00009A5
:101CE400D8B41200499605D816EF20F04EC017F06C
:101CF4005D0C4EC017F0F70C4EC017F0E20C4EC04E
:101D040017F0EC0C4EC017F0300C4EC017F0310C2D
:101D14004EC017F0560C4EC017F0350C4EC017F0DD
:101D2400340C4EC017F0320C20EE01F065D9DF50B0
:101D34000F0B01E1120020EE01F05ED9DFA80CD0F8
:101D440020EE02F059D9600EDE5CEA0EDE5801E3A3
:101D54001CD120EE02F00BD020EE04F04DD9600E21
:101D6400DE5CEA0EDE5801E310D120EE04F044D923
:101D74002750DE262850DD2208D120EE01F03CD980
:101D8400DFA8F1D0010E3DD91FEC12F057D0EBD0F3
:101D940020EE02F031D9DE50DE1012E020EE02F027
:101DA4002BD9F40EDE5C010EDE580AE220EE01F0BF
:101DB40023D9DFB805D0010E24D91FEC12F03ED090
:101DC40020EE02F019D9590EDE5C020EDE58DFE374
:101DD40020EE01F011D9DFA8C6D0010E12D91FECF4
:101DE40012F020EE02F008D9640EDE5E000EDD5A19
:101DF40025D020EE02F000D9DE50DE100AE020EEFD
:101E040001F0FAD8DFB8AFD0010EFBD81FEC12F006
:101E140015D0A9D020EE02F0EFD8DE50DE1013E08A
:101E240020EE02F0E9D8F4D80EE220EE01F0E4D876
:101E3400DFB809D0010EE5D81FEC12F020EE06F051
:101E4400DBD8010E8FD020EE02F0D6D8E80EDE18D3
:101E54000DE1030EDE180AE120EE01F0CDD8DFA873
:101E640005D0020ECED81FEC12F078D020EE02F08E
:101E7400C3D8DE50DE1077E020EE02F0BDD8E90EC4
:101E8400DE5C030EDE586FE320EE01F0B5D8DFB858
:101E94006AD0050EB6D81FEC12F065D020EE02F021
:101EA400ABD8DE50DE101CE120EE01F0A5D8DFB87F
:101EB40017D020EE04F0A0D8010EDB5003E1C90EC8
:101EC400DE5C0EE320EE06F097D8DE0409E1030E93
:101ED40098D81FEC12F020EE06F08ED8030EDF6EB9
:101EE40020EE02F089D8DE50DE1026E020EE02F06B
:101EF40083D88ED821E220EE01F07ED8DFB81CD042
:101F040020EE04F079D8010EDB5011E1C90EDE5C3D
:101F14000EE220EE06F070D8DE0409E1040E71D85A
:101F24001FEC12F020EE06F067D8040E1BD0010E51
:101F340068D81FEC12F082D720EE02F05DD8E80ECC
:101F4400DE1811E1030EDE180EE120EE01F054D884
:101F5400DFA809D0020E55D81FEC12F020EE06F0CF
:101F64004BD8020EDF6E20EE02F046D8DE50DE10B3
:101F740020E020EE01F040D8DFB81BD020EE04F0C2
:101F84003BD8000EDE6EDD6E14D020EE01F034D8A6
:101F9400DF500F0B010A01E1F0D6030A01E1F8D684
:101FA400010A01E126D7070A01E134D7010A01E158
:101FB40075D725C0D9FF26C0DAFFDF5012E120EE25
:101FC40002F01AD8100EDE180CE1270EDE1809E113
:101FD40020EE01F011D8DFA804D0100E12D81FECA7
:101FE40012F020EE01F008D8DFB8120020EE02F063
:101FF40003D8DE6ADD6A000C2550D9262650DA2281
:102004001200236E25C0D9FF26C0DAFFDF5012006C
:10201400E80EDE5C030EDE581200140EA96F8C94D9
:102024008C969C6B0E0E9C65FDD78C849C6B020E6B
:102034009C65FDD78C869282938A700EAF6FC10E19
:102044001CD989EC24F013D9EAEC20F0700EAF6FA0
:10205400D50E13D989EC24F00AD9EAEC20F0720EDB
:10206400AF6FBE0E0AD989EC24F001D9EAEC20F056
:10207400800EAF6F400EB06F7F0EB16FB26B070E64
:10208400B36FB46B040EB56FFDD889EC24F01B6AF2
:10209400070E1A6EAF0E1C6EEAEC20F0720EAF6FD4
:1020A400440EEBD889EC24F0E2D8EAEC20F0720E6E
:1020B400AF6F6D0EE2D889EC24F0D9D8EAEC20F0A9
:1020C400730EAF6FD60ED9D889EC24F0D0D8EAECD1
:1020D40020F0070EAF6F200ED0D889EC24F0C7D8BB
:1020E400EAEC20F00A0EAF6F020EC7D889EC24F098
:1020F400BED8EAEC20F02F0EAF6F010EBED889ECEB
:1021040024F0B5D8EAEC20F02F0EAF6F020EB5D84C
:1021140089EC24F0ACD8EAEC20F0080EAF6F2F0E57
:10212400ACD889EC24F0A3D8EAEC20F0090EAF6F08
:102134002F0EA3D889EC24F09AD8EAEC20F00B0EE9
:10214400AF6FB06B9FD889EC24F091D8EAEC20F003
:102154000C0EAF6F600E91D889EC24F088D8EAECAD
:1021640020F00D0EAF6F010E88D889EC24F07FD8D3
:10217400EAEC20F00E0EAF6FB06B84D889EC24F03B
:1021840076D8EAEC20F0230EAF6F040E76D889ECF3
:1021940024F06DD8EAEC20F0110EAF6F030E6DD869
:1021A40089EC24F064D8EAEC20F0720EAF6F4D0E87
:1021B40064D889EC24F05BD8EAEC20F0720EAF6F9F
:1021C4004A0E5BD889EC24F052D8EAEC20F0710E68
:1021D400AF6F270E52D889EC24F049D8EAEC20F0EE
:1021E400710EAF6F590E49D889EC24F040D8EAEC4F
:1021F40020F0710EAF6F580E40D889EC24F037D818
:10220400EAEC20F0720EAF6FB70E37D889EC24F0E9
:102214002ED8EAEC20F0720EAF6FBC0E2ED889ECEB
:1022240024F025D8EAEC20F0720EAF6FB40E25D856
:1022340089EC24F01CD8EAEC20F0100EAF6F030EEA
:102244001CD889EC24F013D8EAEC20F09C6B130E14
:102254009C65FDD786EC24F010D889EC24F007D8CF
:10226400EAEC20F08C889EEC19F0D1EF20F01B6A88
:10227400020E1A6EAF0E1C6E1200B06F0E6A500E74
:102284000D6E500C0E6A500E0D6E500CA49E63AE73
:10229400AED0639E0001AA6B19EC23F00CEC1CF089
:1022A4007D6B7E6B120062B3120061C07DF07E6BA9
:1022B4006151D96EDA6ADF50AB6F6151D96EDA6A57
:1022C400D92ADECF7FF0DDCF80F0040E6127BC0E6B
:1022D400040F616302D0BC0E616F62916051611999
:1022E40001E162836280020EAA6F020C62AC04D028
:1022F40014D0040E0DEF23F0D890C131076EC03115
:10230400066E0650666EC0A103D00B0EAA6F0B0CAE
:10231400030EAA6F030C62AC02D0642BEAD762826C
:10232400C151060B066E076AF00E0610C06F075007
:10233400C16FC081010E816FD6D7810513E07FC0C4
:10234400D9FF80C0DAFFDECFC0F0DDCFC1F020EED0
:1023540003F068D8066E06C071F0726B20EE02F0CE
:1023640061D8826FC0C066FFC0A1D2D7050EAA6F24
:10237400050C62AC05D0642B629C050E0DEF23F0B6
:102384008207822907E152EC24F0AB2F01D028D038
:102394006282A9D74DD8DF50666E714B722B120042
:1023A40062AC06D0642B040E0DEC23F0629C120088
:1023B4006286080EAA6F080C080EAA6F6286080CC3
:1023C40037D866CFDFFF714B722B820704E0629A25
:1023D400060EAA6F03D0628A49EC24F062881200C8
:1023E400000E0DEF23F0642B060E0DEF23F0000119
:1023F400AA5101E158D7010ACBE0030A9EE0010A81
:10240400B8E0070AEDE0010ACBE0030AD5E0010ACF
:10241400E7E00F0AD5E0020A01E168D7010A01E109
:102424007AD7E1D77F51D9268051DA22DF501200C2
:1024340071C0D9FF72C0DAFF1200246EB5D0230434
:1024440007E1D4EC23F0030AD8A41200B8EF20F07B
:10245400020E2318D8A41200D4EC23F0030AD8B433
:10246400A2EC23F01200230413E1D4EC23F0E806D9
:1024740003E1010EFCEF25F0D4EC23F0030A05E0A0
:10248400D4EC23F0020AD8A41200020EFCEF25F0CB
:10249400020E231807E1D4EC23F0030AD8A4120097
:1024A4002DEF24F0100E2318D8A4120006EF25F007
:1024B400D4EC23F0030A05E12304D8A412009CEF12
:1024C40015F02304D8A41200C4EF24F0D4EC23F0B4
:1024D400030A05E12304D8A41200F8EF15F023043D
:1024E400D8A4120071EF24F0230407E1D4EC23F004
:1024F400030AD8A4120010EF25F0020E231807E1F6
:10250400D4EC23F0030AD8A4120055EF25F0050EED
:102514002318D8A41200D4EC23F0030AD8A4120080
:1025240067EF25F0230407E1D4EC23F0030AD8A4D1
:1025340012001AEF25F0020E231807E1D4EC23F061
:10254400030AD8A412005EEF25F0050E2318D8A4C0
:102554001200D4EC23F0030A02E167EF25F0120025
:10256400020E231802E126EF1AF0030E231802E1EB
:102574001CEF21F0040E2318D8A412003AEF22F025
:10258400020E231802E183EF18F0030E231801E171
:102594001200040E2318D8A4120034EF21F02304EF
:1025A400D8A412004CEF25F0245001E15CD7010AB5
:1025B40001E145D7030A01E17BD7010A87E0070A55
:1025C400B1E0010A91E0030ADBE0010AC9E00F0A65
:1025D400E6E01200C30EF76FF751F1EC13F076D872
:1025E400DF6A7AD801010051150FDF6E000174D83B
:1025F400290E6CD8050E6AD8DF6A6ED80C0E66D820
:10260400DF686AD84D0E62D8430E60D8480E5ED893
:10261400500E5CD897C0DFFFF72BF66B280EF6251B
:10262400D96EDA6A010EDA22F7515BD8F72BF62B52
:10263400050EF665F3D7F751D96EDA6AEBEC13F0B1
:102644004BD8090E43D84C0E41D8450E3FD85F0EE7
:10265400DF6EF72BF66B08D0010EF625F9EC13F0BC
:10266400F7513FD8F72BF62B010100510001F65D1D
:10267400F3E3F56B020EF66F07D0F651C30FD96E74
:10268400DA6ADF50F527F62B010100511A6E1B6A36
:10269400180E1A26000E1B220001F6511C6E1D6A2C
:1026A4001A501C5C1D50800A1E6E1B50800A1E5856
:1026B400E4E3F56DF751D96EDA6AF5C0DFFFC30EB6
:1026C400F4EC13F0190F196E6CEF23F0DF6EF72B97
:1026D400F751D96EDA6A1200F72BF751D96EDA6A1C
:1026E4001200E16EE26ADFCFE7FF1200C30EED6F66
:1026F400ED5175D863D8DF6A67D8010100510F0F17
:10270400DF6E000161D8290E59D8050E57D8DF6A4B
:102714005BD8060E53D8DF6857D84D0E4FD8430EFA
:102724004DD8480E4BD8500E49D897C0DFFF4CD82F
:1027340050D84AD8090E42D84C0E40D8450E3ED83F
:102744005F0EDF6EED2BEC6B08D0010EEC254FD83D
:10275400ED5173EC13F0ED2BEC2B01010051000152
:10276400EC5DF3E3EB6B020EEC6F07D0EC51C30F9F
:10277400D96EDA6ADF50EB27EC2B010100511A6E97
:102784001B6A120E1A26000E1B220001EC511C6E4D
:102794001D6A1A501C5C1D50800A1E6E1B50800A54
:1027A4001E58E4E3EB6DED51D96EDA6AEBC0DFFF3E
:1027B400C30E18D8130F196E6CEF23F0DF6EED2BD8
:1027C400ED51D96EDA6A1200ED2BED51D96EDA6A49
:1027D400120001010051040FDF6E00011200D96ED6
:1027E400DA6AAA0C176E186A010100511200D96E38
:1027F400DA6A010EDA2212002E6A040E19242C6EF3
:10280400000E1A202D6E070E2C242A6E000E2D2089
:102814002B6EAA0E1D6E2BC01EF02AC01FF0120EC6
:10282400206E1BC021F0226A2DC023F02CC024F09E
:102834002DC025F02CC026F0AA0E276E286A19C0D8
:1028440029F01D0E0F6E106A126A0D0E116E13EC34
:1028540019F01E0E0D6E0E6A106A0C0E0F6E2E50BD
:102864005AEC23F02E6E17C00FF018C010F019C0E8
:1028740011F01AC012F013EC19F017C00DF018C0C3
:102884000EF019C00FF01AC010F02E505AEC23F0BD
:102894002E6E1C0E14D813EC19F01CC01DF01D0E66
:1028A4000D6E0E6A106A010E0F6E2E505AEC23F054
:1028B4002E6E2E6C2E0E03D813EC19F006D00F6E6C
:1028C400106A126A010E116E010C0E0E0101D76F0F
:1028D4000E0C0D6E1ED049D067EF1FF00E0E0101D5
:1028E400CF6F0E0C5ED045D04CD04FD09AEF1BF07A
:1028F4000E0E0101D46F0E0C90EF1DF067EF14F073
:1029040048D066EF1DF00E0E0101D96F0E0C35D0C4
:1029140044D00D50020A29E0060A02E167EF1FF0D5
:102924000A0A33E0010A25E01F0A2BE0020A02E149
:1029340067EF14F0010A02E166EF1DF0060A2DE0CC
:10294400020A02E19AEF1BF00F0AD2E0060A21E024
:10295400010A13E03C0A02E190EF1DF00A0AD3E0F9
:102964001A0ABCE0070A1DE012000E0E0101CD6F29
:102974000E0C0E0E0101D16F0E0C0E0E0101DA6F5A
:102984000E0C0E0E0101DC6F0E0C0E0E0101D26F47
:102994000E0C0E0E0101D66F0E0C0E0E0101DB6F34
:1029A4000E0C0E0E0101D06F0E0CAA0E226E236ABD
:1029B4001A50040F246E2A0E256E030E266E276A03
:1029C4001AC028F019508009296E336A19D0195099
:1029D400080D17C01BF018C01CF0F3501B26F45050
:1029E4001C2233501B24D96E000E1C20DA6E33C017
:1029F4001DF0080E1D261D50220F73EC13F0332A10
:102A04001B681C681A501D6E1E6A1B501D261C5024
:102A14001E2233501F6E206A1D501F5C2050800AF6
:102A2400216E1E50800A2158D2E3240E0D6E0E6AC8
:102A34001AC01BF0060E1B261B50220F1C6E1CC056
:102A44000FF0106A90EC23F01D6E1AC01EF0070EF2
:102A54001E261E50220FD96EDA6A1DC0DFFF220E19
:102A64000F6E106A080E1A240EEC19F013EF19F009
:102A7400C80E1C6401D0C80C1D0405E11C500001E3
:102A840066EC1CF00DD020EE02F01A50D9261B5033
:102A9400DA22DF5000016527000E662367236823CE
:102AA400030E1D1803E0020E1D1809E11A4A1B2A21
:102AB4001A4A1B2A3AD8DF501C6E1A4A1B2A1E6A6D
:102AC40008D033D86FEC1CF01A4A1B2A78EC1CF09F
:102AD4001E2A1C501E5CF5E31D0403E0020E1D18A3
:102AE40002E1040E1DD0030E1D18D8A41200FC0E22
:102AF40065251F6EFF0E6621206E20C001F31FC0E6
:102B040002F3000E0D6E030E0E6E65C00FF003ECA3
:102B140017F0000902E0030E01D0010E000100D0FD
:102B24006D6F6E6B6F6B706B000C1AC0D9FF1BC09E
:102B3400DAFF120054D03F0409E0020E3F1806E009
:102B4400030E3F1803E0040E3F180DE10E0E4D6412
:102B54000AD032EC20F0000904E084EC0EF016EF09
:102B640020F047841200000E6AEC20F0000EE5EC21
:102B740022F00E0E4D640E0C32EC20F0000905E03C
:102B84004F50CFEC24F06EEF1EF044801200010E83
:102B94006AEC20F0010EE5EC22F00E0E4D640E0CF2
:102BA40032EC20F0000905E05050E4EC25F06AEF27
:102BB4001DF044821200020E6AEC20F0020EE5ECD5
:102BC40022F00E0E4D640E0C32EC20F0000905E0EC
:102BD4005150E4EC25F04CEF1EF0448412005250A6
:102BE400AAE0010AD4E0030AE6E0120054D03F044C
:102BF40009E0020E3F1806E0030E3F1803E0040E3E
:102C04003F180DE10E0E4D640AD032EC20F000099D
:102C140004E087EC0EF016EF20F047861200000E59
:102C240084EC20F0000EE5EC22F00E0E4D640E0C48
:102C340032EC20F0000905E04F50CFEC24F06EEFA9
:102C44001EF044801200010E84EC20F0010EE5EC2D
:102C540022F00E0E4D640E0C32EC20F0000905E05B
:102C64005050E4EC25F06AEF1DF044821200020E8D
:102C740084EC20F0020EE5EC22F00E0E4D640E0CF6
:102C840032EC20F0000905E05150E4EC25F04CEF63
:102C94001EF0448412005250AAE0010AD4E0030A50
:102CA400E6E012003BD032EC20F00009D8B4120068
:102CB400000E176E030E186E65C019F066C01AF088
:102CC400AAEC1AF0020E16D008EC26F0000908E16E
:102CD400220EACEC21F06D6B6E6B6F6B706B12009F
:102CE40008EC26F0040A05E008EC26F0050AD8A44E
:102CF4001200010E000192EF15F032EC20F00009F1
:102D0400D8B41200000E176E030E186E65C019F0C9
:102D14006CEC23F0220EACEC21F0DDD76DC029F071
:102D24006EC02AF06FC02BF070C02CF02C50D8A4C9
:102D340012000ED02A50D8A412002950D8B4120080
:102D4400010AB1E0030AC0E0010AD8A41200D5D7F1
:102D54002B50F0E012000E6E0F0E0D1630D00DC089
:102D6400CDF112000DC0CEF112000DC0CFF1120052
:102D74000DC0D0F112000DC0D1F112000DC0DCF174
:102D840012000DC0D2F112000DC0D3F112000DC01B
:102D9400D4F112000DC0D5F112000DC0D7F112000C
:102DA4000DC0D6F112000DC0D8F112000DC0D9F13A
:102DB40012000DC0DAF112000DC0DBF112000E504A
:102DC400020ACDE0060ACEE00A0ADBE0010AD3E0FB
:102DD4001F0AD4E0020AE1E0010AE5E0060AECE099
:102DE400020AD2E00F0AD3E0060ADAE0010AE1E0BF
:102DF4003C0AD0E00A0ADAE01A0AB7E0070AB8E0A7
:102E04001200010E186E146A166A46D00DC0D9FF5E
:102E14000EC0DAFFDF50196E0D4A0E2A0F062ED0AF
:102E2400AA0E191802E1010E21D0186A31D01950E6
:102E3400FCE1020E1BD019C015F019C017F00F5099
:102E4400106E116A1750126E136A122A000E1322A2
:102E540010501218EAE111501318E7E1030E06D0DE
:102E6400195015261706175013E1040E166E10D0CC
:102E740015501924DAE1010E146E0AD01650D0E070
:102E8400010AD5E0030AD7E0010AEAE0070AF0E004
:102E9400145004E1185002E00F50B8E11850120029
:102EA400850503E1856B010E836F8351D8B412004D
:102EB40032EC20F0000901E112000EEC26F0236E42
:102EC4000E0E231801E11200030E231809E0040E6C
:102ED400231806E0050E231803E0020E231822E14E
:102EE400010E000183651ED083071CD0000E88EC00
:102EF4001FF0020E0001836F020C95EC24F0040E07
:102F04000001836F040CDCEC21F0050E0001836FDB
:102F1400050C010E88EC1FF0060E0001836F060CF1
:102F2400836B120000018351010AE0E0030AE5E02B
:102F3400060AE9E0010AEDE0030AF2E012000001EA
:102F44007351741105E111EC1DF0746B320E736F43
:102F5400D4EC23F0020A05E0D4EC23F0030AD8A44D
:102F640012000001AD51D8B4120032EC20F0000977
:102F740026E1120042EC25F0000907E0A25105E029
:102F8400060E4DEC1FF022D825D0ADEC24F000093C
:102F940008E0A25106E1050E4DEC1FF00001A16B03
:102FA40019D0AD6B1200AD6B11EC26F0000903E0F3
:102FB400010E176E01D0176AA1513FEF1DF00001F9
:102FC400AD51010AD7E0030AEEE01200010E000140
:102FD400A16F010C020EAD6F020C340E116E010EC6
:102FE400126E4150D8B4000C4104D8B4000C030E46
:102FF4004118D8B4000C060E4118D8B4000C0001D6
:10300400AE0501E1000C11C0D9FF12C0DAFFAA0E0F
:10301400DF6E26D8DF6A24D8560EDF6E21D8300E34
:10302400DF6E1ED8130EDF6E114A122A106A0FD0FB
:103034000DC0D9FF0EC0DAFF11C0E1FF12C0E2FFDC
:10304400DFCFE7FF0D4A0E2A114A122A102A0F5029
:10305400105CEEE30001876B766B640E756F010CF8
:10306400114A122A11C0D9FF12C0DAFF1200296ACC
:10307400070E1924276E000E1A20286EAA0E1C6E45
:1030840028C01DF027C01EF0120E1F6E1BC020F0BA
:10309400216A1AC022F019C023F01AC024F019C002
:1030A40025F01C0E0F6E106A126A0A0E116E13ECD4
:1030B40019F01D0E0D6E0E6A106A090E0F6E29505E
:1030C4005AEC23F0296E17C00FF018C010F019C085
:1030D40011F01AC012F013EC19F017C00DF018C05B
:1030E4000EF019C00FF01AC010F029505AEC23F05A
:1030F400296E296C290E61EC14F013EC19F067EFBA
:1031040014F01D0E4D182CE0190E4D1829E01A0E5E
:103114004D1826E01B0E4D1823E01C0E4D1820E020
:10312400120032EC20F016D04888120032EC20F065
:10313400000903E029D816EF20F0488A120032EC87
:1031440020F0000903E023D816EF20F0488C120089
:1031540032EC20F00009E8E0F1EC0CF016EF20F07E
:10316400415002E1ADEF25F0010ADBE0030ADEE0A5
:10317400010ADCE0070AD8B41200010AE0E0030AFD
:10318400DEE0010AE5E012004EC017F0E40C4EC088
:1031940017F0E50C2D6EAA0E1C6E1D6A1750040F55
:1031A4001E6E2A0E1F6E030E206E216A17C022F0B7
:1031B4002E6A0DD02D502E24D96EDA6A2EC018F046
:1031C400070E182618501C0F73EC13F02E2A1750F4
:1031D4002E5CF0E31E0E0D6E0E6A17C018F0060E7C
:1031E400182618501C0F196E19C00FF0106A90ECB5
:1031F40023F01A6E17C01BF0070E1B261B501C0F62
:10320400D96EDA6A1AC0DFFF1C0E0F6E106A080E40
:10321400172402D813EF19F0116E126A000E12224D
:10322400000C010E166E9FC015F079C013F07AC021
:1032340014F0020E00019F192EE112000FC0D9FFF5
:1032440010C0DAFFFF0E7925E16E040E7A21E26EDA
:10325400DFCFE7FF0F4A102A794B7A2B2C0E795DCA
:10326400010E7A5902E3796B7A6B4A50791911E1AC
:103274004B507A190EE11150121008E0166A15C06D
:103284009FF013C079F014C07AF00CD0020E9F6F37
:1032940009D0010E9F6F1106D8A012061128CEE1A5
:1032A4001228CCE1165002E087EF22F0120004EE5F
:1032B400FFF011EE2CF0EE6AE550E150FCE1E25033
:1032C400FAE104EE00F010EEFFF0EE6AE550E15092
:1032D400FCE1E250FAE103EE00F0C80EEE6AE80603
:1032E400FDE102EE00F0C80EEE6AE806FDE101EE33
:1032F40000F0EB0EEE6AE806FDE100EE60F0630E0E
:10330400EE6AE806FDE100EE3FF0140EEE6AE80610
:10331400FDE1380EF66E4C0EF76E000EF86E0900E5
:10332400F5CFFDF00900F5CFFEF053905392000E57
:10333400F86E000121EF23F0720EAF6F730E3FECB5
:1033440011F089EC24F039EC11F0EAEC20F0710E64
:10335400AF6F2A0E3FEC11F089EC24F039EC11F038
:10336400EAEC20F0710EAF6F5D0E3FEC11F089ECCA
:1033740024F039EC11F0EAEC20F0710EAF6F6F0E0F
:103384003FEC11F089EC24F039EC11F0EAEC20F078
:10339400710EAF6F4F0E3FEC11F089EC24F039EC55
:1033A40011F0EAEC20F0730EAF6FDA0E3FEC11F07F
:1033B40089EC24F039EC11F0EAEC20F0D1EF20F0A4
:1033C4003FD07EEC23F00E6E2ED0AA0E0E1835E1FF
:1033D400010E21D00E5002E1020E1DD08E6B2DD0B5
:1033E4008F6B776B786B0EC08CF00EC08BF00EC0B9
:1033F4008DF0030E10D00E508B278D07000E77250D
:10340400D96E020E7821DA6E0EC0DFFF774B782B6F
:103414008D5113E1040E8E6F10D08B510E24DEE11A
:10342400010E8F6FDBD78E51D0E0010AD3E0030A7F
:10343400D7E0010AE0E0070AF0E08F5101E0120052
:103444000001A451BEE112001D0E4D182EE0190E0C
:103454004D182BE01A0E4D1828E01B0E4D1825E0D0
:103464001C0E4D1822E0120032EC20F00ED04888D9
:10347400120032EC20F0000904E0C9EC18F016EF59
:1034840020F0488C120032EC20F00009F0E0F1EC5E
:103494000CF016EF20F032EC20F0000904E0C6EC4A
:1034A40018F016EF20F0488A1200415002E1A7EF0D
:1034B40025F0010AD9E0030ADCE0010ADAE0070A90
:1034C400E2E0010AE8E0030AE6E0010A1200116AF8
:1034D400126A8D808D828D94136A132A090E1364E7
:1034E400FCD78150070B0F6E106AD8900F36103638
:1034F4001FD88D808D928D84136A132A090E13644C
:10350400FCD71DD815D8D8900F3610368D908D82E3
:103514008D84136A132A090E1364FCD710D88D8086
:103524000F1E010E101A0FC00DF010C00EF0010C8A
:10353400D8900F361036D8900F36103612008150BE
:10354400070B116E126A11500F1212501012120052
:10355400286A1928266E000E1A20276EAA0E1B6EE2
:1035640027C01CF026C01DF0120E1E6E1B0E0F6E1F
:10357400106A126A040E116E13EC19F01C0E0D6E13
:103584000E6A106A030E0F6E28505AEC23F0286E50
:1035940017C00FF018C010F019C011F01AC012F0C3
:1035A40013EC19F017C00DF018C00EF019C00FF08D
:1035B4001AC010F028505AEC23F0286E286C280EFC
:1035C40061EC14F013EC19F067EF14F00F6A0F506C
:1035D400200F33D80F50070D8E0EF324D96E010E31
:1035E400F420DA6E0800F5CFDFFF0F50290F25D83D
:1035F4000800F5CF0EF00F5018D80101DF500E1857
:10360400F00B0E18DF6E0F5010D8DF980F50070D17
:10361400900EF324D96E010EF420DA6EDE6ADD6AB0
:103624000F2A080E0F64D3D7080C070D8F0EF3244E
:10363400D96E010EF420DA6E12000D6E0DC0F6FF85
:10364400080EF76E12002B6E28D032EC20F0000921
:1036540006E027C017F028C018F062EF1BF02BD843
:10366400DF500101DD6F1FD8DE6F1DD8DF6F1BD85F
:10367400E06F19D8E16F17D8E26F448612001BD8A7
:10368400DE04D8A4120032EC20F0000904E078EC47
:103694000EF016EF20F0468C12002B50010AD5E0F4
:1036A400030AEDE01200274A282A27C0D9FF28C0C0
:1036B400DAFFDF50120027C0D9FF28C0DAFF12005A
:1036C400AA0E196E1A6A0A0E1B6E170E1C6E050ED0
:1036D4001D6E1E6A070E1F6E17C0D9FF18C0DAFFD1
:1036E400DF50206E1DD8216E1BD8226E19D8236E90
:1036F40017D8246E15D8256E174A182A1B0E0D6E7E
:103704000E6A250E0F6E106A90EC23F0266E190EC9
:103714000F6E106A126A0E0E116E13EC19F008D0B7
:10372400174A182A17C0D9FF18C0DAFFDF50120051
:103734000E0E0101D36F0E0C126A10AE06D00F6C80
:10374400101ED8B0102A010E126E0EAE06D00D6CEB
:103754000E1ED8B00E2A010E121A136A146A0F50E4
:1037640010101BE0010E116E04D0D8900F361036E5
:10377400112A10AEFAD7D890133614360F500D5CB8
:1037840010500E5805E30F500D5E10500E5A138062
:10379400D89010320F32112EEED7125004E0136C71
:1037A400141ED8B0142A13C00DF014C00EF0120069
:1037B400116E000162B124D032D8DF6E6051D96E2F
:1037C400DA6AD92A0DC0DEFF0EC0DDFF6051D96E62
:1037D400DA6A11C0DFFF6051D96EDA6A030ED926A6
:1037E4000FC0DFFF040E6027BC0E040F606302D01D
:1037F400BC0E606F62936051611904E1628102D072
:103804000F5008D80CD8DE18D8A41200AA51FEE133
:10381400A48E1200D96EDA6A010EDF6E010C0F500D
:10382400D96EDA6A020C0F0EC112896A926A8A6A28
:10383400936A8B6A946A8C6A956A8D6A966A8E6AB0
:10384400976A8F6A986A906A996A916A9A6AF18EFD
:1038540096908D8096928D8296948D849380938297
:10386400938498908F9098968F9693869282938A59
:1038740095988C9895968C9695948C949788998C19
:1038840092809388958C958A988498928F8212005E
:10389400C80E0F6401D0C80C0F5016D8116A09D095
:1038A4000DC0D9FF0EC0DAFF18D80D4A0E2A1ED853
:1038B400112A0F50115CF4E3105003E0010E92EF53
:1038C40015F0030E92EF15F0656F666B676B686B0E
:1038D400696B6A6B6B6B6C6B1200000E6925E16E91
:1038E400030E6A21E26EDFCFE7FF1200692B000EA0
:1038F4006A236B236C23000C0C0E00018719D8B4C7
:1039040012007551761101E012000B0E871906E1C1
:10391400D2EC07F029EC1EF0872B12000A0E87194F
:1039240003E0356A090E02D0356A050E346E390E8D
:10393400176E010E186E87C019F034C01AF0D7EC58
:1039440014F0872B0B0E871906E1020EAE1903E162
:103954000C0E876F0C0C766B640E756F640C000193
:10396400AC5101E012000A0EAC6F69EC1AF00DC004
:103974002CF00EC02DF02E6A2CC02BF0010E2B164D
:103984002E5017EC1BF02B3A0101DF502B18EF0BD4
:103994002B18DF6ED8902D322C322E50070D8E0E40
:1039A400F324256E010EF420266E286A0A0E276E73
:1039B40096EC0EF02E2A080E2E64DED7080C116E3B
:1039C4001050F3EC23F0126E122805E0125017D8B1
:1039D4001150DF12120057EC24F0126E1228D8B4E2
:1039E4001200125014D810C0DFFF125008D8DF6A3A
:1039F400125005D81150DF121250ECEF25F0020DD1
:103A0400220EF324D96E010EF420DA6E1200020D98
:103A1400230EF324D96E010EF420DA6E1200000E88
:103A240085B8010E0D6EA01905E07B6B7C6B0DC093
:103A3400A0F007D0610E7B5DEA0E7C5902E27B4B5D
:103A44007C2BA2510DE1A051D8A412007C5104E1B9
:103A5400040E7B5DD8A01200010EA26FAD6F010CA5
:103A6400A051D8B412007C5104E1040E7B5DD8A0AF
:103A74001200A26B010EAD6F010C226EAA0E186E1D
:103A8400196A030E1A6E130E1B6E010E1C6E17506C
:103A940006E0225002E0030E05D0020E03D02250AD
:103AA40003E0010E1D6E01D01D6A1A0E0D6E0E6A22
:103AB4001D0E0F6E106A90EC23F01E6E180EEBECC8
:103AC4001EF013EC19F000D00E0E0101D86F0E0C8D
:103AD400176EAA0E186E196A070E1A6E230E1B6E45
:103AE4001C6A020E1D6E030E1E6E1F6A17500F0B0A
:103AF400206E216A1A0E0D6E0E6A210E0F6E106A68
:103B040090EC23F0226E180E03D813EC19F006D0B3
:103B14000F6E106A126A0B0E116E0B0C0E0E010161
:103B2400D56F0E0CAA0E176E186A0D0E196E1E0EA6
:103B34001A6E1B68DF0E1C6E1D68BF0E1E6E1F6A98
:103B4400206A216A226A236A246A256A266A190E6F
:103B54000D6E0E6A260E0F6E106A90EC23F0276E1F
:103B6400170E0F6E106A126A110E116E13EC19F013
:103B7400CBEF14F0196EAA0E1A6E1B6A070E1C6E98
:103B8400230E1D6E1E6A1F6A050E206E19507F0BD0
:103B9400216E17507F0B226E18507F0B236E1C0E64
:103BA4000D6E0E6A230E0F6E106A90EC23F0246ED5
:103BB4001A0E8AEC1DF013EC19F090EF1DF09F51D2
:103BC400D8B4120012D8066E18D802E34A6A4B6AB7
:103BD4004A50791905E14B507A1902E19F6B02D0E2
:103BE400010E9F6F06504EEF20F0FF0E4A24D96E4F
:103BF400040E4B20DA6EDF5012004A4A4B2A2C0E78
:103C04004A5C010E4B581200166E07D04F0E03D0BB
:103C1400500E01D0510E176E06D01550F7E0010A70
:103C2400F7E0030AF7E0169E1750D96EDA6A1650C9
:103C34001E0D07D87F0E0F6E9EEC1BF00D50DF6E2D
:103C44001200F3CF0DF0F4CF0EF0106A1200590EEB
:103C5400196417D0020E17240D6E000E18200E6E74
:103C6400580E17240F6E000E1820106E90EC23F0DF
:103C74001A6E20EE59F01750D9261850DA221AC0BD
:103C8400DFFF17C00FF018C010F0126A5A0E116E41
:103C940013EF19F0176EAA0E186E196A070E1A6E32
:103CA400230E1B6E1C6A040E1D6E030E1E6E1F6A0D
:103CB400206A17500F0B216E1A0E0D6E0E6A210E1C
:103CC4000F6E106A90EC23F0226E180E8AEC1DF031
:103CD40013EC19F090EF1DF0176EAA0E186E196A06
:103CE400070E1A6E230E1B6E1C6A010E1D6E040E47
:103CF4001E6E17507F0B1F6E206A216A1A0E0D6EFE
:103D04000E6A210E0F6E106A90EC23F0226E180ECC
:103D14008AEC1DF013EC19F090EF1DF0126E1050A8
:103D2400F3EC23F0136E1328D8B41200121C116E96
:103D3400135001EC1DF01150DF16135001EC1DF06F
:103D4400DF50D8A41200135009EC1DF0DF6A0BEC0D
:103D540026F01318D8A41200FF0EECEF25F0000192
:103D64009F5115E0F7EC1DF0026EFFEC1DF002E32D
:103D74004A6A4B6A4A50791905E14B507A1902E1B3
:103D84009F6B02D0010E9F6F0250A7EF22F0020E2C
:103D94008919D8A41200030E896F0A0E906F0A0CB9
:103DA400AA0E176E186A030E196E1F0E1A6E1B6A7E
:103DB400C80E1C6E190E0D6E0E6A1C0E0F6E106A64
:103DC40090EC23F01D6E170E04D813EC19F0BFEF1E
:103DD40014F00F6E106A126A070E116E070C196E3A
:103DE400000162B117D0E70E0D6E010E0E6E19C000
:103DF4000FF015C010F016C011F017C012F010EC3F
:103E04001FF0E70E0D6E010E0E6E18C00FF0010EBE
:103E1400DAEF1BF018500CEC1CF0010C11C013F07D
:103E240012C014F0D890133614360DC0D9FF0EC04A
:103E3400DAFF13C0DEFF14C0DDFF20EE02F008D865
:103E440010C0DFFF20EE03F003D80FC0DFFF120025
:103E54000D50D9260E50DA2212004D6AC4EC23F01C
:103E6400A1EC24F090EC25F000EC26F018EC26F000
:103E7400140E4F6E506E516E526A946B956B446A79
:103E8400456A466A476A486A496A756B766B0C0EDE
:103E9400876F866B1200176EAA0E186E196A030ECE
:103EA4001A6E040E1B6E1C6A17C01DF01A0E0D6EDE
:103EB4000E6A1D0E0F6E106A90EC23F01E6E180E23
:103EC400EBEC1EF013EC19F000D00E0E0101CE6FD6
:103ED4000E0CAA0E176E186A020E196E0F0E1A6EC9
:103EE4001B6A190E0D6E0E6A1B0E0F6E106A90EC93
:103EF40023F01C6E170E04D813EC19F0BBEF14F06A
:103F04000F6E106A126A060E116E060C1A6EAA0E55
:103F14001B6E1C6A030E1D6E290E1E6E010E1F6E93
:103F24001AC020F01D501E241F242024226E226C4F
:103F340022C021F01B0E02D86CEF23F0176E186A12
:103F4400070E196E070C000112D80D6A0E6A000ED6
:103F54000D24D96E030E0E20DA6E000EDF6E0D4AAC
:103F64000E2A0E5003E1C80E0D5CF1E31200696BDA
:103F74006A6B6B6B6C6B656B666B676B686B120063
:103F8400226EAA0E186E196A030E1A6E150E1B6E97
:103F940017C01CF022C01DF01A0E0D6E0E6A1D0E05
:103FA4000F6E106A90EC23F01E6E180EEBEC1EF0F0
:103FB40013EC19F0CFEF14F016D8DF500F6E100E7B
:103FC4000F6400D0106A0FD8000E1024E16EE26A6C
:103FD400010EE222DFCFE7FF0D4A0E2A102A100E4F
:103FE4001064F1D7100C0DC0D9FF0EC0DAFF120017
:103FF400346EAA0E2A6E2B6A020E2C6E010E2D6EE2
:1040040034C02EF02C0E0D6E0E6A2E0E0F6E106A3A
:1040140090EC23F02F6E2A0E176E186A1A6A060E99
:10402400196E1B6A39EF18F0186EAA0E196E1A6A07
:10403400030E1B6E020E1C6E17C01DF018C01EF07E
:104044001B0E0D6E0E6A1E0E0F6E106A90EC23F09E
:104054001F6E190EEBEC1EF013EC19F0B7EF14F011
:104064000F6A100E0E6ECD0E126E010E136E106AD4
:10407400116A0CD012C0D9FF13C0DAFF0E0EDE187D
:1040840001E1000C124A132A104A112A0E50105C46
:104094000F501158EFE3010C056E0001FC51FDE0D7
:1040A400A3B803D005C06DFF09D00AD805C0DFFF4F
:1040B400A72B0F0EA76501D0A76BFC07A3881200DE
:1040C400A398110EA725D96EDA6A010EDA2212001E
:1040D4000E6E07D04F0E03D0500E01D0510E0F6E4E
:1040E40006D00E50F7E0010AF7E0030AF7E00F509C
:1040F400D96EDA6A1E0EDF601E0C0F50D96EDA6AB2
:10410400DF2A12000D6E07D04F0E03D0500E01D0DF
:10411400510E0E6E06D00D50F7E0010AF7E0030AC7
:10412400F7E00E50D96EDA6ADF50D8B412000E50A0
:10413400D96EDA6ADF0612000E6A100E0D6ECD0E0D
:10414400116E010E126E0F6A106A0AD011C0D9FFE7
:1041540012C0DAFF0F0EDF6E114A122A0F4A102A1C
:104164000D500F5C0E501058F1E31200040E3F186E
:1041740003E0060E3F180AE132EC20F0000904E0E7
:1041840093EC0EF016EF20F04886120032EC20F08B
:10419400000903E0070E4DEF1FF0448E1200A951F1
:1041A400010F1D6E1DC0F6FF080EF76E0800F5CF57
:1041B400B0F0BE0EB06502D0720E01D0730EAF6FB8
:1041C40044EC11F089EC24F039EC11F0EAEF20F022
:1041D400F4EC25F0E806FCE01AC015F0176A6C0E42
:1041E400166EC20E186E1C50F1EC1EF0050E9D6F7B
:1041F40003D09D5101E11200F8EC25F00009F9E02B
:104204001200A3BAA4AA04D0A49ABCEC22F00CD045
:10421400A3B8A4A804D0A49823EC22F005D09DB0A0
:104224009EA002D0CBEC25F004C0DAFF03C0D9FF76
:1042340053921100D4EC23F0030A01E012003F046E
:1042440007E0020E3F1804E0040E3F18D8A4120041
:1042540032EC20F0000904E081EC0EF016EF20F0BF
:10426400488E1200D4EC23F0030A01E01200050E7C
:10427400411804E0060E4118D8A4120032EC20F0D4
:10428400000903E004D816EF20F0498412004EC060
:1042940017F0F60CAA0E176E186A020E196E100E9D
:1042A4001A6E1B6A190E0D6E0E6A1B0E0F6E106AC3
:1042B40090EC23F01C6E170E82EC1FF013EC19F037
:1042C400C3EF14F0AA0E176E186A020E196E340E9C
:1042D4001A6E1B6A190E0D6E0E6A1B0E0F6E106A93
:1042E40090EC23F01C6E170E82EC1FF013EC19F007
:1042F400D3EF14F0AA0E176E186A020E196E170E79
:104304001A6E1B6A190E0D6E0E6A1B0E0F6E106A62
:1043140090EC23F01C6E170E82EC1FF013EC19F0D6
:104324009AEF1BF0AA0E176E186A020E196E0E0E83
:104334001A6E1B6A190E0D6E0E6A1B0E0F6E106A32
:1043440090EC23F01C6E170E82EC1FF013EC19F0A6
:10435400C7EF14F0176EAA0E186E196A020E1A6EC1
:10436400140E1B6E17C01CF01A0E0D6E0E6A1C0E76
:104374000F6E106A90EC23F01D6E180E82EC1FF085
:1043840013EF19F00E6E07D04F0E03D0500E01D06C
:10439400510E0F6E06D00D50F7E0010AF7E0030A44
:1043A400F7E00F0E0E160F50D96EDA6A0E500E2477
:1043B400DF6E1200AA0E1A6E1B6A030E1C6E290E03
:1043C4001D6E040E1E6E84C01FF01C501D241E247E
:1043D4001F24216E216C21C020F01A0EA0EC1FF0C6
:1043E4006CEF23F09F51D8B41200F7EC1DF00E6E61
:1043F400FFEC1DF002E34A6A4B6A4A50791905E161
:104404004B507A1902E19F6B02D0010E9F6F0E5040
:1044140092EF22F00D6E0E6A0E500D5CD96EDA6AC0
:10442400050ED926280E0E24E16EE26A010EE22260
:10443400DFCFE7FF0E2A050E0E64EED70101281F19
:10444400FF0C100E0001FC6110D0110EA825D96ECE
:10445400DA6A010EDA22DF506D6EA82B0F0EA86502
:1044640001D0A86BFC2BB1EF1EF0A398B1EF1EF0A6
:10447400D4EC23F0030A01E01200020E411804E018
:10448400030E4118D8A4120032EC20F0000904E015
:1044940049EC21F016EF20F04984120007D04F0EAA
:1044A40003D0500E01D0510E1F6E06D05250F7E0CB
:1044B400010AF7E0030AF7E01F5002D866EF22F082
:1044C400D96EDA6ADF5012001E6E1E500001A9195F
:1044D400D8B412001E5003E1DAEC24F004D0A95140
:1044E40002E17DEC24F01F0E1E601F0C1EC0A9F01B
:1044F400D1EF20F00AD0020E896FF4EF21F0010E03
:10450400896F8F80030E916F030C8951F8E0010AC3
:10451400D8B41200030AD8B41200010AECE0120065
:104524000D6E0001FC51FDE0A3B803D00DC06DFF7A
:104534000AD062EC20F00DC0DFFFA72B0F0EA76599
:1045440001D0A76BFC07A3881200016E0001FC5187
:10455400FDE0A3B803D001C06DFF0AD062EC20F0E7
:1045640001C0DFFFA72B0F0EA76501D0A76BFC07C7
:10457400A38812006BA202D06B986B88000E000116
:10458400A52508D86ECFDFFFA52BA52901E1A56BD2
:10459400A42B1200D96EDA6A040EDA221200A39A4E
:1045A400A398480E7C6E900E6B6E260E6C6E210ED8
:1045B4006F6E7D6AA76BA86B100EFC6FA56BA66B64
:1045C400A46BA38A12001F6E07D04F0E03D0500EA7
:1045D40001D0510E206E06D01F50F7E0010AF7E01B
:1045E400030AF7E0205062EC22F066EF22F00F6A33
:1045F4000DC0D9FF0EC0DAFF2E0E0F24E16EE26A61
:10460400010EE222DFCFE7FF0D4A0E2A0F2A050E24
:104614000F64EED7050C056E6284000108D805E02E
:1046240006D8D96EDA6A05C0DFFFAA6B120020EE45
:1046340003F07D51D9267E51DA22DF50120011ECAD
:1046440024F0F28EF28CE8EC1AF02FEC1FF00FEC51
:1046540010F0C5EC25F0A8EC0AF0B1EC1CF0A1ECCC
:1046640017F0F9D7A15107E1060E4DEC1FF0E8EC65
:1046740017F0ECEF17F0A105D8A41200050E4DECCD
:104684001FF00001A16BECEF17F006D09051D8A4F5
:1046940012008F90896B12008951D8B41200010A5C
:1046A400D8B41200030AD8B41200010AEFE01200D1
:1046B400116E0BD00DC0D9FF0EC0DAFFDF501126EA
:1046C4000D4A0E2A0F06D8A010060F501010F2E162
:1046D4001150120017C00FF018C010F019C011F0DB
:1046E400126A13EC19F020EE03F01750D926185073
:1046F400DA22DF506BEF14F00001A451FDE0A39A1D
:10470400000EA625CCEC22F0DF500D6EA62BA629B8
:1047140001E1A66BA407A38A0D501200116A08D008
:104724000DC0D9FF0EC0DAFFDF5011260D4A0E2A44
:104734000D500F5C0E501058F3E2116C1150120022
:104744003F50D8B41200060E3F18D8B4120032EC11
:1047540020F0000904E07BEC0EF016EF20F049860F
:104764001200905101E090079151D8B412009107C2
:104774009151D8A412008905D8A41200020E896FA1
:10478400E1EF1DF00001926B010E966F3F6A406AE3
:10479400416A4E6AFBEC24F000018A6B9E6B886BC5
:1047A400A36B1200250E4D1801E1010C0E0E4D6491
:1047B40004D01D0E4D6001D0020C1D0E4D1801E1F8
:1047C400030C000CBC0E0001616F606F6283629188
:1047D400646B800E646E280E636E656EA49EA38E59
:1047E400280C0E6E0F6A0F5009EC1DF00E50DE18E7
:1047F40002E10F5012000F2A020E0F64F4D7FF0CCF
:104804004250431003E04206D8A04306000175510C
:104814007611D8B412007507D8A076071200E0EC20
:1048240025F015EC1CF070EC25F0E4EC23F0D1EC51
:1048340022F01FEC24F0B9EF24F0100ED56EF80E20
:10484400D76E300ED66EF80EF96F300EF86FF29404
:10485400F28A16EF26F01D0E4D18D8A4120032EC81
:1048640020F0000904E078EC0EF016EF20F0468CFE
:10487400120002EC24F064EC24F0B3EC23F01EEC00
:1048840026F004EC26F0DBEC25F098EF25F008D8B0
:10489400AB2F03D0040EAA6F040C010EAA6F010CF7
:1048A400040E7F27000E8023000C0D6A0D5001ECCE
:1048B4001DF0DF5002E10D5012000D2A020E0D64AE
:1048C400F5D7FF0CFD2903E1FE29D8B41200FD51F0
:1048D400FE11D8B41200FD07D8A0FE071200000193
:1048E400A951D8B41200A907D1EC20F0A951D8B429
:1048F400DAEC24F0120008D83FEC11F089EC24F033
:1049040039EC11F0EAEF20F0100EAF6F0B0C0F6AC8
:10491400106A03D000F00F4A102A0D500F5C0E509D
:104924001058F8E31200020E971902E1ECEF12F0AE
:10493400040E971902E078EF13F0ECEF12F0000187
:104944008F6B8E6B02D07EEC23F0A451FCE19EECC5
:1049540020F0A5EF1FF00D6A92A707D0020E93195D
:1049640002E0935102E1010E0D6E0D501200100E83
:10497400CD6ECF689C0ECE6EFB69FA6F9E909D80C3
:1049840014EF26F00001A95102E17DEC24F01E0E83
:10499400A9611E0CA92BD1EF20F0156E15507F0DC7
:1049A40023EC1EF01E0E0F6E9EEC1BF00D50120039
:1049B400100EAF6FB06B44EC11F089EC24F039ECBD
:1049C40011F0EAEF20F03A6E3AC030F0316A2FC0AD
:1049D40032F0030E176E300ECCEF18F00D6E0D5042
:1049E40000019719D8B412000DC097F0010E856F1D
:1049F400010C0101216B0E6A0E5038EC25F00E2AD1
:104A0400020E0E64F9D7020C32EC20F0000904E027
:104A14008AEC0EF016EF20F0468E120032EC20F0F5
:104A2400000904E08DEC0EF016EF20F0478212002E
:104A340032EC20F0000904E090EC0EF016EF20F0C8
:104A440047801200E2EC19F08F51D8B41200DDEC6B
:104A540007F000018F6B1200010E0D6E00018351EF
:104A640003E1855101E10D6A0D5012000D6E0D50E8
:104A740009EC1DF0DF6A0D5001EC1DF0DF6A000C3B
:104A84000D6A000192A704D0930502E1010E0D6E98
:104A94000D50120078EC25F00D040E10D8B492A736
:104AA400120034EF23F032EC20F0000903E0030E8F
:104AB4004DEF1FF0448C120032EC20F0000903E0AB
:104AC400010E4DEF1FF0448A120032EC20F0000971
:104AD40003E0000E4DEF1FF044881200D08EA58A2B
:104AE400A5889F80A59CA59EF19412000001A205B3
:104AF400010ED8A4000E0D6E0E6A120000016D5155
:104B04006E116F11701101E1010C000C000185059B
:104B140001E1000C8351D8A4000C010C0001796B55
:104B24007A6B4A6A4B6A9F6B9EEF20F07351741143
:104B3400D8B412007307D8A074071200F294F9C015
:104B4400D7FFF8C0D6FF1AEF26F0F4EC0CF016EC01
:104B540020F046801200F7EC0CF016EC20F04682B0
:104B64001200030E0001A319D8B4010C000C11C0EB
:104B74000DF012C00EF0DEEF1FF0010E0001FE6F0B
:104B8400F40EFD6FF40C746B0A0E736FA16BA06BC3
:104B940012009E90FBC0CFFFFAC0CEFF12000D6E34
:104BA4000DC084F0D7EF25F000D0010E0001856F11
:104BB400010C9C2B9D51D8A49D071200020ED36EAC
:104BC4009B6A12000D6ED8900D3012000D6E0DC050
:104BD400AEF012000D6E0DC021F11200000195BD62
:104BE400010C000C000162B1010C000CAA5101E19E
:104BF400010C000C0D6E0DC04CF012000001856B11
:104C0400836B1200AC51D8A4AC0712000101D75138
:104C140012000101215112000101D951120094BB6B
:104C2400010C000CCD801200D58E1200B9EF1FF0DC
:104C34003BEF24F0FFFF12001200120012001200DA
:067FF80020F4C4FFF8F3C1
:00000001FF
